:020000040800F2
:10000000C84400209D010008A5010008A7010008C0
:10001000A9010008AB010008AD01000800000000C4
:10002000000000000000000000000000AF01000818
:10003000B10100080000000003020008B11400082C
:10004000B7010008B7010008B7010008B7010008B0
:10005000B7010008B7010008B7010008B7010008A0
:10006000B7010008B7010008B7010008B701000890
:10007000B7010008B7010008B7010008B701000880
:10008000B7010008B7010008B7010008B701000870
:10009000B7010008B7010008B7010008B701000860
:1000A000B7010008B7010008B7010008B701000850
:1000B000B7010008F5150008B7010008B7010008EE
:1000C000B7010008B7010008B7010008B701000830
:1000D000B7010008B7010008B7010008B701000820
:1000E000B7010008B7010008B7010008B701000810
:1000F000B7010008B7010008AD190008B7010008F2
:10010000B7010008B70100081D160008B701000874
:10011000B7010008B7010008B7010008B7010008DF
:10012000B7010008B7010008B7010008B7010008CF
:100130008D050008B7010008B7010008B7010008E5
:10014000B7010008B7010008B7010008B7010008AF
:10015000B7010008B7010008B7010008B70100089F
:10016000B7010008B7010008B7010008B70100088F
:10017000B7010008B7010008B7010008B70100087F
:10018000B7010008B7010008DFF80CD000F0BEF896
:100190000048004725330008C8440020064880472F
:1001A00006480047FEE7FEE7FEE7FEE7FEE7FEE75C
:1001B000FEE7FEE7FEE7FEE7E1140008890100081C
:1001C000EFF3108072B6704780F3108870472048B4
:1001D0004FF0FF010170002080F309881D480121C4
:1001E00001701D484FF08051016062B6FEE71A4869
:1001F0004FF080510160704717484FF08051016007
:10020000704772B6EFF3098040B1403880EC108A35
:10021000203880E8F00F11490968086000B51048DF
:1002200080475DF804EB0F480F490A7802700B48CD
:100230000E490A680260106890E8F00F203090ECD8
:10024000108A403080F309884EF0040E62B6704781
:1002500022ED00E04B01002004ED00E064010020ED
:10026000DD0E000848010020490100206C0100203B
:10027000D2B201E000F8012B491EFBD270470022E8
:10028000F6E710B513460A4604461946FFF7F0FF95
:10029000204610BD00F0004230F000400AD0C10DF1
:1002A00001F56071C0F3160042EA0151C20840072F
:1002B00011437047002001467047F0B400F000423F
:1002C00021F0004120F00040CE0DC30DC1F3160116
:1002D00041F40001C0F316004C42154640F4000002
:1002E000761E09E010EB440002D582F00042404245
:1002F0008842F7D840005B1EB342F9DA18B1F0BC6F
:10030000002100F01EB82846F0BC7047064C074D8F
:1003100006E0E06840F0010394E8070098471034D5
:10032000AC42F6D3FFF734FFDC520008FC52000861
:100330000029A8BF7047401C490008BF20F00100F9
:10034000704710B4B0FA80FC00FA0CF050EA0104D7
:1003500004BF10BC704749B1CCF1200421FA04F469
:1003600011FA0CF118BF012121430843A3EB0C0142
:10037000CB1D4FEA00614FEA102042BF002010BCA5
:10038000704700EBC35010440029A4BF10BC704755
:10039000401C490008BF20F0010010BC704730B578
:1003A0008C1810F8012B12F00F0301D110F8013B4B
:1003B000120906D110F8012B03E010F8015B01F8D7
:1003C000015B5B1EF9D101E001F8013B521EFBD13C
:1003D000A142E6D3002030BD0029816814BF41F05E
:1003E000010121F00101816070470000084AD2F844
:1003F0000413084B1940D0E9003C43EA0C03D0E950
:1004000002C04CEA000018430843C2F804037047D6
:1004100000200140E030FCFF10B44268D1E9003C0C
:1004200022F4807222F0407242EA0C221A434260A7
:1004300082680C4B1A40D1E904C343EA0C03D1E9AA
:10044000024C4CEA440C43EA0C031A438260C26A31
:10045000097E22F47002491EC9B242EA0151C1620A
:1004600010BC7047FDF7FFC030B4072509290CD92F
:10047000C468A1F10A0C0CEB4C0C05FA0CF5AC436A
:1004800003FA0CF32343C36009E0046901EB410C58
:1004900005FA0CF5AC4303FA0CF323430361836BB9
:1004A000C3F3015CA2EB0C02921C02EB82024FF040
:1004B0001F0C0CFA02FC23EA0C03914019438163E0
:1004C00030BC704705490028D1F8040314BF40F43C
:1004D000005020F40050C1F8040370470020014090
:1004E00030B4072509290CD9C468A1F10A0C0CEB1A
:1004F0004C0C05FA0CF5AC4303FA0CF32343C36030
:1005000009E0046901EB410C05FA0CF5AC4303FA70
:100510000CF3234303614FF01F0C072A0CD2436BEB
:10052000521E02EB82020CFA02FC23EA0C039140F9
:100530001943416330BC70470D2A0CD2036BD21FA4
:1005400002EB82020CFA02FC23EA0C0391401943ED
:10055000016330BC7047C36A0D3A02EB82020CFAA9
:1005600002FC23EA0C0391401943C16230BC70477E
:1005700005490028D1F8040314BF40F4000020F41A
:100580000000C1F8040370470020014070B500F07E
:10059000F9F9084C084D2146284600F02FF828B1FB
:1005A00003F01AFD2146284600F008F8BDE8704027
:1005B00000F0F6B92080002070640240064A9042A4
:1005C00034BF0648064811F0005F064A01EA0201FE
:1005D00014BFC16081607047106402400060024037
:1005E000006402407D0F7D0F0029016814BF41F0B7
:1005F000010121F00101016070470000124A00234F
:10060000904234BF114A124ADFF848C011EA0C0F79
:1006100004BF406900F0800006D04FF01E0C006857
:100620000CEAD12C00EA0C0011F0005F14BF5268F4
:100630001268DFF824C002EA0C020A421CBF00283C
:100640000123184670470000106402400060024019
:10065000006402403C0F3C0F7D0F7D0F11F0800FB6
:1006600007D04369002A0CBF23F0800343F08003C6
:100670004361802908BF704701F01E01002A02680B
:100680000CBF22EA010111430160704710B40268F7
:100690001B4BD1F80CC01A400B6843EA0C03D1E99C
:1006A00005C44CEA040C43EA0C03D1F81CC043EA2D
:1006B0000C03D1F820C043EA0C03D1F824C043EA6C
:1006C0000C03D1F828C043EA0C03D1F834C043EA44
:1006D0000C03D1F838C043EA0C031A4302604269A4
:1006E000D1E90B3C22F0070243EA0C031A434261B2
:1006F0000A6942604A6882608968C16010BC7047BC
:100700003F801CF0CB0800EB8300036A4907C90E49
:100710004FF00F0C0CFA01FC23EA0C030362036A8E
:1007200002FA01F119430162704702460020126982
:100730000A4218BF01207047418370472DE9F04FEE
:100740004FF0000CDDE909874FF001094FF0030A73
:1007500009FA0CF501EA0504AC4238D1D0F800B032
:100760004FEA4C040AFA04F62BEA060BC0F800B074
:10077000D0F800B002FA04FE4BEA0E0BC0F800B04D
:10078000012A18BF022A18D1D0F808B02BEA060BAC
:10079000C0F808B0D0F808B008FA04FE4BEA0E0B17
:1007A000C0F808B0D0F804B02BEA050545604568EC
:1007B00003FA0CFB45EA0B054560C56825EA06050A
:1007C000C560C56807FA04F445EA0404C4600CF186
:1007D000010CBCF1100FBBD3BDE8F08F0183704753
:1007E000002A14BF018341837047000070B586B0B2
:1007F00000F0C6F8514A002414639470D470147247
:10080000D471D460D4619461546154709471204661
:1008100002F134010C54401CC0B20828FAD3147100
:1008200054719462464841F258411462491E0904C9
:1008300000F8014B090CF9D142494FF48070401E79
:10084000000401F8014B000CF9D1DFF8F4C0431C9F
:10085000D9B2C0EBC00000EB4000C1EBC1010CEB12
:10086000800001EB41010CEB8101416136A1C164C3
:10087000D8B23D28EBD3C0EBC00000EB40000CEB3E
:10088000800031A14461C1643049C2F824C04FF4F2
:100890009670D462401E000401F8014B000CF9D19F
:1008A000DFF8A8C0411C00EB80008BB20CEB80008D
:1008B00003EB83030CEB83030470436088B20E28C0
:1008C000F0D300EB80000CEB800004704460C2F8B1
:1008D00010C000F0B7FB00F0E9FB00F00DFC1C4875
:1008E0004FF6FF71CDE9001080260325029600F532
:1008F000FE723F2300211748CDE9034500F028F997
:1009000005AA15A13F2000F081F917484FF6FE71A6
:10091000CDE90010029600F5FE723E230021134837
:10092000CDE9034500F014F905AA11A13E2000F01D
:100930006DF906B0BDE8704000F023B84401002016
:10094000442B0020442A00203F00000018250020EE
:1009500044280020D112000875432F4F532D4949D8
:100960002049646C6500000044260020ED12000858
:1009700075432F4F532D4949205374617400000073
:10098000704770470549C879012818BF70478878B3
:10099000FF283CBF401C88707047000044010020C5
:1009A00070B5174CE079012818BF70BDFFF708FC3F
:1009B000A178054621B1481E10F0FF01A1701AD19F
:1009C000E078C0B90F48A1790F4A415C525C805C65
:1009D00000EBC100C2B20D48627150F82210A16252
:1009E0002079824207D0886B401C8863E068401CF5
:1009F000E060FFF701FC2846BDE87040FFF7E4BB6C
:100A0000440100209C51000878010020442A002065
:100A100010B5094CE079012818BF10BDFFF7D0FBD5
:100A2000A17821B9E178FF293CBF491CE170BDE8FC
:100A30001040FFF7C9BB00004401002010B50D4C69
:100A4000E079012818BF10BDFFF7BAFBA17831B9D2
:100A5000E17821B1491E11F0FF01E17003D0BDE83A
:100A60001040FFF7B1BBFFF7AFFBBDE8104000F04F
:100A700063BB0000440100200B49C879002818BF5F
:100A800070470A4A88790A4B105C1B5CD25C02EB07
:100A9000C000C0B2074A4871087152F8200088624D
:100AA0000862FFF794BB0000440100209C5100083D
:100AB00078010020442A0020704700002DE9F04111
:100AC00084B01C4615460E468046FFF779FB1D494B
:100AD000097829B1FFF778FB04B03C20BDE8F0812C
:100AE000194F57F8241029B1FFF76EFB04B02820E6
:100AF000BDE8F081012147F82410FFF765FB0023D2
:100B00002A463146404600F0F3F80026014600969A
:100B10000196334632462046029600F03FFB050020
:100B200009D0FFF74DFB47F82460FFF74DFB04B0F9
:100B30002846BDE8F08105480078012808BF00F08C
:100B4000FBFAF4E746010020442A00204B01002074
:100B50002DE9FF4F83B01C46DDE91175DDE91386F1
:100B6000DDF840B0FFF72CFB2449097829B1FFF7E5
:100B70002BFB07B03C20BDE8F08FDFF8849059F8DC
:100B8000241029B1FFF720FB07B02820BDE8F08F23
:100B9000012149F82410FFF717FB3946284616F0C3
:100BA000010F4FF0000A1CBF16F0020F002803D0FF
:100BB00041F804AB401EFBD1DDE903013346059A41
:100BC00000F096F8CDE9005801465B463A462046CB
:100BD000029600F0E3FA050009D0FFF7F1FA49F8B0
:100BE00024A0FFF7F1FA07B02846BDE8F08F0548CA
:100BF0000078012808BF00F09FFAF4E746010020C2
:100C0000442A00204B0100207047704770B505460C
:100C100012480E461446007800281EBF122010709D
:100C200070BDFFF7CDFA0246FF2D03D10C480068D6
:100C300090F832500B4850F825004325002818BF83
:100C4000012806D0C6641046FFF7BEFA00202070C7
:100C500070BD1046FFF7B8FA257070BD4601002040
:100C600064010020442A0020704700002DE9F04173
:100C70000446002008600E464860FFF7A1FA0146CE
:100C8000FF2C03D11848006890F83240174850F8FC
:100C90002400002818BF01280ED0027C12F0010F9A
:100CA00010D0D0E902474FF000050846FFF78CFA54
:100CB00054F8040B60B110E00846FFF785FA4320B2
:100CC000BDE8F0810846FFF77FFA4520BDE8F081D6
:100CD00054F8040B6D1C0028FAD0781B3560706046
:100CE0000020BDE8F081000064010020442A0020BB
:100CF0002DE9FF4F002042F8040C42F8080C4FF099
:100D0000153142F80C1C4FF0143142F8101C4FF012
:100D1000133142F8141C4FF012334FF0103442F8E4
:100D2000183C4FF0113C42F81CCC42F8204C5D10AE
:100D300042F8245C661042F8286C4FF0073742F8FE
:100D40002C7C4FF0063842F8308C4FF00539A0105B
:100D500042F8349C42F8380C4FF0033A42F83CAC6D
:100D60004FF0023B42F840BC4FF0013E42F844ECE9
:100D7000810542F8481C009842F84C0C6FF00101C4
:100D800042F8501C42F8543C42F858AC42F85CBC63
:100D900042F860EC019842F8640C4FF0313142F8AF
:100DA000681C4FF0303142F86C1C4FF0293142F88A
:100DB000701C4FF0283142F8741C4FF0273142F874
:100DC000781C4FF0263142F87C1C4FF0253142F858
:100DD000801C590042F8841C4FF0233142F8881CD3
:100DE0004FF0223142F88C1C4FF0213142F8901C18
:100DF000610042F8941C4FF0193142F8981C4FF0F2
:100E0000183142F89C1C4FF0173142F8A01C4FF0EB
:100E1000163142F8A41C42F8A8CC42F8AC4C42F877
:100E2000B05C42F8B46C42F8B87C42F8BC8C42F832
:100E3000C09CA11042F8C41C04B0A2F1C400BDE8DB
:100E4000F08F000070B50446FFF7BAF984461F48DA
:100E5000FF2C006804BF90F83240012505D090F8BF
:100E60003200A0420CBF01250025194850F824008B
:100E700058B101280ED090F83410164B90F8354038
:100E80005A5CA2435A540AD010E06046FFF79CF91E
:100E9000482070BD6046FFF797F9432070BD0E49AA
:100EA00090F836200B7823EA02020A7090F830108E
:100EB00041F0080180F830106046FFF785F9002DF9
:100EC00018BF00F039F9002070BD00006401002057
:100ED000442A0020780100204A01002070470000C9
:100EE00070B5044614480078002818BF70BD134838
:100EF0000078002818BF70BD002C08BF70BDFFF738
:100F00005FF984460E4801680E4891F8342091F844
:100F10003550835CAB43835406D10B4891F836209F
:100F2000037823EA020202706046CC62FFF74CF9B4
:100F3000BDE8704000F000B94601002047010020E4
:100F400064010020780100204A0100202DE9F041D1
:100F500000F056F8FFF734F9274D296B491C296337
:100F6000FFF732F9E879012818BFBDE8F081687A07
:100F70000126002738B1012808BFBDE8F08102280A
:100F80000CBF6E726F72EC6A94F832003F2814BF87
:100F9000DFF86880BDE8F081FFF712F9E16A11B36C
:100FA000491EE1621FD194F8301011F0370F1DBFB8
:100FB00001F0C80184F8301084F8316084F8317091
:100FC00094F8301011F0080F0DD194F83610AA796A
:100FD0001143A97194F8341094F8353018F80120B1
:100FE0001A4308F801206469FFF7EEF894F832001C
:100FF0003F28D1D1BDE8F0814401002078010020D4
:101000007047000000B585B0684600F0FFF9019810
:1010100042F21071B0FBF1F0401EB0F1807F24BFAE
:1010200005B000BD4FF0E0214861054AF02082F88C
:10103000140D002088610720086105B000BD000084
:101040000FE000E010B550210F4800F023F8002019
:101050000D4B8446411C03EB00108AB203EB0212D5
:1010600080F800C0426009A2C26088B20428F1D3AF
:1010700003EB001005A180F800C0C0F804C0C160F7
:101080000348036010BD00009C3F00203F000000AB
:1010900080010020002914BF0022704700F8012BB6
:1010A000491E0904090CF9D17047000010B57821D8
:1010B0000E48FFF7EFFF0D4A002000EB400102EB66
:1010C000C10101F118034B60401C09A380B24B61C0
:1010D0000428F2D300EB400002EBC0000021416085
:1010E00003A141610348026010BD0000EC3F0020F5
:1010F0003F0000008401002010B560210C48FFF77C
:10110000C9FF0B4B0020411C8AB200EB400002EBF0
:10111000420203EBC20243F8302088B20328F2D324
:1011200000EB4000002143F830100248036010BD7E
:10113000644000208801002010B5FFF741F8134BF0
:1011400004469878002804BFD878002818D11048A1
:101150009979104A415C525C805C00EBC100C2B2DC
:101160000D485A7150F8221099621879824207D0BE
:10117000886B401C8863D868401CD860FFF737F83C
:101180002046BDE81040FFF71FB8000044010020D2
:101190009C51000878010020442A00202DE9FF5FBF
:1011A0009346DDE90F7689460546DDF83880FFF77E
:1011B00007F8DFF80CA1DAF82440002C79D0616937
:1011C000CAF82410FFF700F8C4F8009084F83250F1
:1011D0004FF0000984F8309084F83190C4F82C90D6
:1011E000C4F80C80C4E9017B26820398608284F8ED
:1011F0003790E80884F8340005F00701012284F8EC
:10120000331002FA00F084F8360002FA01F084F894
:101210003500C4F81C90C4F82490C4F82090C4F899
:101220003890C4F84090C4F83C9026A0C4F844908C
:10123000C4E91290002004EB8001401CC1F85090DA
:1012400010F0FF00F7D02046FFF736FCFEF7B8FF9E
:101250001D4941F82540FEF7B7FF2046FFF7D4FCB3
:10126000FEF7AEFF0246DAF82C00C4E905090028B3
:1012700018BF8461CAF82C4094F836009AF806101A
:1012800008438AF8060094F83400104994F835C0F1
:101290000B5C43EA0C030B549AF80800401C8AF8D4
:1012A00008001046FEF790FF04B00020BDE8F09F54
:1012B000FFE7FEF789FF04B04220BDE8F09F000081
:1012C000440100203F000000442A00207801002053
:1012D000054CFEF775FFE169491CE161FEF774FFFB
:1012E000FFF793FCF5E7000044010020264E82B092
:1012F000707830B94FF4FA60FFF7F2FD707800288B
:10130000F8D0224970694FF00007A1FB0010400996
:10131000706103D13770FF20FFF794FDFEF750FF97
:10132000716964225143F161FEF74EFF184DFEF7DB
:1013300047FFF169F761B161FEF746FFD6E9051095
:10134000B0FBF1F0C0F164003070FFF78DFC0024B9
:1013500069462046FFF78AFC60B955F82410002939
:1013600018BF012906D0D1E9020200EB82004864CF
:101370000198886404F10100C4B23F2CE8D94FF40D
:101380007A70FFF7ADFDD2E7440100201F85EB51D5
:10139000442A0020044A0029116814BF084321EAA6
:1013A000000010607047000030380240044A0029F5
:1013B000116814BF084321EA000010607047000064
:1013C00040380240044A0029116814BF084321EA4A
:1013D000000010607047000020380240044A0029D5
:1013E000116814BF084321EA000010607047000034
:1013F00044380240044A0029116814BF084321EA16
:10140000000010607047000024380240DFF88CC0F4
:1014100030B4DCF80010224D11F00C0106D0214C44
:10142000042908BF046002D008291DD00560DCF83B
:1014300000100F221C4B02EA1111595C026822FABB
:1014400001F14160DCF80020072404EA92229A5C52
:1014500021FA02F28260DCF8002004EA52329A5C3F
:10146000D140C16030BC7047104A1168C1F380534D
:101470001168002B01F03F0114BFB4FBF1F1B5FB83
:10148000F1F113681268C3F388135943C2F30142A0
:10149000521C5200B1FBF2F10160C8E7083802406B
:1014A0000024F40040787D0134010020043802401B
:1014B000094810B50168491C0160FEF781FE074923
:1014C0000A78521C0A70FEF77FFEFFF73FFDBDE869
:1014D0001040FFF765BA00008C0100204601002093
:1014E0003B4882B0016841F47001016039480168ED
:1014F00041F00101016038494FF0000CC1F800C013
:10150000026822F4102222F080720260031D334A26
:101510001A60026822F4802202600A1DC2F800C02C
:10152000CDF800C0CDF804C0026842F480320260F9
:10153000026802F400320192009A521C0092019A51
:101540001AB9009AB2F5A04FF2D1026812F4003F26
:1015500008BFCDF804C034D001220192204AD2F84D
:1015600000C04CF0805CC2F800C01E4AD2F800C037
:101570004CF4804CC2F800C00A680A600A6842F461
:1015800000420A600A6842F4A0520A60164A1A60D1
:10159000026842F080720260026812F0007FFBD0A5
:1015A000124A40F205601060086820F003000860ED
:1015B000086840F002000860086800F00C00082885
:1015C000FAD10B494FF00060086002B0704700008C
:1015D00088ED00E000380240083802401030002456
:1015E000403802400070004008544007003C024070
:1015F00008ED00E010B5084C0121204600F023FB67
:10160000002808BF10BD01F089FC2046BDE810404D
:10161000012100F025BA00000004004070B5D14D52
:101620002DED068B86B0288810F0010F02BF06B0A2
:10163000BDEC068B70BDCC4ECC4C96ED010A606CB7
:10164000B0EEC00A90ED352A90ED001ADFEDC89A91
:10165000F0EE690AF0EE601A03F0CAFC8DED010AA3
:10166000606C90ED350A01A803F076FD9FEDC19AFC
:10167000DDED010AB0EE000A20EE800ADFEDBE0AC1
:1016800020EE200ADFEDBD0A60EE208A96ED030A07
:10169000B5EEC00AF1EE10FADABF9FEDB90A28EEF6
:1016A000808A28EE898A94ED250AB64830EE080A29
:1016B00084ED250A03F0E6FC94ED290AB0EEC00A99
:1016C000B4EEE80AF1EE10FA94ED020A38BF30EEFB
:1016D000090A07D3B5EEC00AF1EE10FAC8BF30EE22
:1016E000490A01DD84ED020AE06C0022032808D0DB
:1016F00096ED030AA449B0EEC00A10EE100A884223
:1017000002DAC4ED029A6271616C94ED020A002063
:10171000D1ED360AF4EEC00AF1EE10FA09D2DFF884
:101720006CC2E368634504DC91ED370A012084ED67
:10173000030A94ED030AB5EEC00AF1EE10FA25DDB6
:1017400094ED230A30EE080A84ED230A80B1D6ED29
:10175000030A9FED8F0AF5EEC00AF1EE10FAD4ED00
:10176000230AD4BF30EEC00A30EE800A84ED230A8B
:10177000884803F087FC0120607194ED030A30EE85
:10178000490A84ED030AC4ED029A04E094ED220AAA
:1017900084ED230A6271A06C022833D196ED130AFE
:1017A0007D488DED000A96ED140A8DED020A96ED46
:1017B0000F0A8DED030A96ED100A8DED040ADDED9A
:1017C000030A20EEA00ADDED040A00EEA00AF1EE05
:1017D000C00A90ED010A30EE800A80ED010ADDEDCD
:1017E000000A20EEA00ADDED020A00EEA00AF1EEEA
:1017F000C00A90ED020A30EE800A80ED020A01680C
:10180000491C0160606C96ED030A90ED2F1AD0ED33
:10181000300AB0EEC00A90ED2F2A61EE201AB7EE22
:10182000001AF0EE690A03F0E3FB84ED2E0AE06C87
:1018300001287CD1E06C01281CBFC4ED0A9AC4EDDC
:101840000B9A74D194ED290ADFED540A606C60EEB6
:10185000208A94ED210AD0ED440A30EE688A94ED96
:10186000210AB0EEC00AF4EEC00AF1EE10FAC4BFCD
:10187000C4ED0A9A84ED0B8A6BDCD0ED400A9FED33
:10188000480A28EE001A20EE81AAD0ED410A20EE87
:10189000881ADFED441AD4ED0A0A41EE210AC4ED9C
:1018A0000A0A90ED421AC1EE090A94ED0B1A94ED62
:1018B0000C9A38EE411A60EE810A20EE800AD0EDD3
:1018C000430A394839EE400A00EEC09AF7EE000AA2
:1018D000BFEE000A84ED0C9A03F028FC84ED0B8A1D
:1018E00094ED0A0AF7EE000A68463AEE000A30EE76
:1018F000090A8DED000ABFEE000A03F017FC606CC8
:1019000090F81411E9B9F5EEC08AF1EE10FA08DD8D
:101910009DED000AB5EEC00AF1EE10FA38BFCDED2C
:10192000009AF5EEC08AF1EE10FA0AD200E010E05B
:101930009DED000AB5EEC00AF1EE10FAC8BFCDED7C
:10194000009A90ED180ADDED000A20EE200A84EDE1
:101950001E0A288820F00100288006B0BDEC068B06
:1019600070BD0000100C0040A4240020780000206E
:10197000000000006F12833ADB0F49408988883CE1
:101980006F1283BA0C0100206F12833A17B7D13857
:10199000DB0FC93F0401002004250020EBC91841DA
:1019A000CDCC4C3D18B75138A000002010B50A4CE2
:1019B0000221204600F047F9002808BF10BD074863
:1019C000407818B12021064800F03BF92046BDE8D8
:1019D0001040022100F044B80004014078000020CB
:1019E000000001400029018814BF41F0800121F06E
:1019F0008001018070470A884B88B1F806C01A43FD
:101A00008B8843EA0C031A430B891A434B89898953
:101A10001A431143A0F8441070470029818814BF6D
:101A200041F0010121F00101818070470123B0F8EC
:101A300020C08B402CEA03030384038C02FA01F1DB
:101A40001943018470470423B0F820C08B402CEA6E
:101A500003030384038C02FA01F1194301847047E4
:101A6000C943018270470029018814BF41F0010178
:101A700021F00101018070470029B0F8441014BF23
:101A800041F40041C1F30E01A0F84410704710B5B5
:101A9000A0F18041B1F580314AD0B0F1804F5BD0E8
:101AA000A0F18041B1F580614CD0A0F18041B1F549
:101AB00000615BD0A0F18041B1F5406160D0A0F140
:101AC0008041B1F5805165D0A0F18041B1F5A051C0
:101AD0006AD0A0F18041B1F582316FD0A0F1804190
:101AE000B1F5A03174D0A0F18041B1F5A2317AD026
:101AF000A0F18041B1F5A4317DD0A0F18041B1F5D4
:101B0000C05179D0A0F18041B1F5E05175D0A0F17C
:101B10008041B1F5005118BF10BD01210802FFF747
:101B200051FCBDE8104000214FF48070FFF74ABC23
:101B300001210846FFF75EFC0021BDE810400120AE
:101B4000FFF758BC01210220FFF73CFC0021BDE853
:101B500010400220FFF736BC01210846FFF732FC97
:101B60000021BDE810400120FFF72CBC012104201A
:101B7000FFF728FC0021BDE810400420FFF722BC3D
:101B800001210820FFF71EFC0021BDE810400820BD
:101B9000FFF718BC01211020FFF714FC0021BDE85D
:101BA00010401020FFF70EBC01212020FFF70AFC97
:101BB0000021BDE810402020FFF704BC01210220D5
:101BC000FFF718FC0021BDE810400220FFF712BC0F
:101BD00001210804FFF70EFCBDE8104000214FF47E
:101BE0008030FFF707BC01214804FFF703FC002108
:101BF0004FF4003002E005E00FE018E0BDE81040CF
:101C0000FFF7F8BB01218804FFF7F4FBBDE81040A3
:101C100000214FF48020FFF7EDBB01214020FFF7AA
:101C2000D1FB0021BDE810404020FFF7CBBB0121D4
:101C30008020FFF7C7FB0021BDE810408020FFF7A0
:101C4000C1BB81827047038A002280890B4200EA6F
:101C500001001CBF0028012210467047002A82891B
:101C600014BF114322EA01018181704710B4028C34
:101C700022F001020284028C8388B0F818C00C881C
:101C80002CF0730C44EA0C0C8C8922F002022243E3
:101C90004C882243A0F18044B4F580341CBFA0F1ED
:101CA0008044B4F582340DD1CC8922F0080222435D
:101CB0008C8822F0040222430C8A23F440732343CD
:101CC0004C8A23438380A0F818C08968416302844A
:101CD00010BC7047028B22F0080211430183704749
:101CE00030B4028C22F010020284028C8388B0F897
:101CF00018C00D882CF4E6444FF6FF7C0CEA05254D
:101D00002C438D8922F020020CEA05152A434D88C8
:101D10000CEA05152A43A0F18045B5F580351CBFB6
:101D2000A0F18045B5F5823516D1CD8922F080022B
:101D30000CEA05152A438D8822F040020CEA0515AD
:101D40002A430D8A23F440630CEA85052B434D8A10
:101D50000CEA850C4CEA0303838004838968816361
:101D6000028430BC7047028B4FF6FF7322F400628E
:101D700003EA012111430183704730B4028C22F43D
:101D800080720284028C8388B0F81CC00C882CF00E
:101D9000730C44EA0C048D894FF6FF7C22F4007228
:101DA0000CEA05252A434D880CEA05252A43A0F1B3
:101DB0008045B5F580351CBFA0F18045B5F582356D
:101DC00016D1CD8922F400620CEA05252A438D88BC
:101DD00022F480620CEA05252A430D8A23F440533D
:101DE0000CEA05152B434D8A0CEA051C4CEA03034B
:101DF000838084838968C163028430BC7047828B8E
:101E000022F0080211438183704730B4028C22F41F
:101E100080520284038C8288B0F81CC00D884FF673
:101E2000FF742CF4E64C04EA052545EA0C0C8D8978
:101E300023F4005304EA05352B434D8804EA0535A5
:101E40002B43A0F18045B5F580351CBFA0F180453E
:101E5000B5F5823505D10D8A22F4804204EA851455
:101E600022438280A0F81CC089680164038430BCCE
:101E70007047828B4FF6FF7322F4006203EA012160
:101E8000114381837047028922F07002114301815E
:101E90007047028922F08002028102891143018188
:101EA000704710B44FF0010C048C00F118030CFAC9
:101EB00001FC24EA0C0CA0F820C0002918BF082956
:101EC00014D0A1F10400C0F34E001844016848F694
:101ED000FF7301EA0301016001684FF6FF7303EA33
:101EE000022241EA0201016010BC704703EB51007D
:101EF00001684FF68F7301EA03010160016841EA4E
:101F00000201016010BC7047828822F0700282805A
:101F10008288114381807047028922F00702028182
:101F2000028911430181704710B402881C4BDFF80D
:101F300074C0984218BF604511D0B0F1804F1CBFEB
:101F4000A0F18044B4F5806409D0A0F18044B4F5D8
:101F500000641CBFA0F18044B4F5406403D14C88F8
:101F600022F070022243A0F18044B4F580541CBFDB
:101F7000A0F18044B4F5A05403D00C8922F440723F
:101F8000224302804A68C2620A880285984212BFD0
:101F90006045897A01864FF00101818210BC70474B
:101FA0000000014000040140154D012602270424D1
:101FB000A5F102082E804FF4FA7000F087FE2F8002
:101FC0004FF4FA7000F082FE2C804FF4FA7000F0AB
:101FD0007DFEA8F800604FF4FA7000F077FEA8F8D4
:101FE00000704FF4FA7000F071FEA8F800404FF452
:101FF000FA7000F06BFEC82000F068FEDAE700001F
:102000001A0402400A2000F061FEFBE710B5FEF75B
:10201000F9FFFEF7D5F804461423094A00210948C0
:10202000FEF74CFD3723084A00210848FEF746FD1D
:102030003C20FEF707FF2046BDE81040FEF7C4B87D
:102040009415002005200008941D0020A91F0008F9
:1020500010EE100AC0F3C7517F391729A8BF704787
:10206000DFED140A002970EE200A0DDAF5EEC00A41
:10207000F1EE10FA1ADD0028A8BF002016DAB0F140
:10208000004F18BF0C4811E00C4ACA40104208BF6C
:102090007047F5EEC00AF1EE10FA07DD002804DA09
:1020A0004FF4000323FA01F10844904300EE100AB4
:1020B00070470000CAF24971000080BFFFFF7F0037
:1020C00010B52DED028BF0EE408A18EE900AB0EEBE
:1020D000608A20F00040C0F1FF40C00F07D118EE29
:1020E000100A20F00040C0F1FF40C00F2BD018EEC6
:1020F000101A18EE900AFEF7E0F800EE100A10EE43
:10210000100A6FEAD05010F0FF0F04BFBDEC028B35
:1021100010BD18EE900A00F0004110EE100A00F019
:102120000040814204BFBDEC028B10BD18EE101AB6
:1021300010EE100ABDEC028B61F31E0000EE900A57
:1021400030EE600A10BD18EE900A4FF07F41B1EBFF
:10215000400F1CBF18EE100A5FEA4000C7D10120F3
:1021600000F0E2F8BDEC028BBDE8104000F0C4B80E
:1021700010EE100A10B50023A0F50001B1F1FE4FDA
:1021800067D200BF00F500216FF07E0202EBE15C38
:10219000C1F302524FF07E5101EB025100EE901A52
:1021A000A0EBCC5003EB0C0100EE100A51EA020048
:1021B00036D030EE601A70EE200A9FED3D2A3E4880
:1021C00081EE200A9FED3B1A60EE000A00EE821AB3
:1021D00060EE201A61EE810A784401EE101A00EBDD
:1021E00082009FED362AB8EEC11AD0ED001A3448AD
:1021F00041EE021A784401EE101A00EB8200B8EEAC
:10220000C11A90ED002ADFED2F2A01EE222AB0EE4E
:10221000001A72EE200A40EE010A31EEA00A10BD4B
:10222000F7EE000A9FED291A30EE600ADFED260A6C
:1022300000EE201ADFED260A60EE001A40EE010AD9
:102240009FED241A00EE201A61EE810A30EE200A7A
:1022500010BD4FF07F41B1EB400F03D2BDE81040FD
:1022600000F046B8B0F1FF4F08BF10BDB5EEC00A90
:10227000F1EE10FA06D2012000F056F8BDE8104049
:1022800000F03AB8B5EEC00AF1EE10FA07D102201C
:1022900000F04AF800F022F8B1EE400A10BDDFED80
:1022A0000E0A6FF0160320EE200A10EE100A69E7FE
:1022B00066F1CC3EAAAA2A3FC03000000070313F30
:1022C000C4300000F4FD053821ED423E0A1180BE05
:1022D000C1ABAA3EFFFFFFBE0000004BDFED030ACB
:1022E000B7EE001A81EE200A7047000000000000DF
:1022F00030EE000A70470000DFED020A80EEA00A0F
:10230000704700000000000002E008C8121F08C16A
:10231000002AFAD170477047002001E001C1121F66
:10232000002AFBD170470000014908607047000097
:102330009001002010B504464FF4B471FDF79FFFE3
:10234000F1EE040AC4ED000AB9EE040A84ED010AB4
:10235000B2EE041A84ED021AFAEE041AC4ED031A5E
:102360009FED8E2A84ED042A9FED8D2A84ED052AA7
:102370009FED8C2A84ED062A9FED8B2A84ED072A97
:10238000DFED8A2AC4ED082ADFED892AC4ED092A87
:10239000DFED882AC4ED0A2A9FED873A012184EDFA
:1023A0000B3AB3EE073A84ED0C3AC4ED0D2A84F8EB
:1023B0003810DFED822AC4ED0F2A9FED813A84EDBB
:1023C000103AC4ED112A84ED123ADFED7E2AC4EDF5
:1023D000132ADFED7D2AC4ED142ADFED7C2AC4ED3B
:1023E000152ADFED7B2AC4ED162ADFED7A2AC4ED2B
:1023F000172AC4ED180A84ED190A84ED1A1AC4EDDF
:102400001B1AC4ED1C0A84ED1D0A9FED730A84EDAE
:102410001E0A84ED201A9FED710A84ED1F0A9FEDBC
:10242000700A84ED210A84ED222A9FED6E0A84ED64
:10243000230A9FED6D0A84ED240A9FED6C0A84ED5A
:10244000250A9FED6B0A84ED260A9FED6A0A84ED4A
:10245000270A9FED690A84ED280A84F8A8109FEDE9
:10246000670A84ED290AB1EE0C0A84ED2B0A9FED70
:10247000640A84ED310ADFED631AC4ED321A9FED70
:10248000620A84ED2C0A9FED610A84ED2D0A9FED0E
:10249000600A84ED2E0A9FED5F0A84ED2F0A9FEDFE
:1024A0005E0A84ED300A84ED331A9FED5C0A84EDF8
:1024B000340A9FED5B0A84ED350ADFED5A0AC4ED5C
:1024C000360AC4ED370A9FED580A84ED380A84EDC8
:1024D000390A9FED561A002084ED3A1A84F8EC0070
:1024E00084F8ED0084ED3C0A84F8F400B3EE091A98
:1024F00084ED3E1AC4ED3F0A9FED4D1A84ED401A5B
:1025000084ED411A9FED4B1A84ED421A9FED4A1A51
:1025100084ED431A84ED440A84F814119FED472A90
:1025200084ED462A84ED470A9FED450A84ED480A6A
:1025300084ED491AB7EE000A84ED4A0A9FED410A7C
:102540004FF4FA7184ED4B0A9FED3F0AC4ED4C0A3B
:1025500084ED4D0A9FED3D0A84ED4E0A9FED3C0A45
:10256000C4F83C1184ED500AB6EE000A84ED510A1D
:1025700084F8480110219FED370AC4E9530184ED26
:10258000550A9FED350AC4ED561A84ED570A9FEDA2
:10259000330A84ED580AC4F8640110BD00000243F8
:1025A0000050C3C70050C347CDCC4C3F00009643FA
:1025B0000080BB440000B4410000CC410000AA42AE
:1025C0000000C8429A99193E0AD7A33B3333733FA0
:1025D00000606A4600606AC60000164300808944B5
:1025E0000000784200409C470000164452491D3BC1
:1025F0006666264100409C460AD7A33D33B34A4352
:102600000000FA4400401C477E601E36C3642A3C2A
:10261000772E0C3B8C3E504D9A99993E00004843D2
:102620000000C843CDCCCC3D0000000000401C455C
:102630006F12833B17B7D138CDCC4C3E8FC2F53CDF
:1026400017B7D1390AD7233C99BB963B0AD7233D0C
:102650000AD7A33C00803B4500B8084700405345DB
:10266000F0B504462DED048B83B0B0EE409A90EDAA
:10267000040A01A902A802F029FC94ED020AFD4D0A
:10268000B0EEC00A8DED000A686CD0ED150A9FED22
:10269000FA0A684602F04AFD94ED050ADDED010AEA
:1026A000D4ED061A20EE201A9DED020A00EE211A42
:1026B00084ED0F1A94ED061A61EE200A94ED051AC6
:1026C00040EE410AC4ED100AD4ED110A94ED0F0A50
:1026D000686C70EEC00A94ED110A90ED3F1A01EE9D
:1026E000600A84ED110A94ED120AD4ED100A90EDFF
:1026F0003F1A70EE600A94ED120A01EE600A84ED52
:10270000120A94ED000AD4ED0F0A70EE608A94ED7F
:10271000010AD4ED100A30EE608A94ED150AD0ED6E
:10272000250A08EEA00A84ED130A94ED160AD0EDEE
:10273000250A08EE200A84ED140A01F085F9686C78
:10274000D0ED260A90F8F41071B110EE101ACB4AB1
:10275000914209D29FEDCA1AD0ED3E1A20EE811A9D
:1027600030EE610A41EE000A94ED151A20EE890A56
:1027700008EE801A84ED151AD4ED160A48EE000A08
:10278000C4ED160A94ED0A0ADDED000A20EE200AD7
:10279000DFEDBC8A9FEDBC9A9FEDBC8A04F150012D
:1027A000081F20EE080A02F093FCD4ED0A0A94ED0B
:1027B000130A04F1540060EEA80A80EE201A84ED9A
:1027C0000D1AD4ED0A0A94ED140A60EEA80A80EE00
:1027D000201A84ED0E1A94ED0A0ADDED000A20EEAF
:1027E000200A20EE080A02F0B7FC94ED0A0ADDED9B
:1027F000000A04F1580020EE200A20EE080A02F038
:10280000ABFC94ED0D0AD4ED0F0A94ED101A20EEF6
:10281000200AD4ED0E0A00EE810A84ED090A94ED37
:102820000F0AD4ED0F0A94ED101A20EE200AD4ED11
:10283000100A00EE810AF1EEC00AC4ED070A94ED19
:10284000110AD4ED110A94ED121A20EE200AD4EDEB
:10285000120A00EE810AF1EEC00AC4ED080A94EDF6
:102860000D0ADDED010A94ED0E1AD4ED012A20EED9
:10287000202A9DED020A00EE412A94ED0E1A61EE27
:10288000201A94ED0D1A40EE011A94ED001A21EE73
:10289000201A00EE621AD4ED012A62EEA02AD4EDCD
:1028A000000AB5EEC01A40EE202ABEEE000A21EE64
:1028B000000AF0EE400A02EEC90A42EE890AF1EE81
:1028C00010FA34BF4FF0FF30012001EE100AF5EE90
:1028D000C00AB8EEC11A21EE281AF1EE10FA34BF80
:1028E0004FF0FF30012002EE900AB8EEE23ADFED41
:1028F000682AB5EEC00A03EE621AF1EE10FA34BF90
:102900004FF0FF30012003EE100AF5EEC00AB8EEDA
:10291000C33A03EE621AF1EE10FA34BF4FF0FF3003
:10292000012000EE900AB5EEC00AF8EEE00A60EE73
:10293000880AF1EE10FA34BF4FF0FF30012000EEAC
:10294000100A686CB8EEC00AD0ED272A40EE480A9B
:1029500090ED280A20EE220ADFED4E2A4E4E20EEA0
:10296000220A21EE001A20EE800AD4ED0A0A32EE85
:10297000411A31EEC00A21EE281A20EE280A60EE34
:10298000810AC4ED0B0AD4ED0A0A20EE800A84ED18
:102990000C0AF06AF1EE420AB1EE610A9FED3F1AAD
:1029A000B5EEC00AF1EE10FA1CDBF5EEC00AF1EE4E
:1029B00010FA0ADB20EE081AF4EEC10AF1EE10FA62
:1029C00028BF4FF0010C29D209E020EE011AF4EEE5
:1029D000C10AF1EE10FA38BF4FF0030C1ED34FF0CE
:1029E000020C1BE0F5EEC00AF1EE10FA0ADB20EE55
:1029F000011AF4EEC10AF1EE10FA28BF4FF0060CEE
:102A00000CD209E020EE081AF4EEC10AF1EE10FA39
:102A100038BF4FF0040C01D34FF0050C9FED201A86
:102A2000DFED201ABCF1070F5DD2DFE80CF0D60411
:102A30003D5D7B99B90001EE900A40EE480AF8EE40
:102A4000611A60EEA10AFCEEE00A10EE902A60EE38
:102A5000010A00EE100A801AB8EE400A20EE800A41
:102A6000BCEEC00A10EE101A401A43081A44114472
:102A7000B3E0000078000020000000000000A0C0CB
:102A80000EF87C3BABAA2A3FD7B35D3F3ACD133F4C
:102A9000ABAAAA3EBD378635000001403ACD13BF30
:102AA0003ACD933F3ACD93BFF0EE601A01EE100A93
:102AB00040EE081A50EE080A00EE100AB8EE411A6D
:102AC000B8EE400A21EE811A20EE800ABCEEC11A4F
:102AD000BCEEC00A11EE101A10EE103A401AC01ADD
:102AE00042081344194478E060EE011A01EE100A1E
:102AF00050EE480A00EE100AB8EE411AB8EE400A4D
:102B000021EE811A20EE800ABCEEC11ABCEEC00A8A
:102B100011EE101A10EE103A401AC01A4208114471
:102B20000B445AE001EE100A50EE080AB8EE411AC2
:102B300060EE810AFCEEE00A10EE903A60EE210AA7
:102B400000EE100AC01AB8EE400A20EE800ABCEE71
:102B5000C00A10EE102A801A41080A4413443CE0CF
:102B6000F1EE601A01EE100A40EE481A40EE480AF3
:102B700000EE100AB8EE411AB8EE400A21EE811AB2
:102B800020EE800ABCEEC11ABCEEC00A11EE103A6B
:102B900010EE102AC01A801A41080B441A441CE097
:102BA00060EE211A01EE100A40EE080A00EE100A4B
:102BB000B8EE411AB8EE400A21EE811A20EE800AE2
:102BC000BCEEC11ABCEEC00A11EE102A10EE101AAB
:102BD000801A401A430819440A44C4F85CC030887B
:102BE000344640F0020030807363B263F163308892
:102BF00020F002003080287900281EBF03B0BDEC11
:102C0000048BF0BD602200213046FFF74AF9012213
:102C100000212046FEF70AFF042200212046FEF78D
:102C200012FF602204212046FFF73BF90122042114
:102C30002046FEF7FBFE042211462046FEF703FF66
:102C4000602208212046FFF72CF9012208212046A6
:102C5000FEF7ECFE042208212046FEF7F4FE0120D8
:102C6000287103B0BDEC048BF0BD00001549DFED09
:102C7000141A9FED152A486C21EE211A0A78D0ED1E
:102C80003A1AB0EEC11A61EE821A90ED3A2A62B198
:102C900072EE211AF4EEC11AF1EE10FA3EBF0020D6
:102CA00008707047B0EE600A704772EE611AF4EE79
:102CB000C11AF1EE10FAC4BF01200870F2DC7047AF
:102CC000EBC9184178000020CDCC4C3D00EE100A35
:102CD000F2EE040AB8EE400A20EE200ABCEEC00A6A
:102CE00010EE100AFEF7FCB870B5002082B0032485
:102CF000CDE90040214E034602464FF400613046C4
:102D0000FDF71CFD012500232A46A9023046CDE926
:102D10000045FDF713FD0122002351023046CDE9A5
:102D20000045FDF70BFD0122002311033046CDE9DC
:102D30000045FDF703FD6420FFF7C8FF4FF48661EF
:102D4000022000F079F84FF48661022000F074F858
:102D5000022000F023F800F03F0040F04001022084
:102D600000F06AF8022000F019F802B040F0040107
:102D7000BDE87040022000F05FB80000000802408B
:102D800010B5002000F00AF80446012000F006F813
:102D9000C0F3C01044EA001010BD000070B54FF43D
:102DA000004100F00F0241EAC22148F27F02104DBB
:102DB00041EA020450B169152846FDF7BDFC2046E2
:102DC00001F056FF69152846FDF708FD4FF4007124
:102DD0002846FDF7B1FC4FF6FF7001F049FF0446AD
:102DE0004FF400712846FDF7F9FC204670BD000045
:102DF0000008024010B504460220FFF7CFFF04F0A0
:102E00001F0100F03F0040EA8111BDE810400220A0
:102E100000F012B810B504460220FFF7BFFF4FF6CE
:102E2000CF71084004F0030140EA0111BDE81040F1
:102E3000022000F001B8000070B5002200F00F0081
:102E400042EAC020C1F30A0141EA0004074D4FF4F1
:102E500000712846FDF770FC204601F009FF691556
:102E60002846BDE87040FDF7B9BC000000080240EC
:102E7000014800787047000000000020F0B50024F1
:102E800085B003251F4FCDE90054234622468021FB
:102E90003846FDF753FC0126CDE9005600233246A3
:102EA00040213846FDF74AFCCDE9005601220023B7
:102EB00011023846FDF742FC01210220FEF776FAA6
:102EC000ADF80840ADF81040ADF80A408DF812405A
:102ED00041F267000C4C039002A92046FFF724F84A
:102EE000012211462046FEF7B9FE01212046FEF7D9
:102EF000BAFD06211D2001F0B1FD0448067005B0A1
:102F0000F0BD000000080240000400400000002066
:102F1000014890ED010A7047000000202DE9F04FB4
:102F2000324F83B04FF480713846FDF705FC0DF148
:102F300008094FF0010A00264FF6FF7800242546C5
:102F400000BF00BF00BF00BF40213846FDF746FC70
:102F500000BF00BF00BF00BF80213846FDF7E5FB82
:102F6000019000BF80213846FDF7DFFB009000BFD5
:102F700080213846FDF7D9FB0246DDE9001008EA5A
:102F8000440402F04EF8002818BF44F00104402128
:102F90003846FDF7D1FB00BF00BF00BF00BF6D1C6E
:102FA000102DCDDBB9F1000F18BF29F81640761CA3
:102FB0005645C3DB4FF480713846FDF70FFCBDF872
:102FC0000800DFED0B0AC0F30D0000EE100A0A48FE
:102FD000B8EE400A20EE200ADFED060A20EE200AB5
:102FE00080ED010A03B0BDE8F08F00000008024048
:102FF0000000B44300008038000000202DE9F041BB
:10300000012182B00846FEF7C5F901210220FEF732
:10301000C1F901210420FEF7BDF901210820FEF7C6
:10302000B9F900246A4F009423460122072138464B
:103030000194FDF783FB01260325CDE9005600230B
:10304000324620213846FDF779FB20213846FDF72E
:10305000C5FBDFF88081CDE9005402220023D101B5
:103060004046FDF76BFB012208214046FDF74AFB75
:10307000CDE900540222002311024046FDF75EFB19
:10308000012209214046FDF73DFBCDE90054022213
:10309000002351024046FDF751FB01220A21404620
:1030A000FDF730FBCDE9005402220023110338461E
:1030B000FDF744FB01220D213846FDF723FBCDE946
:1030C00000540222002351033846FDF737FB01224A
:1030D0000E213846FDF716FBCDE9005402220023ED
:1030E00091033846FDF72AFB01220F213846FDF7F0
:1030F00009FB002300961A46802138460196FDF709
:103100001DFBCDE900540023032201214046FDF7B9
:1031100015FBCDE900540023032202214046FDF7B0
:103120000DFBCDE900540023032204214046FDF7A6
:1031300005FBCDE900540023032208214046FDF79A
:10314000FDFACDE900540023032220214046FDF77B
:10315000F5FACDE900540023032240214046FDF753
:10316000EDFA1D4ECDE90054002303220121304623
:10317000FDF7E4FACDE90054002303220221304692
:10318000FDF7DCFACDE90054002303220421304688
:10319000FDF7D4FACDE9005400230322082130467C
:1031A000FDF7CCFACDE9005400230322102130466C
:1031B000FDF7C4FACDE90054002303222021304654
:1031C000FDF7BCFA02B0BDE8F041FFF78DBD00008D
:1031D00000040240000002400008024070B54A4C62
:1031E00001231A4600212046FDF77AF90123022225
:1031F0000A212046FDF774F9012303220521204608
:10320000FDF76EF9012304220E212046FDF768F92F
:103210000123052211212046FDF762F901233B4DD0
:103220001A4619462846FDF75BF9012302220B21B5
:103230002846FDF755F90123032206212846FDF70C
:103240004FF9012304220F212846FDF749F90123F4
:10325000052200212846FDF743F92D4E01231A4689
:1032600002213046FDF73CF9012302220C213046B1
:10327000FDF736F90322012311463046FDF730F9F8
:10328000012304220D213046FDF72AF901230522EE
:1032900019463046FDF724F901231A460A21204633
:1032A000FDF7E2F801231A460B212846FDF7DCF86A
:1032B00001231A460C213046FDF7D6F801230222DD
:1032C0000A212046FDF7D0F8012302220B212846CF
:1032D000FDF7CAF8012302220C213046FDF7C4F89D
:1032E000012303220A212046FDF7BEF80123032211
:1032F0000B212846FDF7B8F83046BDE870400123A1
:1033000003220C21FDF7B0B800200140002101404C
:103310000022014010B500EE100AFEF729FF10EE62
:10332000100A10BD00B5DBB0FEF7DAF8FFF766FE55
:103330006846FEF7FFFF684600F002F9FDF756FA0F
:103340003C23054A00210548FDF7B8FBFDF794FB37
:103350005BB0002000BD0000940500200D20000897
:103360002DE9F04F684D04462DED088B85B0A86817
:10337000DFF898B1A04201BFDBF83C01286105B03D
:10338000BDEC088B08BFBDE8F08F00F001FE0028FF
:103390007ED0A86800287BD1FDF73AFB5C48006826
:1033A00000905C48016C0191C06A0290FDF746FBF9
:1033B00000F08CFBF0EE408A00F09EFB5648B0EE29
:1033C000409AC08A00EE100AB8EE400ADFED530AB8
:1033D00020EE200ADFED520A60EE20AA00F046FB44
:1033E0009BF84801F0EE400A002814BFBFEE000A27
:1033F000B7EE000A60EE209A00F04AFB9BF8480105
:10340000F0EE400A002814BFBFEE000AB7EE000A33
:1034100020EE20AA002000F04DFB9BF84811002967
:1034200014BFBFEE000AB7EE000A00EE900A6F6903
:10343000F8EEE00A20EE200ABDEEC08A3648DDE94B
:103440000089008ADDF808A0002600EE100A9FED32
:10345000351AB8EE400AC1EE000A9FED330A30EE8D
:10346000C00ADFED320A20EE200A10EE100AFCF747
:1034700011FF41EC100BFFF74DFF00EE100A9FED1E
:103480002C1AF8EEC00A9FED2B0A00EE810A00E02C
:103490002EE0B7EE001A032CC1EE000A9FED260ABB
:1034A00030EEC0BA02D1FFF76BFC0390E968234A03
:1034B000C1EBC100491C02EBC000E9600460C0ED33
:1034C000018A80ED029AC0ED03AAC0ED049A80ED56
:1034D00005AA80ED068AC761039AC0E90AA6C0E979
:1034E000088980ED0CBA4263E8681928A8BFEE602D
:1034F000DBF83C01286100F051FDAC6005B0BDEC8B
:10350000088BBDE8F08F000008000020B81D0020E7
:103510003404014000000140981D00206740533AE8
:1035200074D195413C361C4C00401C4617B7D1382D
:10353000631D9B390FCF5B3B33938843201F0020D3
:1035400010B5044690ED000AD64880ED000A94EDCF
:10355000010A80ED010A94ED020A80ED020A94ED61
:10356000030A80ED030A94ED040A80ED040A94ED49
:10357000050A80ED050A94ED060A80ED060A94ED31
:10358000070A80ED070A94ED080A80ED080A94ED19
:10359000090A80ED090A94ED0A0A80ED0A0A94ED01
:1035A0000B0A80ED0B0A94ED0C0A80ED0C0A94EDE9
:1035B0000D0A80ED0D0A94F8381080F8381094ED5B
:1035C0000F0A80ED0F0A94ED100A80ED100A94EDB9
:1035D000110A80ED110A94ED120A80ED120A94EDA1
:1035E000130A80ED130A94ED140A80ED140A94ED89
:1035F000150A80ED150A94ED160A80ED160A94ED71
:10360000170A80ED170A94ED180A80ED180A94ED58
:10361000190A80ED190A94ED1A0A80ED1A0A94ED40
:103620001B0A80ED1B0A94ED1C0A80ED1C0A94ED28
:103630001D0A80ED1D0A94ED1E0A80ED1E0A94ED10
:103640001F0A80ED1F0A94ED200A80ED200A94EDF8
:10365000210A80ED210A94ED220A80ED220A94EDE0
:10366000230A80ED230A94ED240A80ED240A94EDC8
:10367000250A80ED250A94ED260A80ED260A94EDB0
:10368000270A80ED270A94ED280A80ED280A94ED98
:10369000290A80ED290A94F8A81080F8A81094ED62
:1036A0002B0A80ED2B0A94ED2C0A80ED2C0A94ED68
:1036B0002D0A80ED2D0A94ED2E0A80ED2E0A94ED50
:1036C0002F0A80ED2F0A94ED300A80ED300A94ED38
:1036D000310A80ED310A94ED320A80ED320A94ED20
:1036E000330A80ED330A94ED340A80ED340A94ED08
:1036F000350A80ED350A94ED360A80ED360A94EDF0
:10370000370A80ED370A94ED380A80ED380A94EDD7
:10371000390A80ED390A94ED3A0A80ED3A0A94F8B4
:10372000EC1080F8EC1094F8ED1080F8ED1094EDAA
:103730003C0A80ED3C0A94F8F41080F8F41094ED03
:103740003E0A80ED3E0A94ED3F0A80ED3F0A94ED7B
:10375000400A80ED400A94ED410A80ED410A94ED63
:10376000420A80ED420A94ED430A80ED430A94ED4B
:10377000440A80ED440A94F8141180F8141194ED71
:10378000460A80ED460A94ED470A80ED470A94ED1B
:10379000480A80ED480A94ED490A80ED490A94ED03
:1037A0004A0A80ED4A0A94ED4B0A80ED4B0A94EDEB
:1037B0004C0A80ED4C0A94ED4D0A80ED4D0A94EDD3
:1037C0004E0A80ED4E0AD4F83C11C0F83C1194ED3D
:1037D000500A80ED500A94ED510A80ED510A94F898
:1037E000481180F84811D4F84C11C0F84C11D4F8A5
:1037F0005011C0F8501194ED550A80ED550A94ED22
:10380000560A80ED560A94ED570A80ED570A94ED5A
:10381000580A80ED580AD4F86411C0F8641122489F
:1038200000218160C16001614161017041709FEDC3
:103830001F0A4FF47A7280ED060A80ED070A80EDC8
:10384000080A80ED090A80ED0A0A80ED0B0A80ED76
:103850000C0A80ED0D0A80ED0E0A80ED0F0A80ED56
:10386000100A80ED110A80ED120A80ED1B0A80ED2E
:10387000130A80ED140A4265012282654166816661
:10388000C1650166D4F84C01FFF7C4FAD4F85001C1
:10389000FFF7B0FAFFF7F2FABDE81040014800F078
:1038A00047B90000B81D00200800002000000000FB
:1038B00070B55F482DED028BC08A00EE100AB8EE9D
:1038C000400ADFED5C0A20EE200ADFED5B0A5B4D6B
:1038D000002620EE200AD5ED0A0A594CF4EEC00A63
:1038E000F1EE10FA08DCD5ED0B0AF4EEC00AF1EEA9
:1038F00010FA28BF66600FD26068401C606008281C
:103900000ADBD5ED0A0AB4EEE00AF1EE10FA34BF94
:1039100002200120FFF724FD00F0C6F8022818BF9E
:1039200066615CD000F0E8F8B0EE408A00F0FAF88A
:10393000F0EE400A94ED060A30EE080AB7EE008A6F
:1039400084ED060A94ED070A30EE200A84ED070A9A
:1039500094ED080A30EE080A84ED080A94ED090A8D
:1039600030EE080A84ED090A00F086F8D4ED0A0A60
:1039700030EE200A84ED0A0A00F084F8D4ED0B0A38
:1039800030EE200A84ED0B0A94ED0C0A30EE080AA2
:1039900084ED0C0A94ED0D0A30EE080A84ED0D0A50
:1039A00000F094F800F056F810EE104A00F058F8C5
:1039B00095F83800B8B110EE100AFCF76BFC41EC3A
:1039C000100B20F0004000EE100AD5ED040AB8EE0E
:1039D000C00AB4EEE00AF1EE10FA19DD15E06069F4
:1039E000401C60619EE72046FCF754FC41EC100B44
:1039F00020F0004000EE100AD5ED040AB8EEC00A2F
:103A0000B4EEE00AF1EE10FA02DD0420FFF7A8FCA4
:103A100080210C48FCF789FE00281CBFBDEC028BFE
:103A200070BD0320BDEC028BBDE87040FFF798BC71
:103A3000981D00206740533A74D19541B81D00206D
:103A40000800002000040240014890ED140A70476D
:103A500008000020014890ED070A7047A4240020C8
:103A6000014890ED080A7047A4240020014890ED19
:103A7000030A7047A4240020014890ED0F0A704704
:103A8000A4240020014890ED100A7047A4240020CF
:103A90000348DFED040A90ED290A20EE200A704762
:103AA00078000020EBC918410148806C7047000085
:103AB0007800002004490200D1F8A8001CBF0022B1
:103AC000C1F8A8207047000078000020094991ED56
:103AD000140AB5EEC00AF1EE10FA34BF4FF0FF3011
:103AE000012000EE100AD1ED100AB8EEC00A20EE57
:103AF000200A7047A4240020094991ED140AB5EE6C
:103B0000C00AF1EE10FA34BF4FF0FF30012000EE92
:103B1000100AD1ED120AB8EEC00A20EE200A704752
:103B2000A4240020014890ED090A7047A424002035
:103B30002DE9F04FA7B00646FCF76AFFFE4D0024C2
:103B40006C706E64AC640720E8642C656C65AC65D1
:103B5000EC65AC70EC709FEDF90A85ED1B0A85ED04
:103B60001C0A85ED1D0A85ED1E0A85ED1F0A2C71C4
:103B700085ED200A85ED210A85ED220A85ED230ACF
:103B80006C7185ED240A85ED250A85ED260A85ED03
:103B9000270A85ED280A85ED290AC5F8A840C5F849
:103BA000AC4085ED2C0A85ED2D0A85ED2E0A6021AD
:103BB000E348FCF764FBE248046644668466C46636
:103BC0000467DFF880834046FDF761FFDE48FDF7BC
:103BD0005EFFC8F82440DD48046001210846FDF777
:103BE000FDFBADF86C402020ADF86E00686CD84944
:103BF00090ED270AADF874408DF87640BDEEC00A0E
:103C000010EE100A91FBF0F01C901BA94046FEF745
:103C10008BF901264FF06009ADF800900420ADF853
:103C20000260ADF80400D8F82C003702400802907A
:103C3000ADF80C40ADF810704FF4007AADF80E40BE
:103C4000ADF812A069464046FEF710F869464046B6
:103C5000FEF746F869464046FEF78FF8694640464B
:103C6000FEF7D3F808214046FEF734F80821404615
:103C7000FEF779F808214046FEF7C1F808214046D2
:103C8000FEF7F7F8F002ADF878004010ADF87A00D2
:103C9000ADF87C403C20ADF87E00ADF880404FF49C
:103CA000005BADF882B0ADF884401EA94046FDF738
:103CB000A2FE01214046FDF7B0FE01214046FDF77E
:103CC00091FE0121A348FDF765FB01214FF4E0605F
:103CD000FDF784FB03213C2000F0C0FE9E480790C6
:103CE0009E4805A9CDE905400F20CDE90840B00266
:103CF000CDE90A404000CDE90C0B0E978001CDE9DB
:103D00000F04DFF85CB21194129458461394FCF738
:103D1000BDFC01215846FCF767FC012210215846E2
:103D2000FCF79CFC1620CDE92204B003CDE9240465
:103D300022A8FCF75BFB7007CDE91640CDE91446DD
:103D40004FF05060CDE9180405208DF8680014A9E3
:103D50008448FCF761FBDFF810B2179414A95846A9
:103D60001894FCF759FB14A98048FCF755FB012077
:103D7000FCF7FEFB0120FCF7A5FBFFF72FFA012162
:103D80007848FCF729FB01215846FCF725FB012167
:103D90007648FCF721FB01210220FDF71FFBADF85F
:103DA0006C40ADF86E40686C694990ED270AADF83B
:103DB00074408DF87640BDEEC00A10EE100A91FBFB
:103DC000F0F01C901BA96048FEF7AEF84FF4FA70B3
:103DD000ADF800900290ADF80C40ADF81070ADF861
:103DE0000260ADF80E40ADF812A069465648FDF7E6
:103DF0003DFF08215448FDF76DFF69465248FDF725
:103E00006FFF08215048FDF7AEFF69464E48FDF7A9
:103E1000B4FF08214C48FDF7F2FF01214A48FDF7A5
:103E2000E1FD01214848FDF7F8FD01214648FDF775
:103E300023FE20214046FEF767F880214046FEF72A
:103E400028F800214048FEF71EF804213E48FEF7FE
:103E500063F801214046FDF706FE01213A48FDF7CF
:103E600002FE01214046FDF707FE00F06DFF4049CC
:103E700002200860014601223348FDF7EFFE0621CB
:103E80002E2000F0EBFDFCF7D9FD3A4D202128460D
:103E9000FCF7A4FC80212846FCF747FC002804BF5F
:103EA00041F28835334F0BD10120FEF70FFF641C20
:103EB000AC4205DC80213846FCF737FC0028F3D003
:103EC0004FF47A70FEF702FF1B4C002525656565EF
:103ED000A565E565E06DB0F57A6FFBDB206DE16D02
:103EE00090FBF1F02066606DE16D90FBF1F0606693
:103EF000A06DE16D90FBF1F0A066A6700121082095
:103F0000FDF754FA42F6DF601C900620ADF86C0015
:103F1000ADF87450ADF86E50174D1BA92846FEF74A
:103F200003F816490A8842F001020A80072132206C
:103F300000F094FD012123E0780000200000000043
:103F4000A42400200000014000040140240401409A
:103F5000007A030A05004000981D00200823014054
:103F60007064024000200140002101400022014015
:103F70003404014000040240000C00400C0C0040DE
:103F80002846FDF770FD667027B0BDE8F08F000091
:103F90000148807870470000780000200D489FEDB0
:103FA0000C0A416CD1ED4C0AF4EEC00AF1EE10FAA5
:103FB00005DD0721C1640021816400F0C5BE022136
:103FC000C16480ED1E0A826C022A18BF81647047AA
:103FD00000000000780000202DE9F04300202DEDC6
:103FE0000C8B87B0FE4E3060DFF8F893B9F8000014
:103FF000012121EA1012FC48017BFC4D0029686C6C
:1040000004BF90F8EC10002906D1002A1EBF07B0AB
:10401000BDEC0C8BBDE8F083DFF8D483B8F8061054
:10402000B8F80830B8F80AC02C6D0C442C656C6DDB
:104030001C446C65AC6D6444AC652C6E0C1B696EE5
:104040005F1AA96EACEB0103E96D491CE965E9490A
:104050000C604F608B6090F8ED30002B44D00A6804
:1040600000EE102A4A68B8EEC00AB0EEC01A00EEA0
:10407000102A8A68B8EEC00AF0EEC00A00EE102AD4
:10408000B4EEE01AB8EEC00AB0EEC00AF1EE10FAD3
:10409000C4BFB4EEC01AF1EE10FA05DD4A688B68B1
:1040A0001A4452420A606AE0F4EEC10AF1EE10FAD4
:1040B000C4BFF4EEC00AF1EE10FA05DD0A688B68A1
:1040C0001A4452424A605AE0B4EEC10AF1EE10FAC4
:1040D000C4BFB4EEE00AF1EE10FA50DD0A684B6896
:1040E0001A4452428A604AE090F8EC30002B18BF24
:1040F000002AD9F83420D9F8383020D09A4205D295
:10410000D9F83420D9F83C309A42C7D3D9F83820AE
:10411000D9F834309A4205D2D9F83820D9F83C3051
:104120009A42CBD3D9F83C20D9F834309A4226D2DF
:10413000D9F83C20D9F838309A4220D2CEE79A42BA
:1041400005D9D9F83420D9F83C309A42A6D8D9F804
:104150003820D9F834309A4205D9D9F83820D9F81E
:104160003C309A42AAD8D9F83C20D9F834309A4247
:1041700005D9D9F83C20D9F838309A42AED80A6827
:1041800000EE102AF8EEC00A9FED9B0A496860EE27
:10419000808A00EE901A90F8EC10F8EEE00A60EEDB
:1041A00080BA90ED270AF7EE00AA002904BFF6EEC8
:1041B000000A20EE200A8AEE809A904CB8F8160089
:1041C00094ED0A0A00EE900AF8EE600ADFED8CCA60
:1041D00060EEAC0A9FED8BCA00EECC0AD4ED0A0A61
:1041E0009FED89DA40EE4D0AC4ED0A0ADFED879AA9
:1041F000FEF78EFEB0EE40AA8DED01AA686C90F835
:10420000A81039B1B0EE4A0ADFED810A30EEC00ADB
:104210008DED010A90ED2B0ADDED010A2F4620EE0F
:10422000200AD0ED290A01A830EE600A8DED010ABE
:1042300000F00CFF9DED010ADFED760A20EE200A6A
:1042400087ED240A94ED040AD7ED040A00F0DAFDA4
:10425000B0EE408A94ED040A87ED040AB86CDFEDF5
:104260006E1A9FED6EBA02287ED0B8F8000000EEFC
:10427000900AFBEECA0A9FED6A0AB8F8020060EEE7
:10428000800A20EE8C1A00EE900AB8F80400FBEECB
:10429000CA0A60EE800A60EE8C0A02EE100ABBEEDB
:1042A000CA2A22EE000A20EE0C0A9FED5E8A21EE59
:1042B000081A9FED5D2A694602A800EEC21A60EE58
:1042C000A10A40EE610A00EE421A84ED0B1AC4ED19
:1042D0000C0A94ED040A00F0F9FDD4ED0B0A9DEDF3
:1042E000000AD4ED0C1A20EE801ADDED020A00EE71
:1042F000A11AD4ED0C1A61EE801A94ED0B0A40EE6F
:10430000C01A94ED130AD4ED130AB4EE600AF1EE6C
:1043100010FA0CBF94ED130AB0EE690A84ED130A8B
:1043200094ED140AD4ED140AB4EE600AF1EE10FA1A
:1043300014BFB0EE690A94ED140A84ED140A94EDEA
:10434000130AD4ED130A30EE411A9FED380A41EEFC
:10435000400AC4ED130A94ED141AD4ED140A31EE98
:10436000611A41EE400A00E077E0C4ED140A94EDD2
:10437000130A2F4A84ED150A94ED140A84ED160AE7
:10438000D4ED0A0A94ED130A60EE880A80EE201A32
:1043900084ED0D1AD4ED0A0A94ED140A60EE880A31
:1043A00080EE201A84ED0E1AC4ED059AC4ED069A2B
:1043B000C4ED0F9AC4ED109AC4ED119AC4ED129A8F
:1043C000C4ED099AC4ED079AC4ED089AD4ED061A13
:1043D00094ED051AD4ED0C0A94ED0B0A2AE00000C6
:1043E000241800400000014004250020780000202F
:1043F000981D002098240020500AA53DA4240020E8
:104400006740533A74D19541CDCCCC3D00000000BB
:104410000000B44335FA8E3C3ACD133F3ACD933F7A
:1044200033335340ABAA2A3FABAAAA3ECDCC4C3E75
:104430000001002002F11401081FB0EE492A00F02B
:104440001FFB97ED291AD7ED240A97ED220AFEF7F4
:104450000DFC84ED040A00F077B928EEA10AC4ED42
:10446000058A0BEE8B0A84ED060A94ED030AF0EE42
:10447000C0BA97ED1D0A8DED020A97ED1E0A8DED6B
:10448000000A786C90ED150A84ED020AD4ED030A57
:1044900097ED060A70EE600A00EECD0AF7EE000A0C
:1044A00087ED060ABFEE000AFE4800F03FFED7ED9A
:1044B0001C8AF86C002814BF00200120F96C032925
:1044C0000BD197ED060AF84AB0EEC00A10EE101AAA
:1044D0009142BCBF0120F0EE698AF96C01290ED12E
:1044E000796C97ED210AD1ED440AB0EEC00AB4EE22
:1044F000E00AF1EE10FA38BFF0EE698A00D3E0B3BB
:10450000B0EEE80ADFEDE90A7BEEE00AB4EEE00A7D
:10451000F1EE10FA19D394ED140AB5EEC00AF1EEDB
:1045200010FA34BF4FF0FF30012000EE100AD4ED36
:10453000100A786CB8EEC00A20EE200AD0ED190AF5
:10454000B4EEE00AF1EE10FA42D2B8F8160000EE2E
:10455000100A786CB8EE400A90ED331A20EE2C0A5F
:1045600060EE0C0A8AEEA00AD4ED030A78EEE00AA7
:1045700060EE801A21EE218A00E037E090ED341AD7
:10458000CB4861EE200A29EE001A97ED070A00EEEB
:10459000810AF7EE000A87ED070ABFEE000A00F075
:1045A000C5FD97ED070AF7EE000A05A838EE000AE8
:1045B0008DED050ABFEE000A00F0B8FD786CDDED68
:1045C000050A90ED180A20EE200A8DED000A25E07C
:1045D000F5EEC08AC7ED079AC4ED028AF1EE10FA33
:1045E00090ED180AD8BFB1EE400AEEE7F86C032848
:1045F00014D19DED000AB5EEC08AB0EEC00AF1EE0E
:1046000010FA8DED000AC8BFB1EE400ADDDCB5EE50
:10461000C08AF1EE10FA08BFCDED009AF87878B9AB
:10462000A44AD4ED061A02F1140194ED051AD4ED52
:104630000C0A94ED0B0A081FB0EE492A00F020FA8C
:1046400097ED291AD7ED240A97ED220AFEF70EFB03
:1046500084ED040AF878002808BFCDED029AF86CC2
:10466000052808BFC4ED049A11D0F86C06280ED1B5
:1046700097ED080AD7ED1F0A8F4809EE200A87ED4B
:10468000080A00F0FFFC97ED080A84ED040AF878A8
:1046900000281CBF97ED1B0A84ED040A94ED0E8AD6
:1046A000864918EE100A88420CDD786C90ED1A0AE3
:1046B00090ED1B1A6846C0EE080A81EE080A00F069
:1046C00035FD10E018EE100A7D4988420BD9786C50
:1046D00090ED1B0A90ED1A1A6846C0EE080A81EEAA
:1046E000080A00F023FDB5EEC08A786CF1EE10FAEE
:1046F00007DDD0ED180A90ED190A684600F016FDA6
:104700000AE090ED190AF1EE400A90ED180A6846A9
:10471000B1EE400A00F00AFD786CD0ED190A90ED78
:10472000180A00F072FC694602A800F0D1FC9DED69
:10473000020A644884ED000A9DED000A84ED010A36
:10474000B0EE490AFDF78CFF94ED0D0AD4ED0D0A89
:1047500094ED0E1A20EE200AD4ED0E0A00EE810A26
:10476000F1EEC00A94ED140AB5EEC00AF1EE10FAAB
:1047700034BF4FF0FF30012000EE100A524DB8EE6A
:10478000C00A20EE800A20EE0B0A84ED030A95EDA4
:10479000000A95ED001AD4ED040AB4EE410AF1EED8
:1047A00010FA14BFB0EE690A95ED000A85ED000A13
:1047B00095ED000A684630EEC00A8DED000A00F063
:1047C00061FCDFF8088198ED000AD8ED000AB4EE2C
:1047D000600AF1EE10FA14BFB0EE690A98ED000A13
:1047E00088ED000A786C98ED000A9DED001AD0ED76
:1047F000310A284600EE810AD5ED000AB0EE491ACA
:1048000040EE010AC5ED000A00F03CFCDDED001AA7
:10481000786CF0EE490A98ED000A61EEA00A90ED7E
:10482000321A03A801EE200A88ED000A94ED040A6A
:104830008DED030A00F026FC9DED030ADFED240A4E
:1048400030EE200ADFED230A20EE200AF1EE080AFE
:1048500020EE200AFDF7FCFBBDEEC00A0522002178
:104860008DED040A04A800F08BFC04997869796145
:10487000081A0328C8BF801F03DC10F1020FB8BF5D
:10488000801DD7F8A8100144C7F8A8100028D8BF89
:104890004042D7F8AC100844C7F8AC00786C90EDF3
:1048A0004A0A19E0900000208FC2F53CCDCC4C3D67
:1048B0009400002000010020980000206F12833A2D
:1048C0006F1283BAA4240020180100201C010020CC
:1048D000DB0F494083F9223E10EE101A594A9142EB
:1048E00009DD90ED4A0A584910EE100A8142C8BF0E
:1048F00087ED2DAA15DCD7ED090AB0EE4A0A00F0C3
:104900005FFA87ED09AA786C90ED4A1A4F48C0EE1D
:10491000010A97ED2D0A30EE800A87ED2D0A00F08E
:1049200095FBB86C022811D0FEF7C2FF306800EE8C
:10493000100AB8EE400ADFED460A20EE200A87EDA5
:104940002C0A07B0BDEC0C8BBDE8F083D7ED2D0A27
:1049500097ED200AF86C04281CBFC7ED0D9AC7ED2F
:104960000E9AE1D100F02CFA786CB0EE408A90F803
:10497000A810002918BFB1EE488A90ED460A28EE2B
:10498000091A20EE080A8DED000AD0ED470A97EDCE
:104990000D0A00EE810A87ED0D0A97ED0F0A30EE41
:1049A000090A87ED0F0AD7ED0E0AB4EE608AF1EE20
:1049B00010FA08BFF0EE698A09D0D0ED481AC7EDA9
:1049C0000F9A81EE801A38EE600A61EE008A97ED48
:1049D000109A90ED490A684679EE680A00EE609AEE
:1049E000B7EE000A87ED109A00F0B6FB9DED000AC5
:1049F0001848B0EEC00A3AEEC00A00F0ADFB87EDF1
:104A00000E8A9DED000AD7ED0D0A02A830EE200AAD
:104A1000F7EE000A30EE090A8DED020ABFEE000A39
:104A200000F084FBFEF724FA0028786C90ED180A59
:104A300014BFDDED020ADFED080A20EE200A87ED43
:104A40001E0A71E748E17A3F5C8F823F2C0100200B
:104A500095BFD633AC000020CDCCCC3E00F1E02297
:104A6000090182F8001400F01F0201219140400961
:104A7000800000F1E020C0F88012C0F800117047FB
:104A8000F0B5744E05462DED0A8BB0EE60BAF0EE2F
:104A900040BAB7EE080A0C46B0EE42CA706C6E49D6
:104AA000B0EE61AAD0ED2C0AD0ED2E9AF0EE41AA1C
:104AB00060EE808AD0ED2D0A81B0174620EE808A04
:104AC00091ED100AD1ED140A20EE200AB5EEC00ACD
:104AD000F1EE10FAACBFB7EE000ABFEE000A91ED9E
:104AE000081AD0ED001AC1EE210A20EE800AD0ED9E
:104AF0003C0A60EE880A00EEC08AFEF7A5FF706CE3
:104B000090F8F41071B110EE101A544A914209D283
:104B1000DFED530A90ED3E1A68EE200A30EE410AAE
:104B200000EE808A28EEAA9A96ED2E1AF6EE001A6A
:104B300068EE8A8A28EE2A0A68EE0A0A29EEA9AAED
:104B400061EE21AA9FED471A00266CEE019A9FEDB7
:104B5000461A7BEEC0BA3BEE60BA6AEE01CAB2EE0C
:104B6000041A2AEE81CA95ED000AD5ED000A94EDEB
:104B7000001A30EE490A70EEC90A31EE681AB0EE3A
:104B80006A8A684620EE200AD4ED000A70EEE80A30
:104B900000EE810A3AEE400A8DED000AB0EE6C0A92
:104BA00000F0DAFA002818BFB0EE4C8AB0EE6B1AAB
:104BB00095ED000ADDED000AF0EE4B1A30EE490AE1
:104BC000761C062E20EE080A00EE201A94ED000A4C
:104BD00030EE680A20EE080A40EE201A95ED000A31
:104BE00001EE290A85ED000A94ED000A01EEA90AFA
:104BF00084ED000AB7DBD5ED000A95ED001A9FEDB4
:104C00001B0AF4EE410AF1EE10FA14BFF0EE400A6E
:104C1000D5ED000AC5ED000AD4ED000A94ED001AA6
:104C2000F4EE410AF1EE10FA08BF94ED000A84EDAB
:104C3000000A95ED000A70EE490A94ED000A30EE84
:104C4000680A00F001F987ED000A01B0BDEC0A8B9B
:104C5000F0BD000078000020A42400200000A0C0C7
:104C60000EF87C3BABAA2A3ECDCC4C3E00000000A7
:104C70002DE9F14F86B003A8029001200027DFF84C
:104C8000C4900DF1180B4FF6FF7AB8460490BBF1B3
:104C9000000F14BF3BF817504FF6FF75002426464F
:104CA000EA0B4FF480514846FBF79AFD0AEA4505A6
:104CB0004FF480614846FBF791FDCDF8008000BFBE
:104CC0000098401C00900A28F9DB4FF480614846A8
:104CD000FBF732FD4FF400614846FBF726FD0190DB
:104CE00000BF4FF400614846FBF71FFD009000BF76
:104CF0004FF400614846FBF718FD0246DDE900105D
:104D00000AEA440400F08DF9002818BF44F00104B9
:104D1000CDF8008000BF0098401C00900A28F9DB05
:104D2000761C102EBCDB0298002818BF20F8174014
:104D30007F1C04988742AADBBDF80C0007B0BDE8D1
:104D4000F08F00000008024010B51B4C40220021EB
:104D50002046FDF7A6F8012200212046FCF766FE5A
:104D6000002211462046FCF76EFE40220421204618
:104D7000FDF797F8012204212046FCF757FE002298
:104D800004212046FCF75FFE402208212046FDF763
:104D900088F8012208212046FCF748FE002208215D
:104DA0002046FCF750FE20212046FCF74AFF03492D
:104DB0000020087110BD00000000014078000020B4
:104DC00030EE600A0C48DFED0D0A10EE101A814239
:104DD00005D930EE200A10EE101A8142F9D810EEF3
:104DE000101A07488142D8BF704730EE600A10EEB3
:104DF000101A8142F9DC7047000034C30000B4434C
:104E00000000344330EE600A0C48DFED0D0A10EE6E
:104E1000101A814205D930EE200A10EE101A814294
:104E2000F9D810EE101A07488142D8BF704730EE0B
:104E3000600A10EE101A8142F9DC7047DB0F49C09E
:104E4000DB0FC940DB0F4940DFED1B1AB0EEC01A83
:104E50009FED192A71EE211AB0EEC01ADFED172A64
:104E600031EE021A9FED162AF5EEC00A30EE811AD5
:104E7000F1EE10FA0ADB70EEE10AC0EE811A61EE83
:104E8000A10A10EEA22ADFED0F0A09E071EEE00A96
:104E9000C1EE201A61EEA10A10EEA22ADFED0A0A85
:104EA000B5EEC00A42EE210AF1EE10FA34BFB1EEBF
:104EB000600AB0EE600A704708E53C1EDE02493E1B
:104EC000B1507B3FDB0F493FE4CB164010EE103A68
:104ED000404A9FED411A934205D930EE010A10EE87
:104EE000103A9342F9D810EE103A3C4A934205DD4D
:104EF00030EE410A10EE103A9342F9DCB5EEC00AEA
:104F0000DFED372A9FED372ADFED371AF1EE10FA81
:104F100060EE220A20EE023A09D243EE000AC0ED0A
:104F2000000AF5EEC00AF1EE10FA12D208E043EEE4
:104F3000400AC0ED000AF5EEC00AF1EE10FA08D200
:104F400020EEE03A33EE603A43EE210AC0ED000A6B
:104F500007E0B0EE603A10EEA03A43EE210AC0ED51
:104F6000000ADFED220A30EE200A10EE100A90420D
:104F7000C8BF30EE410AB5EEC00AF1EE10FA60EE9D
:104F8000220A20EE021A1AD241EE000AC1ED000AEE
:104F9000F5EEC00AF1EE10FA08D220EEE00A30EE8B
:104FA000600A40EE210AC1ED000A7047B0EE600AC7
:104FB00010EEA00A40EE210AC1ED000A704741EE52
:104FC000400AC1ED000AF5EEC00AF1EE10FAEDD28A
:104FD000E3E70000DB0F49C0DB0FC940DB0F4940AE
:104FE00083F9A23F7B81CF3E6666663EDB0FC93FF9
:104FF00030EE600A32EE612A31EE601A20EE020ACB
:10500000C0EE010A30EEA10A7047B0EEC01AF0EE11
:10501000E01AB4EEE11AF1EE10FAD8BFB0EE600A71
:1050200070478842D8BF904205DC8A4201DB0846BF
:105030007047104670478142D8BF914203DC8242DC
:10504000A8BF7047F5E78842F1DC704710B5044609
:105050002DED028B9FED0A8A90ED000AF0EE480AD2
:10506000FDF72EF8B5EEC00A84ED000AF1EE10FA55
:105070003CBF30EE080A84ED000ABDEC028B10BD87
:105080000000B4430F4A0168DFED0F0A914209D9CD
:1050900090ED000A30EE200A10EE101A80ED000AA2
:1050A0009142F5D8094A01689142D8BF704790ED06
:1050B000000A30EE600A10EE101A80ED000A9142EC
:1050C000F5DC7047DB0F49C0DB0FC940DB0F4940FF
:1050D00090ED001AD1ED000ADFF848C061EE011A28
:1050E0000022B0EEC00A40EEA01AF1EEE10A10EE86
:1050F000903A6345B8BFDFED0C0AF4EEC00AF1EE5A
:1051000010FA0CDDC0EE201A012221EE210A80EDFA
:10511000000A91ED000A20EE210A81ED000A1046F6
:1051200070470000FFE6DB2EFFE6DB2E90ED001A55
:105130000021B4EEE01AF1EE10FAC8BFC0ED000A8B
:1051400007DCB4EEC01AF1EE10FA38BF80ED000AA9
:1051500000D2012108467047D0ED000A0021F4EE8C
:10516000C00AF1EE10FA06DCB1EE400AF4EEC00A15
:10517000F1EE10FA02D280ED000A012108467047D4
:10518000D0F800C000239445C8BF026003DC8C4502
:10519000B8BF016000DA0123184670470000010023
:1051A00002000100030001000200010004000100F0
:1051B00002000100030001000200010005000100DF
:1051C00002000100030001000200010004000100D0
:1051D00002000100030001000200010006000100BE
:1051E00002000100030001000200010004000100B0
:1051F000020001000300010002000100050001009F
:10520000020001000300010002000100040001008F
:10521000020001000300010002000100070001007C
:10522000020001000300010002000100040001006F
:10523000020001000300010002000100050001005E
:10524000020001000300010002000100040001004F
:10525000020001000300010002000100060001003D
:10526000020001000300010002000100040001002F
:10527000020001000300010002000100050001001E
:10528000020001000300010002000100040001000F
:105290000200010003000100020001000000000004
:1052A0000030F13D0070643E0000A33E0090CF3E10
:1052B0000090F83E00400F3F00E0203F000000005B
:1052C00015B78337CDE37B380EE1C53860F69138EA
:1052D000AF5F0F38E1BC3E3823F44739FC52000879
:1052E00000000020940100009E03000810530008F5
:1052F000940100203443000018230008017902C003
:10530000010D51010203040102030406070809000C
:040000050800018965
:00000001FF
