:020000040800F2
:10000000584400209D010008A5010008A701000830
:10001000A9010008AB010008AD01000800000000C4
:10002000000000000000000000000000AF01000818
:10003000B10100080000000003020008B11400082C
:10004000B7010008B7010008B7010008B7010008B0
:10005000B7010008B7010008B7010008B7010008A0
:10006000B7010008B7010008B7010008B701000890
:10007000B7010008B7010008B7010008B701000880
:10008000B7010008B7010008B7010008B701000870
:10009000B7010008B7010008B7010008B701000860
:1000A000B7010008B7010008B7010008B701000850
:1000B000B7010008F5150008B7010008B7010008EE
:1000C000B7010008B7010008B7010008B701000830
:1000D000B7010008B7010008B7010008B701000820
:1000E000B7010008B7010008B7010008B701000810
:1000F000B7010008B701000889170008B701000818
:10010000B7010008B70100081D160008B701000874
:10011000B7010008B7010008B7010008B7010008DF
:10012000B7010008B7010008B7010008B7010008CF
:100130008D050008B7010008B7010008B7010008E5
:10014000B7010008B7010008B7010008B7010008AF
:10015000B7010008B7010008B7010008B70100089F
:10016000B7010008B7010008B7010008B70100088F
:10017000B7010008B7010008B7010008B70100087F
:10018000B7010008B7010008DFF80CD000F0BEF896
:10019000004800477D30000858440020064880474A
:1001A00006480047FEE7FEE7FEE7FEE7FEE7FEE75C
:1001B000FEE7FEE7FEE7FEE7E1140008890100081C
:1001C000EFF3108072B6704780F3108870472048B4
:1001D0004FF0FF010170002080F309881D480121C4
:1001E00001701D484FF08051016062B6FEE71A4869
:1001F0004FF080510160704717484FF08051016007
:10020000704772B6EFF3098040B1403880EC108A35
:10021000203880E8F00F11490968086000B51048DF
:1002200080475DF804EB0F480F490A7802700B48CD
:100230000E490A680260106890E8F00F203090ECD8
:10024000108A403080F309884EF0040E62B6704781
:1002500022ED00E03701002004ED00E05001002015
:10026000DD0E000834010020350100205801002077
:10027000D2B201E000F8012B491EFBD270470022E8
:10028000F6E710B513460A4604461946FFF7F0FF95
:10029000204610BD00F0004230F000400AD0C10DF1
:1002A00001F56071C0F3160042EA0151C20840072F
:1002B00011437047002001467047F0B400F000423F
:1002C00021F0004120F00040CE0DC30DC1F3160116
:1002D00041F40001C0F316004C42154640F4000002
:1002E000761E09E010EB440002D582F00042404245
:1002F0008842F7D840005B1EB342F9DA18B1F0BC6F
:10030000002100F01EB82846F0BC7047064C074D8F
:1003100006E0E06840F0010394E8070098471034D5
:10032000AC42F6D3FFF734FF384F0008584F0008AF
:100330000029A8BF7047401C490008BF20F00100F9
:10034000704710B4B0FA80FC00FA0CF050EA0104D7
:1003500004BF10BC704749B1CCF1200421FA04F469
:1003600011FA0CF118BF012121430843A3EB0C0142
:10037000CB1D4FEA00614FEA102042BF002010BCA5
:10038000704700EBC35010440029A4BF10BC704755
:10039000401C490008BF20F0010010BC704730B578
:1003A0008C1810F8012B12F00F0301D110F8013B4B
:1003B000120906D110F8012B03E010F8015B01F8D7
:1003C000015B5B1EF9D101E001F8013B521EFBD13C
:1003D000A142E6D3002030BD0029816814BF41F05E
:1003E000010121F00101816070470000084AD2F844
:1003F0000413084B1940D0E9003C43EA0C03D0E950
:1004000002C04CEA000018430843C2F804037047D6
:1004100000200140E030FCFF10B44268D1E9003C0C
:1004200022F4807222F0407242EA0C221A434260A7
:1004300082680C4B1A40D1E904C343EA0C03D1E9AA
:10044000024C4CEA440C43EA0C031A438260C26A31
:10045000097E22F47002491EC9B242EA0151C1620A
:1004600010BC7047FDF7FFC030B4072509290CD92F
:10047000C468A1F10A0C0CEB4C0C05FA0CF5AC436A
:1004800003FA0CF32343C36009E0046901EB410C58
:1004900005FA0CF5AC4303FA0CF323430361836BB9
:1004A000C3F3015CA2EB0C02921C02EB82024FF040
:1004B0001F0C0CFA02FC23EA0C03914019438163E0
:1004C00030BC704705490028D1F8040314BF40F43C
:1004D000005020F40050C1F8040370470020014090
:1004E00030B4072509290CD9C468A1F10A0C0CEB1A
:1004F0004C0C05FA0CF5AC4303FA0CF32343C36030
:1005000009E0046901EB410C05FA0CF5AC4303FA70
:100510000CF3234303614FF01F0C072A0CD2436BEB
:10052000521E02EB82020CFA02FC23EA0C039140F9
:100530001943416330BC70470D2A0CD2036BD21FA4
:1005400002EB82020CFA02FC23EA0C0391401943ED
:10055000016330BC7047C36A0D3A02EB82020CFAA9
:1005600002FC23EA0C0391401943C16230BC70477E
:1005700005490028D1F8040314BF40F4000020F41A
:100580000000C1F8040370470020014070B500F07E
:10059000F9F9084C084D2146284600F02FF828B1FB
:1005A00003F07EFB2146284600F008F8BDE87040C5
:1005B00000F0F6B92080002070640240064A9042A4
:1005C00034BF0648064811F0005F064A01EA0201FE
:1005D00014BFC16081607047106402400060024037
:1005E000006402407D0F7D0F0029016814BF41F0B7
:1005F000010121F00101016070470000124A00234F
:10060000904234BF114A124ADFF848C011EA0C0F79
:1006100004BF406900F0800006D04FF01E0C006857
:100620000CEAD12C00EA0C0011F0005F14BF5268F4
:100630001268DFF824C002EA0C020A421CBF00283C
:100640000123184670470000106402400060024019
:10065000006402403C0F3C0F7D0F7D0F11F0800FB6
:1006600007D04369002A0CBF23F0800343F08003C6
:100670004361802908BF704701F01E01002A02680B
:100680000CBF22EA010111430160704710B40268F7
:100690001B4BD1F80CC01A400B6843EA0C03D1E99C
:1006A00005C44CEA040C43EA0C03D1F81CC043EA2D
:1006B0000C03D1F820C043EA0C03D1F824C043EA6C
:1006C0000C03D1F828C043EA0C03D1F834C043EA44
:1006D0000C03D1F838C043EA0C031A4302604269A4
:1006E000D1E90B3C22F0070243EA0C031A434261B2
:1006F0000A6942604A6882608968C16010BC7047BC
:100700003F801CF0CB0800EB8300036A4907C90E49
:100710004FF00F0C0CFA01FC23EA0C030362036A8E
:1007200002FA01F119430162704702460020126982
:100730000A4218BF01207047418370472DE9F04FEE
:100740004FF0000CDDE909874FF001094FF0030A73
:1007500009FA0CF501EA0504AC4238D1D0F800B032
:100760004FEA4C040AFA04F62BEA060BC0F800B074
:10077000D0F800B002FA04FE4BEA0E0BC0F800B04D
:10078000012A18BF022A18D1D0F808B02BEA060BAC
:10079000C0F808B0D0F808B008FA04FE4BEA0E0B17
:1007A000C0F808B0D0F804B02BEA050545604568EC
:1007B00003FA0CFB45EA0B054560C56825EA06050A
:1007C000C560C56807FA04F445EA0404C4600CF186
:1007D000010CBCF1100FBBD3BDE8F08F0183704753
:1007E000002A14BF018341837047000070B586B0B2
:1007F00000F0C6F8514A002414639470D470147247
:10080000D471D460D4619461546154709471204661
:1008100002F134010C54401CC0B20828FAD3147100
:1008200054719462464841F258411462491E0904C9
:1008300000F8014B090CF9D142494FF48070401E79
:10084000000401F8014B000CF9D1DFF8F4C0431C9F
:10085000D9B2C0EBC00000EB4000C1EBC1010CEB12
:10086000800001EB41010CEB8101416136A1C164C3
:10087000D8B23D28EBD3C0EBC00000EB40000CEB3E
:10088000800031A14461C1643049C2F824C04FF4F2
:100890009670D462401E000401F8014B000CF9D19F
:1008A000DFF8A8C0411C00EB80008BB20CEB80008D
:1008B00003EB83030CEB83030470436088B20E28C0
:1008C000F0D300EB80000CEB800004704460C2F8B1
:1008D00010C000F0B7FB00F0E9FB00F00DFC1C4875
:1008E0004FF6FF71CDE9001080260325029600F532
:1008F000FE723F2300211748CDE9034500F028F997
:1009000005AA15A13F2000F081F917484FF6FE71A6
:10091000CDE90010029600F5FE723E230021134837
:10092000CDE9034500F014F905AA11A13E2000F01D
:100930006DF906B0BDE8704000F023B8300100202A
:10094000D82A0020D82900203F000000AC24002035
:10095000D8270020D112000875432F4F532D494945
:100960002049646C65000000D8250020ED120008C5
:1009700075432F4F532D4949205374617400000073
:10098000704770470549C879012818BF70478878B3
:10099000FF283CBF401C88707047000030010020D9
:1009A00070B5174CE079012818BF70BDFFF708FC3F
:1009B000A178054621B1481E10F0FF01A1701AD19F
:1009C000E078C0B90F48A1790F4A415C525C805C65
:1009D00000EBC100C2B20D48627150F82210A16252
:1009E0002079824207D0886B401C8863E068401CF5
:1009F000E060FFF701FC2846BDE87040FFF7E4BB6C
:100A000030010020F84D000864010020D8290020A2
:100A100010B5094CE079012818BF10BDFFF7D0FBD5
:100A2000A17821B9E178FF293CBF491CE170BDE8FC
:100A30001040FFF7C9BB00003001002010B50D4C7D
:100A4000E079012818BF10BDFFF7BAFBA17831B9D2
:100A5000E17821B1491E11F0FF01E17003D0BDE83A
:100A60001040FFF7B1BBFFF7AFFBBDE8104000F04F
:100A700063BB0000300100200B49C879002818BF73
:100A800070470A4A88790A4B105C1B5CD25C02EB07
:100A9000C000C0B2074A4871087152F8200088624D
:100AA0000862FFF794BB000030010020F84D0008F9
:100AB00064010020D8290020704700002DE9F04192
:100AC00084B01C4615460E468046FFF779FB1D494B
:100AD000097829B1FFF778FB04B03C20BDE8F0812C
:100AE000194F57F8241029B1FFF76EFB04B02820E6
:100AF000BDE8F081012147F82410FFF765FB0023D2
:100B00002A463146404600F0F3F80026014600969A
:100B10000196334632462046029600F03FFB050020
:100B200009D0FFF74DFB47F82460FFF74DFB04B0F9
:100B30002846BDE8F08105480078012808BF00F08C
:100B4000FBFAF4E732010020D82900203701002009
:100B50002DE9FF4F83B01C46DDE91175DDE91386F1
:100B6000DDF840B0FFF72CFB2449097829B1FFF7E5
:100B70002BFB07B03C20BDE8F08FDFF8849059F8DC
:100B8000241029B1FFF720FB07B02820BDE8F08F23
:100B9000012149F82410FFF717FB3946284616F0C3
:100BA000010F4FF0000A1CBF16F0020F002803D0FF
:100BB00041F804AB401EFBD1DDE903013346059A41
:100BC00000F096F8CDE9005801465B463A462046CB
:100BD000029600F0E3FA050009D0FFF7F1FA49F8B0
:100BE00024A0FFF7F1FA07B02846BDE8F08F0548CA
:100BF0000078012808BF00F09FFAF4E732010020D6
:100C0000D8290020370100207047704770B505468D
:100C100012480E461446007800281EBF122010709D
:100C200070BDFFF7CDFA0246FF2D03D10C480068D6
:100C300090F832500B4850F825004325002818BF83
:100C4000012806D0C6641046FFF7BEFA00202070C7
:100C500070BD1046FFF7B8FA257070BD3201002054
:100C600050010020D8290020704700002DE9F041F4
:100C70000446002008600E464860FFF7A1FA0146CE
:100C8000FF2C03D11848006890F83240174850F8FC
:100C90002400002818BF01280ED0027C12F0010F9A
:100CA00010D0D0E902474FF000050846FFF78CFA54
:100CB00054F8040B60B110E00846FFF785FA4320B2
:100CC000BDE8F0810846FFF77FFA4520BDE8F081D6
:100CD00054F8040B6D1C0028FAD0781B3560706046
:100CE0000020BDE8F081000050010020D82900203C
:100CF0002DE9FF4F002042F8040C42F8080C4FF099
:100D0000153142F80C1C4FF0143142F8101C4FF012
:100D1000133142F8141C4FF012334FF0103442F8E4
:100D2000183C4FF0113C42F81CCC42F8204C5D10AE
:100D300042F8245C661042F8286C4FF0073742F8FE
:100D40002C7C4FF0063842F8308C4FF00539A0105B
:100D500042F8349C42F8380C4FF0033A42F83CAC6D
:100D60004FF0023B42F840BC4FF0013E42F844ECE9
:100D7000810542F8481C009842F84C0C6FF00101C4
:100D800042F8501C42F8543C42F858AC42F85CBC63
:100D900042F860EC019842F8640C4FF0313142F8AF
:100DA000681C4FF0303142F86C1C4FF0293142F88A
:100DB000701C4FF0283142F8741C4FF0273142F874
:100DC000781C4FF0263142F87C1C4FF0253142F858
:100DD000801C590042F8841C4FF0233142F8881CD3
:100DE0004FF0223142F88C1C4FF0213142F8901C18
:100DF000610042F8941C4FF0193142F8981C4FF0F2
:100E0000183142F89C1C4FF0173142F8A01C4FF0EB
:100E1000163142F8A41C42F8A8CC42F8AC4C42F877
:100E2000B05C42F8B46C42F8B87C42F8BC8C42F832
:100E3000C09CA11042F8C41C04B0A2F1C400BDE8DB
:100E4000F08F000070B50446FFF7BAF984461F48DA
:100E5000FF2C006804BF90F83240012505D090F8BF
:100E60003200A0420CBF01250025194850F824008B
:100E700058B101280ED090F83410164B90F8354038
:100E80005A5CA2435A540AD010E06046FFF79CF91E
:100E9000482070BD6046FFF797F9432070BD0E49AA
:100EA00090F836200B7823EA02020A7090F830108E
:100EB00041F0080180F830106046FFF785F9002DF9
:100EC00018BF00F039F9002070BD0000500100206B
:100ED000D82900206401002036010020704700005E
:100EE00070B5044614480078002818BF70BD134838
:100EF0000078002818BF70BD002C08BF70BDFFF738
:100F00005FF984460E4801680E4891F8342091F844
:100F10003550835CAB43835406D10B4891F836209F
:100F2000037823EA020202706046CC62FFF74CF9B4
:100F3000BDE8704000F000B932010020330100200C
:100F40005001002064010020360100202DE9F0410D
:100F500000F056F8FFF734F9274D296B491C296337
:100F6000FFF732F9E879012818BFBDE8F081687A07
:100F70000126002738B1012808BFBDE8F08102280A
:100F80000CBF6E726F72EC6A94F832003F2814BF87
:100F9000DFF86880BDE8F081FFF712F9E16A11B36C
:100FA000491EE1621FD194F8301011F0370F1DBFB8
:100FB00001F0C80184F8301084F8316084F8317091
:100FC00094F8301011F0080F0DD194F83610AA796A
:100FD0001143A97194F8341094F8353018F80120B1
:100FE0001A4308F801206469FFF7EEF894F832001C
:100FF0003F28D1D1BDE8F0813001002064010020FC
:101000007047000000B585B0684600F0FFF9019810
:1010100042F21071B0FBF1F0401EB0F1807F24BFAE
:1010200005B000BD4FF0E0214861054AF02082F88C
:10103000140D002088610720086105B000BD000084
:101040000FE000E010B550210F4800F023F8002019
:101050000D4B8446411C03EB00108AB203EB0212D5
:1010600080F800C0426009A2C26088B20428F1D3AF
:1010700003EB001005A180F800C0C0F804C0C160F7
:101080000348036010BD0000303F00203F00000017
:101090006C010020002914BF0022704700F8012BCA
:1010A000491E0904090CF9D17047000010B57821D8
:1010B0000E48FFF7EFFF0D4A002000EB400102EB66
:1010C000C10101F118034B60401C09A380B24B61C0
:1010D0000428F2D300EB400002EBC0000021416085
:1010E00003A141610348026010BD0000803F002061
:1010F0003F0000007001002010B560210C48FFF790
:10110000C9FF0B4B0020411C8AB200EB400002EBF0
:10111000420203EBC20243F8302088B20328F2D324
:1011200000EB4000002143F830100248036010BD7E
:10113000F83F00207401002010B5FFF741F8134B71
:1011400004469878002804BFD878002818D11048A1
:101150009979104A415C525C805C00EBC100C2B2DC
:101160000D485A7150F8221099621879824207D0BE
:10117000886B401C8863D868401CD860FFF737F83C
:101180002046BDE81040FFF71FB8000030010020E6
:10119000F84D000864010020D82900202DE9FF5FE8
:1011A0009346DDE90F7689460546DDF83880FFF77E
:1011B00007F8DFF80CA1DAF82440002C79D0616937
:1011C000CAF82410FFF700F8C4F8009084F83250F1
:1011D0004FF0000984F8309084F83190C4F82C90D6
:1011E000C4F80C80C4E9017B26820398608284F8ED
:1011F0003790E80884F8340005F00701012284F8EC
:10120000331002FA00F084F8360002FA01F084F894
:101210003500C4F81C90C4F82490C4F82090C4F899
:101220003890C4F84090C4F83C9026A0C4F844908C
:10123000C4E91290002004EB8001401CC1F85090DA
:1012400010F0FF00F7D02046FFF736FCFEF7B8FF9E
:101250001D4941F82540FEF7B7FF2046FFF7D4FCB3
:10126000FEF7AEFF0246DAF82C00C4E905090028B3
:1012700018BF8461CAF82C4094F836009AF806101A
:1012800008438AF8060094F83400104994F835C0F1
:101290000B5C43EA0C030B549AF80800401C8AF8D4
:1012A00008001046FEF790FF04B00020BDE8F09F54
:1012B000FFE7FEF789FF04B04220BDE8F09F000081
:1012C000300100203F000000D829002064010020E8
:1012D000054CFEF775FFE169491CE161FEF774FFFB
:1012E000FFF793FCF5E7000030010020264E82B0A6
:1012F000707830B94FF4FA60FFF7F2FD707800288B
:10130000F8D0224970694FF00007A1FB0010400996
:10131000706103D13770FF20FFF794FDFEF750FF97
:10132000716964225143F161FEF74EFF184DFEF7DB
:1013300047FFF169F761B161FEF746FFD6E9051095
:10134000B0FBF1F0C0F164003070FFF78DFC0024B9
:1013500069462046FFF78AFC60B955F82410002939
:1013600018BF012906D0D1E9020200EB82004864CF
:101370000198886404F10100C4B23F2CE8D94FF40D
:101380007A70FFF7ADFDD2E7300100201F85EB51E9
:10139000D8290020044A0029116814BF084321EA13
:1013A000000010607047000030380240044A0029F5
:1013B000116814BF084321EA000010607047000064
:1013C00040380240044A0029116814BF084321EA4A
:1013D000000010607047000020380240044A0029D5
:1013E000116814BF084321EA000010607047000034
:1013F00044380240044A0029116814BF084321EA16
:10140000000010607047000024380240DFF88CC0F4
:1014100030B4DCF80010224D11F00C0106D0214C44
:10142000042908BF046002D008291DD00560DCF83B
:1014300000100F221C4B02EA1111595C026822FABB
:1014400001F14160DCF80020072404EA92229A5C52
:1014500021FA02F28260DCF8002004EA52329A5C3F
:10146000D140C16030BC7047104A1168C1F380534D
:101470001168002B01F03F0114BFB4FBF1F1B5FB83
:10148000F1F113681268C3F388135943C2F30142A0
:10149000521C5200B1FBF2F10160C8E7083802406B
:1014A0000024F40040787D0120010020043802402F
:1014B000094810B50168491C0160FEF781FE074923
:1014C0000A78521C0A70FEF77FFEFFF73FFDBDE869
:1014D0001040FFF765BA00007801002032010020BB
:1014E0003B4882B0016841F47001016039480168ED
:1014F00041F00101016038494FF0000CC1F800C013
:10150000026822F4102222F080720260031D334A26
:101510001A60026822F4802202600A1DC2F800C02C
:10152000CDF800C0CDF804C0026842F480320260F9
:10153000026802F400320192009A521C0092019A51
:101540001AB9009AB2F5A04FF2D1026812F4003F26
:1015500008BFCDF804C034D001220192204AD2F84D
:1015600000C04CF0805CC2F800C01E4AD2F800C037
:101570004CF4804CC2F800C00A680A600A6842F461
:1015800000420A600A6842F4A0520A60164A1A60D1
:10159000026842F080720260026812F0007FFBD0A5
:1015A000124A40F205601060086820F003000860ED
:1015B000086840F002000860086800F00C00082885
:1015C000FAD10B494FF00060086002B0704700008C
:1015D00088ED00E000380240083802401030002456
:1015E000403802400070004008544007003C024070
:1015F00008ED00E010B5084C0121204600F011FA7A
:10160000002808BF10BD01F035FB2046BDE81040A2
:10161000012100F013B900000004004030B5514D25
:1016200001212DED048B81B0284600F0FAF9002845
:1016300002BF01B0BDEC048B30BDDFED4B8A4C4CDA
:101640004A48A16B90ED030AD1ED280A91ED291AC1
:1016500091ED282AB0EEC00A60EE811AB7EE001AAA
:101660009FED449AF0EE490A03F0F0FA84ED2B0A5C
:10167000206C02286DD1206C02281CBF84ED079AD3
:1016800084ED089A65D194ED260ADFED3B0AA16B43
:1016900020EE200AD4ED1E0A30EEC08A94ED1E0A18
:1016A000D1ED3A0AB0EEC00AB4EEE00AF1EE10FA5B
:1016B0003CBF84ED079A84ED088A4AD3D1ED360AFF
:1016C0009FED2E0ADFED2E1A2E4828EE001A20EE8E
:1016D000819AD1ED370A20EE881AD4ED070A41EE3F
:1016E000210AC4ED070AD1ED380A80EEA81AD4ED1C
:1016F000080AD4ED098A78EE600A61EE200A20EE2D
:10170000800AD1ED390A38EEC00A40EEC08AF7EE01
:10171000000ABFEE000AC4ED098A03F035FB84ED30
:10172000088A94ED070AF7EE000A684639EE000AC7
:1017300030EE280A8DED000ABFEE000A03F024FB0C
:10174000A06BDDED000A90ED180A20EE200A84ED72
:101750001B0A01B02846BDEC048B0121BDE83040D6
:1017600000F06CB8000C00406F12833A4C2400204B
:101770007000002000000000EBC91841CDCC4C3DAA
:1017800018B751388C00002010B50A4C02212046B1
:1017900000F047F9002808BF10BD0748407818B18D
:1017A0002021064800F03BF92046BDE81040022108
:1017B00000F044B800040140700000200000014027
:1017C0000029018814BF41F0800121F080010180CF
:1017D00070470A884B88B1F806C01A438B8843EAE1
:1017E0000C031A430B891A434B8989891A43114305
:1017F000A0F8441070470029818814BF41F001010E
:1018000021F00101818070470123B0F820C08B4096
:101810002CEA03030384038C02FA01F119430184C7
:1018200070470423B0F820C08B402CEA03030384E4
:10183000038C02FA01F1194301847047C943018204
:1018400070470029018814BF41F0010121F0010116
:10185000018070470029B0F8441014BF41F40041E2
:10186000C1F30E01A0F84410704710B5A0F18041FB
:10187000B1F580314AD0B0F1804F5BD0A0F180410A
:10188000B1F580614CD0A0F18041B1F500615BD031
:10189000A0F18041B1F5406160D0A0F18041B1F587
:1018A000805165D0A0F18041B1F5A0516AD0A0F17E
:1018B0008041B1F582316FD0A0F18041B1F5A03106
:1018C00074D0A0F18041B1F5A2317AD0A0F180416D
:1018D000B1F5A4317DD0A0F18041B1F5C05179D0EE
:1018E000A0F18041B1F5E05175D0A0F18041B1F592
:1018F000005118BF10BD01210802FFF763FDBDE8CC
:10190000104000214FF48070FFF75CBD01210846B4
:10191000FFF770FD0021BDE810400120FFF76ABD10
:1019200001210220FFF74EFD0021BDE810400220FA
:10193000FFF748BD01210846FFF744FD0021BDE83F
:1019400010400120FFF73EBD01210420FFF73AFDC2
:101950000021BDE810400420FFF734BD012108201C
:10196000FFF730FD0021BDE810400820FFF72ABD39
:1019700001211020FFF726FD0021BDE810401020B6
:10198000FFF720BD01212020FFF71CFD0021BDE84D
:1019900010402020FFF716BD01210220FFF72AFD8D
:1019A0000021BDE810400220FFF724BD01210804FA
:1019B000FFF720FDBDE8104000214FF48030FFF715
:1019C00019BD01214804FFF715FD00214FF4003037
:1019D00002E005E00FE018E0BDE81040FFF70ABDA7
:1019E00001218804FFF706FDBDE8104000214FF4F7
:1019F0008020FFF7FFBC01214020FFF7E3FC00211E
:101A0000BDE810404020FFF7DDBC01218020FFF73A
:101A1000D9FC0021BDE810408020FFF7D3BC8182B3
:101A20007047038A002280890B4200EA01001CBF34
:101A30000028012210467047002A828914BF1143F2
:101A400022EA01018181704710B4028C22F0010268
:101A50000284028C8388B0F818C00C882CF0730CB8
:101A600044EA0C0C8C8922F0020222434C88224367
:101A7000A0F18044B4F580341CBFA0F18044B4F5DB
:101A800082340DD1CC8922F0080222438C8822F0C6
:101A9000040222430C8A23F4407323434C8A2343D9
:101AA0008380A0F818C089684163028410BC704725
:101AB000028B22F0080211430183704730B4028C7C
:101AC00022F010020284028C8388B0F818C00D88BE
:101AD0002CF4E6444FF6FF7C0CEA05252C438D8957
:101AE00022F020020CEA05152A434D880CEA051560
:101AF0002A43A0F18045B5F580351CBFA0F1804593
:101B0000B5F5823516D1CD8922F080020CEA051593
:101B10002A438D8822F040020CEA05152A430D8ADB
:101B200023F440630CEA85052B434D8A0CEA850CAF
:101B30004CEA03038380048389688163028430BC98
:101B40007047028B4FF6FF7322F4006203EA012113
:101B500011430183704730B4028C22F480720284F6
:101B6000028C8388B0F81CC00C882CF0730C44EAFB
:101B70000C048D894FF6FF7C22F400720CEA0525D7
:101B80002A434D880CEA05252A43A0F18045B5F586
:101B900080351CBFA0F18045B5F5823516D1CD89C1
:101BA00022F400620CEA05252A438D8822F4806223
:101BB0000CEA05252A430D8A23F440530CEA051547
:101BC0002B434D8A0CEA051C4CEA03038380848373
:101BD0008968C163028430BC7047828B22F008029E
:101BE00011438183704730B4028C22F48052028406
:101BF000038C8288B0F81CC00D884FF6FF742CF45B
:101C0000E64C04EA052545EA0C0C8D8923F40053C3
:101C100004EA05352B434D8804EA05352B43A0F132
:101C20008045B5F580351CBFA0F18045B5F58235FE
:101C300005D10D8A22F4804204EA85142243828071
:101C4000A0F81CC089680164038430BC7047828B93
:101C50004FF6FF7322F4006203EA012111438183EE
:101C60007047028922F07002114301817047028996
:101C700022F080020281028911430181704710B471
:101C80004FF0010C048C00F118030CFA01FC24EA5B
:101C90000C0CA0F820C0002918BF082914D0A1F10D
:101CA0000400C0F34E001844016848F6FF7301EACF
:101CB0000301016001684FF6FF7303EA022241EA63
:101CC0000201016010BC704703EB510001684FF640
:101CD0008F7301EA03010160016841EA02010160BA
:101CE00010BC7047828822F0700282808288114383
:101CF00081807047028922F0070202810289114324
:101D00000181704710B402881C4BDFF874C0984200
:101D100018BF604511D0B0F1804F1CBFA0F18044C6
:101D2000B4F5806409D0A0F18044B4F500641CBF10
:101D3000A0F18044B4F5406403D14C8822F07002D5
:101D40002243A0F18044B4F580541CBFA0F180442C
:101D5000B4F5A05403D00C8922F4407222430280CF
:101D60004A68C2620A880285984212BF6045897A31
:101D700001864FF00101818210BC704700000140D4
:101D800000040140154D012602270424A5F1020894
:101D90002E804FF4FA7000F045FE2F804FF4FA7059
:101DA00000F040FE2C804FF4FA7000F03BFEA8F8E3
:101DB00000604FF4FA7000F035FEA8F800704FF4A0
:101DC000FA7000F02FFEA8F800404FF4FA7000F00F
:101DD00029FEC82000F026FEDAE700001A040240BF
:101DE0000A2000F01FFEFBE710B5FFF70BF9FEF726
:101DF000E7F904461423094A00210948FEF75EFE6C
:101E00003723084A00210848FEF758FE3C20FFF718
:101E100019F82046BDE81040FEF7D6B97C15002021
:101E2000E11D00087C1D0020851D000810EE100A31
:101E3000C0F3C7517F391729A8BF7047DFED140AD7
:101E4000002970EE200A0DDAF5EEC00AF1EE10FA64
:101E50001ADD0028A8BF002016DAB0F1004F18BF25
:101E60000C4811E00C4ACA40104208BF7047F5EE1A
:101E7000C00AF1EE10FA07DD002804DA4FF400037F
:101E800023FA01F10844904300EE100A7047000065
:101E9000CAF24971000080BFFFFF7F0010B52DED31
:101EA000028BF0EE408A18EE900AB0EE608A20F0C5
:101EB0000040C0F1FF40C00F07D118EE100A20F01B
:101EC0000040C0F1FF40C00F2BD018EE101A18EEE2
:101ED000900AFEF7F2F900EE100A10EE100A6FEA0F
:101EE000D05010F0FF0F04BFBDEC028B10BD18EEF8
:101EF000900A00F0004110EE100A00F0004081420C
:101F000004BFBDEC028B10BD18EE101A10EE100AC3
:101F1000BDEC028B61F31E0000EE900A30EE600A09
:101F200010BD18EE900A4FF07F41B1EB400F1CBF7F
:101F300018EE100A5FEA4000C7D1012000F0E2F875
:101F4000BDEC028BBDE8104000F0C4B810EE100AE2
:101F500010B50023A0F50001B1F1FE4F67D200BF1C
:101F600000F500216FF07E0202EBE15CC1F302524A
:101F70004FF07E5101EB025100EE901AA0EBCC50D5
:101F800003EB0C0100EE100A51EA020036D030EEED
:101F9000601A70EE200A9FED3D2A3E4881EE200A2D
:101FA0009FED3B1A60EE000A00EE821A60EE201AE6
:101FB00061EE810A784401EE101A00EB82009FED79
:101FC000362AB8EEC11AD0ED001A344841EE021A92
:101FD000784401EE101A00EB8200B8EEC11A90EDC1
:101FE000002ADFED2F2A01EE222AB0EE001A72EE4F
:101FF000200A40EE010A31EEA00A10BDF7EE000AF9
:102000009FED291A30EE600ADFED260A00EE201A55
:10201000DFED260A60EE001A40EE010A9FED241A59
:1020200000EE201A61EE810A30EE200A10BD4FF05A
:102030007F41B1EB400F03D2BDE8104000F046B83D
:10204000B0F1FF4F08BF10BDB5EEC00AF1EE10FAB7
:1020500006D2012000F056F8BDE8104000F03AB872
:10206000B5EEC00AF1EE10FA07D1022000F04AF8EE
:1020700000F022F8B1EE400A10BDDFED0E0A6FF05D
:10208000160320EE200A10EE100A69E766F1CC3E36
:10209000AAAA2A3F402F00000070313F442F0000C1
:1020A000F4FD053821ED423E0A1180BEC1ABAA3EC7
:1020B000FFFFFFBE0000004BDFED030AB7EE001A82
:1020C00081EE200A704700000000000030EE000A98
:1020D00070470000DFED020A80EEA00A70470000A2
:1020E0000000000002E008C8121F08C1002AFAD14F
:1020F00070477047002001E001C1121F002AFBD188
:102100007047000001490860704700007C01002012
:1021100010B504464FF49471FEF7B1F8F1EE040ADD
:10212000C4ED000AB9EE040A84ED010AB2EE041A05
:1021300084ED021AFAEE041AC4ED031A9FED762A12
:1021400084ED042A9FED752A84ED052A9FED742AFB
:1021500084ED062A9FED732A84ED072A9FED722AEB
:1021600084ED082A9FED712A84ED092A9FED702ADB
:1021700084ED0A2ADFED6F2A0120C4ED0B2AF3EE6D
:10218000072AC4ED0C2A84ED0D2A84F838009FED4F
:102190006A2A84ED0F2ADFED692AC4ED102A84ED46
:1021A000112AC4ED122A9FED662A84ED132A9FEDB1
:1021B000652A84ED142A9FED642A84ED152A9FED8B
:1021C000632A84ED162A9FED622A84ED172AC4ED56
:1021D000180A84ED190A84ED1A1AC4ED1B1AC4ED0D
:1021E0001C0A84ED1D0A9FED5B0A84ED1E0A9FED1B
:1021F0005A0A84ED1F0A9FED590A84ED200A9FEDCB
:10220000580A84ED210A84F88C009FED560A84ED6B
:10221000220AB1EE0C0A84ED240A9FED530A84EDE4
:102220002A0A9FED520A84ED2B0A9FED510A84ED94
:10223000250A9FED500A84ED260A9FED4F0A84ED92
:10224000270A9FED4E0A84ED280A9FED4D0A84ED82
:10225000290A84ED2C1A9FED4B0A84ED2D0A9FED7F
:102260004A0A84ED2E0A84ED2F0ADFED480A002089
:10227000C4ED300A84F8C40084F8C50084ED320A45
:1022800084F8CC00F3EE090AC4ED340ADFED400A0D
:10229000C4ED350A9FED3F1A84ED361A84ED371AE6
:1022A0009FED3D1A84ED381A9FED3C1A84ED391AE2
:1022B00084ED3A0ADFED3A1A4FF4FA71C4ED3B1A95
:1022C00084ED3C0A9FED370A84ED3D0A84ED3E1A09
:1022D000B7EE000A84ED3F0A9FED330A84ED400A11
:1022E0009FED320AC4ED410A84ED420A9FED300AA7
:1022F00084ED430A9FED2F0AC4F8101184ED450ABE
:10230000B6EE000A84ED460A84F81C01C4F82001E8
:102310001020C4F8240110BD000002430050C3C7C0
:102320000050C347CDCC4C3F000096430080BB44D7
:102330000000B4410000CC410000AA420000C842A5
:102340009A99193E0AD7A33B3333733F00606A461C
:1023500000606AC652491D3B6666264100409C46A5
:102360000AD7A33D33B34A430000FA4400401C4758
:102370007E601E36C3642A3C772E0C3B8C3E504D4B
:102380009A99993E000048430000000000401C4517
:10239000CDCCCC3D6F12833B17B7D138CDCC4C3E62
:1023A0008FC2F53C17B7D1390AD7233C99BB963B6E
:1023B0000AD7233D0AD7A33CF0B504462DED048B84
:1023C00083B0B0EE409A90ED040A01A902A802F091
:1023D000ABFB94ED020AFD4DB0EEC00A8DED000A94
:1023E000A86BD0ED150A9FEDFA0A684602F0CCFC06
:1023F00094ED050ADDED010AD4ED061A20EE201A4F
:102400009DED020A00EE211A84ED0F1A94ED061AD2
:1024100061EE200A94ED051A40EE410AC4ED100A5F
:10242000D4ED110A94ED0F0AA86B70EEC00A94ED7A
:10243000110A90ED351A01EE600A84ED110A94ED4F
:10244000120AD4ED100A90ED351A70EE600A94ED80
:10245000120A01EE600A84ED120A94ED000AD4ED2E
:102460000F0A70EE608A94ED010AD4ED100A30EE86
:10247000608A94ED150AD0ED1E0A08EEA00A84EDDC
:10248000130A94ED160AD0ED1E0A08EE200A84ED18
:10249000140A01F043F9A86BD0ED1F0A90F8CC1094
:1024A00071B110EE101ACB4A914209D29FEDCA1AAF
:1024B000D0ED341A20EE811A30EE610A41EE000AA6
:1024C00094ED151A20EE890A08EE801A84ED151A8B
:1024D000D4ED160A48EE000AC4ED160A94ED0A0A75
:1024E000DDED000A20EE200ADFEDBC8A9FEDBC9AEC
:1024F0009FEDBC8A04F15001081F20EE080A02F08B
:1025000015FCD4ED0A0A94ED130A04F1540060EEB0
:10251000A80A80EE201A84ED0D1AD4ED0A0A94ED73
:10252000140A60EEA80A80EE201A84ED0E1A94EDCB
:102530000A0ADDED000A20EE200A20EE080A02F069
:1025400039FC94ED0A0ADDED000A04F1580020EE92
:10255000200A20EE080A02F02DFC94ED0D0AD4EDBD
:102560000F0A94ED101A20EE200AD4ED0E0A00EEA8
:10257000810A84ED090A94ED0F0AD4ED0F0A94ED57
:10258000101A20EE200AD4ED100A00EE810AF1EEB6
:10259000C00AC4ED070A94ED110AD4ED110A94EDB6
:1025A000121A20EE200AD4ED120A00EE810AF1EE92
:1025B000C00AC4ED080A94ED0D0ADDED010A94EDA0
:1025C0000E1AD4ED012A20EE202A9DED020A00EE1B
:1025D000412A94ED0E1A61EE201A94ED0D1A40EE88
:1025E000011A94ED001A21EE201A00EE621AD4EDC1
:1025F000012A62EEA02AD4ED000AB5EEC01A40EE20
:10260000202ABEEE000A21EE000AF0EE400A02EE99
:10261000C90A42EE890AF1EE10FA34BF4FF0FF30DA
:10262000012001EE100AF5EEC00AB8EEC11A21EE43
:10263000281AF1EE10FA34BF4FF0FF30012002EEFD
:10264000900AB8EEE23ADFED682AB5EEC00A03EE72
:10265000621AF1EE10FA34BF4FF0FF30012003EEA2
:10266000100AF5EEC00AB8EEC33A03EE621AF1EEB4
:1026700010FA34BF4FF0FF30012000EE900AB5EEA3
:10268000C00AF8EEE00A60EE880AF1EE10FA34BFF4
:102690004FF0FF30012000EE100AA86BB8EEC00A20
:1026A000D0ED202A40EE480A90ED210A20EE220AC1
:1026B000DFED4E2A4E4E20EE220A21EE001A20EEC9
:1026C000800AD4ED0A0A32EE411A31EEC00A21EE38
:1026D000281A20EE280A60EE810AC4ED0B0AD4ED18
:1026E0000A0A20EE800A84ED0C0AF06AF1EE420A32
:1026F000B1EE610A9FED3F1AB5EEC00AF1EE10FA95
:102700001CDBF5EEC00AF1EE10FA0ADB20EE081A27
:10271000F4EEC10AF1EE10FA28BF4FF0010C29D2F5
:1027200009E020EE011AF4EEC10AF1EE10FA38BF0A
:102730004FF0030C1ED34FF0020C1BE0F5EEC00A65
:10274000F1EE10FA0ADB20EE011AF4EEC10AF1EE06
:1027500010FA28BF4FF0060C0CD209E020EE081A40
:10276000F4EEC10AF1EE10FA38BF4FF0040C01D3B9
:102770004FF0050C9FED201ADFED201ABCF1070F7A
:102780005DD2DFE80CF0D6043D5D7B99B90001EE27
:10279000900A40EE480AF8EE611A60EEA10AFCEEDB
:1027A000E00A10EE902A60EE010A00EE100A801A8C
:1027B000B8EE400A20EE800ABCEEC00A10EE101AF5
:1027C000401A43081A441144B3E00000700000208E
:1027D000000000000000A0C00EF87C3BABAA2A3F1E
:1027E000D7B35D3F3ACD133FABAAAA3EBD3786357E
:1027F000000001403ACD13BF3ACD933F3ACD93BF8D
:10280000F0EE601A01EE100A40EE081A50EE080AC7
:1028100000EE100AB8EE411AB8EE400A21EE811A15
:1028200020EE800ABCEEC11ABCEEC00A11EE101AEE
:1028300010EE103A401AC01A42081344194478E0C6
:1028400060EE011A01EE100A50EE480A00EE100A7E
:10285000B8EE411AB8EE400A21EE811A20EE800A45
:10286000BCEEC11ABCEEC00A11EE101A10EE103AFE
:10287000401AC01A420811440B445AE001EE100AF3
:1028800050EE080AB8EE411A60EE810AFCEEE00A4A
:1028900010EE903A60EE210A00EE100AC01AB8EE6F
:1028A000400A20EE800ABCEEC00A10EE102A801A00
:1028B00041080A4413443CE0F1EE601A01EE100AAC
:1028C00040EE481A40EE480A00EE100AB8EE411AEF
:1028D000B8EE400A21EE811A20EE800ABCEEC11A41
:1028E000BCEEC00A11EE103A10EE102AC01A801A7F
:1028F00041080B441A441CE060EE211A01EE100A54
:1029000040EE080A00EE100AB8EE411AB8EE400A8E
:1029100021EE811A20EE800ABCEEC11ABCEEC00A7C
:1029200011EE102A10EE101A801A401A43081944AA
:102930000A44C4F85CC03088344640F0020030805D
:102940007363B263F163308820F00200308028792D
:1029500000281EBF03B0BDEC048BF0BD6022002137
:102960003046FFF78CF9012200212046FEF74CFF8C
:10297000042200212046FEF754FF60220421204655
:10298000FFF77DF9012204212046FEF73DFF0422D6
:1029900011462046FEF745FF602208212046FFF73A
:1029A0006EF9012208212046FEF72EFF042208219D
:1029B0002046FEF736FF0120287103B0BDEC048BE2
:1029C000F0BD00001549DFED141A9FED152A886B44
:1029D00021EE211A0A78D0ED301AB0EEC11A61EE5C
:1029E000821A90ED302A62B172EE211AF4EEC11A09
:1029F000F1EE10FA3EBF002008707047B0EE600A9A
:102A0000704772EE611AF4EEC11AF1EE10FAC4BF0B
:102A100001200870F2DC7047EBC9184170000020FB
:102A2000CDCC4C3D00EE100AF2EE040AB8EE400A9E
:102A300020EE200ABCEEC00A10EE100AFEF750BAD3
:102A400070B5002082B00324CDE90040214E03463A
:102A500002464FF400613046FDF770FE0125002369
:102A60002A46A9023046CDE90045FDF767FE01225E
:102A7000002351023046CDE90045FDF75FFE0122FB
:102A8000002311033046CDE90045FDF757FE6420D1
:102A9000FFF7C8FF4FF48661022000F079F84FF489
:102AA0008661022000F074F8022000F023F800F0A4
:102AB0003F0040F04001022000F06AF8022000F0E0
:102AC00019F802B040F00401BDE87040022000F0A7
:102AD0005FB800000008024010B5002000F00AF8BE
:102AE0000446012000F006F8C0F3C01044EA0010CC
:102AF00010BD000070B54FF4004100F00F0241EA34
:102B0000C22148F27F02104D41EA020450B169151A
:102B10002846FDF711FE204601F0D8FE691528462B
:102B2000FDF75CFE4FF400712846FDF705FE4FF6F9
:102B3000FF7001F0CBFE04464FF400712846FDF70C
:102B40004DFE204670BD00000008024010B504464E
:102B50000220FFF7CFFF04F01F0100F03F0040EA22
:102B60008111BDE81040022000F012B810B50446F3
:102B70000220FFF7BFFF4FF6CF71084004F00301BA
:102B800040EA0111BDE81040022000F001B8000049
:102B900070B5002200F00F0042EAC020C1F30A0124
:102BA00041EA0004074D4FF400712846FDF7C4FDCB
:102BB000204601F08BFE69152846BDE87040FDF700
:102BC0000DBE000000080240014800787047000078
:102BD00000000020F0B5002485B003251F4FCDE98B
:102BE00000542346224680213846FDF7A7FD0126E2
:102BF000CDE900560023324640213846FDF79EFDC0
:102C0000CDE900560122002311023846FDF796FD5A
:102C100001210220FEF7CAFBADF80840ADF81040D4
:102C2000ADF80A408DF8124041F267000C4C039059
:102C300002A92046FFF766F8012211462046FEF75A
:102C4000FBFE01212046FEF7FCFD06211D2001F0C0
:102C500033FD0448067005B0F0BD000000080240D6
:102C60000004004000000020014890ED010A704778
:102C7000000000202DE9F04F324F83B04FF48071F7
:102C80003846FDF759FD0DF108094FF0010A0026FD
:102C90004FF6FF780024254600BF00BF00BF00BFED
:102CA00040213846FDF79AFD00BF00BF00BF00BFBE
:102CB00080213846FDF739FD019000BF802138465C
:102CC000FDF733FD009000BF80213846FDF72DFD54
:102CD0000246DDE9001008EA440401F0D0FF0028B4
:102CE00018BF44F0010440213846FDF725FD00BF20
:102CF00000BF00BF00BF6D1C102DCDDBB9F1000F70
:102D000018BF29F81640761C5645C3DB4FF4807176
:102D10003846FDF763FDBDF80800DFED0B0AC0F390
:102D20000D0000EE100A0A48B8EE400A20EE200A14
:102D3000DFED060A20EE200A80ED010A03B0BDE8AF
:102D4000F08F0000000802400000B443000080380B
:102D5000000000202DE9F041012182B00846FEF775
:102D600019FB01210220FEF715FB01210420FEF7CB
:102D700011FB01210820FEF70DFB00246A4F00948F
:102D800023460122072138460194FDF7D7FC01268E
:102D90000325CDE900560023324620213846FDF7B1
:102DA000CDFC20213846FDF719FDDFF88081CDE903
:102DB000005402220023D1014046FDF7BFFC01224E
:102DC00008214046FDF79EFCCDE900540222002375
:102DD00011024046FDF7B2FC012209214046FDF7F1
:102DE00091FCCDE900540222002351024046FDF738
:102DF000A5FC01220A214046FDF784FCCDE90054E0
:102E00000222002311033846FDF798FC01220D2110
:102E10003846FDF777FCCDE9005402220023510328
:102E20003846FDF78BFC01220E213846FDF76AFC7F
:102E3000CDE900540222002391033846FDF77EFCC1
:102E400001220F213846FDF75DFC002300961A464B
:102E5000802138460196FDF771FCCDE9005400232E
:102E6000032201214046FDF769FCCDE9005400230F
:102E7000032202214046FDF761FCCDE90054002306
:102E8000032204214046FDF759FCCDE900540023FC
:102E9000032208214046FDF751FCCDE900540023F0
:102EA000032220214046FDF749FCCDE900540023D0
:102EB000032240214046FDF741FC1D4ECDE9005460
:102EC0000023032201213046FDF738FCCDE90054F0
:102ED0000023032202213046FDF730FCCDE90054E7
:102EE0000023032204213046FDF728FCCDE90054DD
:102EF0000023032208213046FDF720FCCDE90054D1
:102F00000023032210213046FDF718FCCDE90054C0
:102F10000023032220213046FDF710FC02B0BDE85B
:102F2000F041FFF78DBD00000004024000000240A8
:102F30000008024070B54A4C01231A460021204681
:102F4000FDF7CEFA012302220A212046FDF7C8FA36
:102F50000123032205212046FDF7C2FA01230422A2
:102F60000E212046FDF7BCFA01230522112120463F
:102F7000FDF7B6FA01233B4D1A4619462846FDF7E0
:102F8000AFFA012302220B212846FDF7A9FA0123FB
:102F9000032206212846FDF7A3FA012304220F216C
:102FA0002846FDF79DFA0123052200212846FDF75A
:102FB00097FA2D4E01231A4602213046FDF790FA6A
:102FC000012302220C213046FDF78AFA0322012355
:102FD00011463046FDF784FA012304220D213046C4
:102FE000FDF77EFA0123052219463046FDF778FAEF
:102FF00001231A460A212046FDF736FA01231A4614
:103000000B212846FDF730FA01231A460C213046E1
:10301000FDF72AFA012302220A212046FDF724FAAD
:10302000012302220B212846FDF71EFA012302226A
:103030000C213046FDF718FA012303220A2120460D
:10304000FDF712FA012303220B212846FDF70CFAA3
:103050003046BDE87040012303220C21FDF704BA7D
:1030600000200140002101400022014010B500EE87
:10307000100AFEF76BFF10EE100A10BD00B5CBB0C2
:10308000FEF72EFAFFF766FE6846FFF741F868463E
:1030900000F002F9FDF7AAFB3C23054A0021054890
:1030A000FDF70CFDFDF7E8FC4BB0002000BD000073
:1030B0007C050020E91D00082DE9F04F684D04460D
:1030C0002DED088B85B0A868DFF898B1A04201BF4C
:1030D000DBF81001286105B0BDEC088B08BFBDE826
:1030E000F08F00F0B7FD00287ED0A86800287BD1C3
:1030F000FDF78EFC5C48006800905C48016C019113
:10310000C06A0290FDF79AFC00F04AFBF0EE408A9C
:1031100000F05CFB5648B0EE409AC08A00EE100A00
:10312000B8EE400ADFED530A20EE200ADFED520A26
:1031300060EE20AA00F004FB9BF81C01F0EE400AB0
:10314000002814BFBFEE000AB7EE000A60EE209A16
:1031500000F008FB9BF81C01F0EE400A002814BFA9
:10316000BFEE000AB7EE000A20EE20AA002000F011
:103170000BFB9BF81C11002914BFBFEE000AB7EE31
:10318000000A00EE900A6F69F8EEE00A20EE200ACD
:10319000BDEEC08A3648DDE90089008ADDF808A066
:1031A000002600EE100A9FED351AB8EE400AC1EE77
:1031B000000A9FED330A30EEC00ADFED320A20EE3E
:1031C000200A10EE100AFDF765F841EC100BFFF72E
:1031D0004DFF00EE100A9FED2C1AF8EEC00A9FED8D
:1031E0002B0A00EE810A00E02EE0B7EE001A032C55
:1031F000C1EE000A9FED260A30EEC0BA02D1FFF7F9
:103200006BFC0390E968234AC1EBC100491C02EB47
:10321000C000E9600460C0ED018A80ED029AC0ED53
:1032200003AAC0ED049A80ED05AA80ED068AC76165
:10323000039AC0E90AA6C0E9088980ED0CBA426386
:10324000E8681928A8BFEE60DBF81001286100F0DB
:1032500007FDAC6005B0BDEC088BBDE8F08F000049
:1032600008000020A01D002034040140000001409F
:10327000801D00206740533A74D195413C361C4C68
:1032800000401C4617B7D138631D9B390FCF5B3BFD
:1032900033938843C81E002010B5044690ED000A01
:1032A000B54880ED000A94ED010A80ED010A94ED25
:1032B000020A80ED020A94ED030A80ED030A94ED00
:1032C000040A80ED040A94ED050A80ED050A94EDE8
:1032D000060A80ED060A94ED070A80ED070A94EDD0
:1032E000080A80ED080A94ED090A80ED090A94EDB8
:1032F0000A0A80ED0A0A94ED0B0A80ED0B0A94EDA0
:103300000C0A80ED0C0A94ED0D0A80ED0D0A94F87C
:10331000381080F8381094ED0F0A80ED0F0A94ED04
:10332000100A80ED100A94ED110A80ED110A94ED57
:10333000120A80ED120A94ED130A80ED130A94ED3F
:10334000140A80ED140A94ED150A80ED150A94ED27
:10335000160A80ED160A94ED170A80ED170A94ED0F
:10336000180A80ED180A94ED190A80ED190A94EDF7
:103370001A0A80ED1A0A94ED1B0A80ED1B0A94EDDF
:103380001C0A80ED1C0A94ED1D0A80ED1D0A94EDC7
:103390001E0A80ED1E0A94ED1F0A80ED1F0A94EDAF
:1033A000200A80ED200A94ED210A80ED210A94ED97
:1033B000220A80ED220A94F88C1080F88C1094ED8B
:1033C000240A80ED240A94ED250A80ED250A94ED67
:1033D000260A80ED260A94ED270A80ED270A94ED4F
:1033E000280A80ED280A94ED290A80ED290A94ED37
:1033F0002A0A80ED2A0A94ED2B0A80ED2B0A94ED1F
:103400002C0A80ED2C0A94ED2D0A80ED2D0A94ED06
:103410002E0A80ED2E0A94ED2F0A80ED2F0A94EDEE
:10342000300A80ED300A94F8C41080F8C41094F883
:10343000C51080F8C51094ED320A80ED320A94F878
:10344000CC1080F8CC1094ED340A80ED340A94ED61
:10345000350A80ED350A94ED360A80ED360A94ED92
:10346000370A80ED370A94ED380A80ED380A94ED7A
:10347000390A80ED390A94ED3A0A80ED3A0A94ED62
:103480003B0A80ED3B0A94ED3C0A80ED3C0A94ED4A
:103490003D0A80ED3D0A94ED3E0A80ED3E0A94ED32
:1034A0003F0A80ED3F0A94ED400A80ED400A94ED1A
:1034B000410A80ED410A94ED420A80ED420A94ED02
:1034C000430A80ED430AD4F81011C0F8101194EDAE
:1034D000450A80ED450A94ED460A80ED460A94F8C7
:1034E0001C1180F81C11D4F82011C0F82011D4F858
:1034F0002411C0F82411214800218160C1600161BC
:103500004161017041709FED1E0A4FF47A7280EDA7
:10351000060A80ED070A80ED080A80ED090A80EDB1
:103520000A0A80ED0B0A80ED0C0A80ED0D0A80ED91
:103530000E0A80ED0F0A80ED100A80ED110A80ED71
:10354000120A80ED190A80ED130A80ED140A426513
:1035500001228265C1650166D4F82001FFF706FBF0
:10356000D4F82401FFF7F2FAFFF734FBBDE810406E
:10357000014800F047B90000A01D0020080000200D
:103580000000000070B55F482DED028BC08A00EE90
:10359000100AB8EE400ADFED5C0A20EE200ADFEDEB
:1035A0005B0A5B4D002620EE200AD5ED0A0A594C35
:1035B000F4EEC00AF1EE10FA08DCD5ED0B0AF4EED9
:1035C000C00AF1EE10FA28BF66600FD26068401C96
:1035D000606008280ADBD5ED0A0AB4EEE00AF1EED5
:1035E00010FA34BF02200120FFF766FD00F0C6F894
:1035F000022818BF66615CD000F0E8F8B0EE408A9F
:1036000000F0FAF8F0EE400A94ED060A30EE080AEF
:10361000B7EE008A84ED060A94ED070A30EE200A20
:1036200084ED070A94ED080A30EE080A84ED080AD2
:1036300094ED090A30EE080A84ED090A00F086F8D4
:10364000D4ED0A0A30EE200A84ED0A0A00F084F86C
:10365000D4ED0B0A30EE200A84ED0B0A94ED0C0A2F
:1036600030EE080A84ED0C0A94ED0D0A30EE080ADB
:1036700084ED0D0A00F094F800F056F810EE104AB0
:1036800000F058F895F83800B8B110EE100AFCF7C1
:1036900001FE41EC100B20F0004000EE100AD5EDC9
:1036A000040AB8EEC00AB4EEE00AF1EE10FA19DD31
:1036B00015E06069401C60619EE72046FCF7EAFD6A
:1036C00041EC100B20F0004000EE100AD5ED040A8A
:1036D000B8EEC00AB4EEE00AF1EE10FA02DD042002
:1036E000FFF7EAFC80210C48FDF71FF800281CBFFB
:1036F000BDEC028B70BD0320BDEC028BBDE87040B9
:10370000FFF7DABC801D00206740533A74D1954121
:10371000A01D00200800002000040240014890ED98
:10372000140A704708000020014890ED070A70470E
:103730004C240020014890ED080A70474C240020DA
:10374000014890ED030A70474C240020014890ED99
:103750000F0A70474C240020014890ED100A704772
:103760004C2400200348DFED040A90ED260A20EEE9
:10377000200A704770000020EBC918410148C06B57
:10378000704700007000002004490200D1F89C003E
:103790001CBF0022C1F89C20704700007000002070
:1037A000094991ED140AB5EEC00AF1EE10FA34BFE2
:1037B0004FF0FF30012000EE100AD1ED100AB8EEF4
:1037C000C00A20EE200A70474C240020094991EDE0
:1037D000140AB5EEC00AF1EE10FA34BF4FF0FF3014
:1037E000012000EE100AD1ED120AB8EEC00A20EE58
:1037F000200A70474C240020014890ED090A7047C8
:103800004C2400202DE9F04FA7B00646FDF700F943
:10381000FE4D00246C70AE63EC634FF00509C5F8F3
:1038200040906C64AC64EC642C65AC70EC709FED03
:10383000F80A85ED180A85ED190A85ED1A0A85ED55
:103840001B0A85ED1C0A2C7185ED1D0A85ED1E0AEB
:1038500085ED1F0A85ED200A6C7185ED210A85ED45
:10386000220A85ED230A85ED240A85ED250A85EDDA
:10387000260AC5F89C40C5F8A04085ED290A85EDCB
:103880002A0A85ED2B0A6021E248FCF7F8FCDFF8F4
:1038900088834046FDF7E9FFE048FDF7E6FFC8F8FA
:1038A0002440DF48046001210846FDF797FDADF88C
:1038B0006C402020ADF86E00A86BDFF868A31BA950
:1038C00090ED200AADF874408DF87640BDEEC00A48
:1038D00010EE100A9AFBF0F01C904046FEF712FA28
:1038E00001264FF0600BADF800B00420ADF8026087
:1038F000ADF80400D8F82C00370240080290ADF86B
:1039000010707002ADF80C40ADF81200ADF80E402A
:1039100069464046FEF798F869464046FEF7CEF8FD
:1039200069464046FEF717F969464046FEF75BF9DF
:1039300008214046FEF7BCF808214046FEF701F991
:1039400008214046FEF749F908214046FEF77FF975
:10395000F002ADF878004010ADF87A00ADF87C4088
:103960003C20ADF87E00ADF880407003ADF88200D9
:10397000ADF884401EA94046FDF72BFF01214046CB
:10398000FDF739FF01214046FDF71AFF0121A64846
:10399000FDF700FD01214FF4E060FDF71FFD03215D
:1039A0003C2000F089FEA1480790A14805A9CDE977
:1039B00005400F20CDE90840B002CDE90A404000A3
:1039C0000C908000CDE90D070001CDE90F041194A2
:1039D000129498481394FCF759FE01219548FCF77E
:1039E00003FE012210219348FCF738FE1620CDE992
:1039F0002204B003CDE9240422A8FCF7F7FC7007E9
:103A0000CDE91446CDE916404FF05060CDE91804D9
:103A10008DF8689014A98848FCF7FEFCDFF81C922A
:103A2000179414A948461894FCF7F6FC14A9844886
:103A3000FCF7F2FC0120FCF79BFD0120FCF742FDA6
:103A4000FFF778FA01217C48FCF7C6FC01214846C3
:103A5000FCF7C2FC01217A48FCF7BEFC01210220E0
:103A6000FDF7BCFCADF86C40ADF86E40A86B1BA92F
:103A700090ED200AADF874408DF87640BDEEC00A96
:103A800010EE100A9AFBF0F01C906448FEF73AF929
:103A90004FF4FA700290ADF810707002ADF800B0FB
:103AA000ADF80C40ADF81200ADF80260ADF80E4074
:103AB00069465A48FDF7C8FF08215848FDF7F8FF46
:103AC00069465648FDF7FAFF08215448FEF739F8D1
:103AD00069465248FEF73FF808215048FEF77DF846
:103AE00001214E48FDF76CFE01214C48FDF783FE95
:103AF00001214A48FDF7AEFE20214046FEF7F2F8CC
:103B000080214046FEF7B3F800214448FEF7A9F8AB
:103B100004214248FEF7EEF801214046FDF791FEF0
:103B200001213E48FDF78DFE01214046FDF792FE42
:103B300000F038FF4349022008600146012237485F
:103B4000FDF77AFF06212E2000F0B6FDFCF776FF88
:103B50003D4D20212846FCF741FE80212846FCF7F8
:103B6000E4FD002804BF41F28835374F0BD1012016
:103B7000FEF758FF641CAC4205DC80213846FCF798
:103B8000D4FD0028F3D04FF47A70FEF74BFF1F4CA2
:103B900000256564A564E5642565206DB0F57A6F40
:103BA000FBDB606C216D90FBF1F06065A06C216D1A
:103BB00090FBF1F0A065E06C216D90FBF1F0E06509
:103BC000A67001210820FDF7F1FB42F6DF601C9092
:103BD0000620ADF86C00ADF87450ADF86E501B4D7A
:103BE0001BA92846FEF78EF819490A8842F00102FF
:103BF0000A800721322000F05FFD01212846FDF7F1
:103C000020FE667027B0BDE8F08F00007000002035
:103C1000000000004C24002000000140000401408E
:103C200024040140007A030A05004000801D0020A2
:103C3000082301407064024000200140002101403F
:103C4000002201403404014000040240000C004006
:103C50000C0C004001488078704700007000002084
:103C60000E489FED0D0A816BD1ED410AF4EEC00ABA
:103C7000F1EE10FA05DD052101640021C16300F0B9
:103C800091BE0121016480ED1B0AC16B02291CBF9A
:103C90000221C16370470000000000007000002096
:103CA0002DE9F041FC4E00202DED0C8B86B03060EC
:103CB000FA4F3888FA4D012121EA1012A86B90F8CA
:103CC000C41031B9002A1EBF06B0BDEC0C8BBDE894
:103CD000F081DFF8D083B8F80610B8F80830B8F8EB
:103CE0000AC06C6C0C446C64AC6C1C44AC64EC6C32
:103CF0006444EC646C6D0C1BA96D5B1AE96DACEB54
:103D0000010C296D491C2965E7490C604B60C1F81D
:103D100008C090F8C530002B44D00A6800EE102A85
:103D20004A68B8EEC00AB0EEC01A00EE102A8A68DF
:103D3000B8EEC00AF0EEC00A00EE102AB4EEE01AA7
:103D4000B8EEC00AB0EEC00AF1EE10FAC4BFB4EE8D
:103D5000C01AF1EE10FA05DD4A688B681A44524227
:103D60000A6054E0F4EEC10AF1EE10FAC4BFF4EEBA
:103D7000C00AF1EE10FA05DD0A688B681A44524257
:103D80004A6044E0B4EEC10AF1EE10FAC4BFB4EEEA
:103D9000E00AF1EE10FA3ADD0A684B681A44524222
:103DA0008A6034E090F8C430002B18BF002A7A6B88
:103DB000BB6B16D09A4203D27A6BFB6B9A42CBD381
:103DC000BA6B7B6B9A4203D2BA6BFB6B9A42D3D32A
:103DD000FA6B7B6B9A421AD2FA6BBB6B9A4216D281
:103DE000DAE79A4203D97A6BFB6B9A42B4D8BA6B82
:103DF0007B6B9A4203D9BA6BFB6B9A42BCD8FA6BC5
:103E00007B6B9A4203D9FA6BBB6B9A42C4D80A689F
:103E100000EE102AF8EEC00A9FEDA40A496860EE91
:103E2000808A00EE901A90F8C410F8EEE00A60EE76
:103E300080BAF7EE00AA002911BF90ED200AD0ED5C
:103E4000200AB6EE000A20EE800A8AEE809A984C8C
:103E5000B8F81600D4ED0A0A00EE100AB8EE400ACF
:103E6000DFED94CA20EE2C0A9FED93CA40EE4C0A77
:103E700094ED0A0A9FED91DA00EECD0A84ED0A0A6C
:103E8000DFED8F9AFEF7F0FEB0EE40AA8DED01AAAD
:103E9000A86B90F88C1039B1B0EE4A0ADFED890AB0
:103EA00030EEC00A8DED010A90ED240ADDED010A25
:103EB0002F4620EE200AD0ED220A01A830EE600A3B
:103EC0008DED010A00F0F0FE9DED010ADFED7E0AA6
:103ED00020EE200A87ED210A94ED040AD7ED020AAC
:103EE00000F0BEFDB0EE408A94ED040A87ED020AB0
:103EF000F86BDFED761A9FED76BA02287ED0B8F81F
:103F0000000000EE900AFBEECA0A9FED720AB8F8B4
:103F1000020060EE800A20EE8C1A00EE900AB8F8DB
:103F20000400FBEECA0A60EE800A60EE8C0A02EE24
:103F3000100ABBEECA2A22EE000A20EE0C0A9FED00
:103F4000668A21EE081A9FED652A694602A800EEEE
:103F5000C21A60EEA10A40EE610A00EE421A84ED38
:103F60000B1AC4ED0C0A94ED040A00F0DDFDD4ED4B
:103F70000B0A9DED000AD4ED0C1A20EE801ADDED3F
:103F8000020A00EEA11AD4ED0C1A61EE801A94ED2B
:103F90000B0A40EEC01A94ED130AD4ED130AB4EEE6
:103FA000600AF1EE10FA0CBF94ED130AB0EE690A44
:103FB00084ED130A94ED140AD4ED140AB4EE600AE9
:103FC000F1EE10FA14BFB0EE690A94ED140A84ED14
:103FD000140A94ED130AD4ED130A30EE411A9FED42
:103FE000400A41EE400AC4ED130A94ED141AD4EDD0
:103FF000140A31EE611A41EE400A00E074E0C4EDAB
:10400000140A94ED130A374A84ED150A94ED140A44
:1040100002F1140184ED160AD4ED0A0A94ED130A94
:10402000081F60EE880AB0EE492A80EE201A84ED5F
:104030000D1AD4ED0A0A94ED140A60EE880A80EE97
:10404000201A84ED0E1AC4ED059AC4ED069AC4ED4B
:104050000F9AC4ED109AC4ED119AC4ED129AC4EDF2
:10406000099AC4ED079AC4ED089AD4ED061A94EDA6
:10407000051AD4ED0C0A94ED0B0A00F02FFB97ED16
:10408000261AD7ED210A97ED1F0AFEF79BFC84ED57
:10409000040A00F088B90000241800400000014024
:1040A00070000020801D002040240020500AA53D03
:1040B0004C2400206740533A74D19541CDCCCC3D7F
:1040C000000000000000B44335FA8E3C3ACD133FA7
:1040D0003ACD933F33335340ABAA2A3FABAAAA3E13
:1040E000CDCC4C3EEC00002028EEA10AC4ED058AA0
:1040F0000BEE8B0A84ED060A94ED030AF0EEC0BACB
:1041000097ED1A0A8DED020A97ED1B0A8DED000A54
:10411000B86B90ED150A84ED020AD4ED030A97ED11
:10412000040A70EE600A00EECD0AF7EE000A87ED91
:10413000040ABFEE000AFE4800F026FED7ED198AF9
:10414000386C002814BF00200120396C04290BD1E1
:1041500097ED040AF74AB0EEC00A10EE101A914229
:10416000BCBF0120F0EE698A396C02290ED1B96B0F
:1041700097ED1E0AD1ED3A0AB0EEC00AB4EEE00A9D
:10418000F1EE10FA38BFF0EE698A00D3F0B3B0EE6A
:10419000E80ADFEDE90A7BEEE00AB4EEE00AF1EEB0
:1041A00010FA19D394ED140AB5EEC00AF1EE10FA24
:1041B00034BF4FF0FF30012000EE100AD4ED100A9A
:1041C000B86BB8EEC00A20EE200AD0ED190AB4EEA2
:1041D000E00AF1EE10FA42D2B8F8160000EE100A2A
:1041E000B86BB8EE400A90ED2C1A20EE2C0A60EE67
:1041F0000C0A8AEEA00AD4ED030A78EEE00A60EE1B
:10420000801A21EE218A90ED2D1A00E035E061EE52
:10421000200A29EE001A97ED050AC84800EE810A27
:10422000F7EE000A87ED050ABFEE000A00F0ACFDCC
:1042300097ED050AF7EE000A05A838EE000A8DEDA5
:10424000050ABFEE000A00F09FFDB86BDDED050A20
:1042500090ED180A20EE200A8DED000A25E0F5EE1B
:10426000C08AC7ED059AC4ED028AF1EE10FA90ED0E
:10427000180AD8BFB1EE400AEEE7386C042814D112
:104280009DED000AB5EEC08AB0EEC00AF1EE10FA5C
:104290008DED000AC8BFB1EE400ADDDCB5EEC08A84
:1042A000F1EE10FA08BFCDED009AF87878B9A44A7B
:1042B000D4ED061A02F1140194ED051AD4ED0C0A9E
:1042C00094ED0B0A081FB0EE492A00F007FA97EDAB
:1042D000261AD7ED210A97ED1F0AFEF773FB84ED2E
:1042E000040AF878002808BFCDED029AF878002873
:1042F0001CBF97ED180A84ED040A94ED0E8A9149CB
:1043000018EE100A88420CDDB86B90ED1A0A90ED99
:104310001B1A6846C0EE080A81EE080A00F034FD58
:1043200010E018EE100A884988420BD9B86B90ED5E
:104330001B0A90ED1A1A6846C0EE080A81EE080AB8
:1043400000F022FDB5EEC08AB86BF1EE10FA07DD81
:10435000D0ED180A90ED190A684600F015FD0AE044
:1043600090ED190AF1EE400A90ED180A6846B1EE98
:10437000400A00F009FDB86BD0ED190A90ED180A5B
:1043800000F071FC694602A800F0D0FC9DED020A25
:104390006E4884ED000A9DED000A84ED010AB0EE3E
:1043A000490AFEF709F894ED0D0AD4ED0D0A94EDD3
:1043B0000E1A20EE200AD4ED0E0A00EE810AF1EE6C
:1043C000C00A94ED140AB5EEC00AF1EE10FA34BF3B
:1043D0004FF0FF30012000EE100A5D4DB8EEC00A2C
:1043E00020EE800A20EE0B0A84ED030A95ED000A08
:1043F00095ED001AD4ED040AB4EE410AF1EE10FA7C
:1044000014BFB0EE690A95ED000A85ED000A95ED3E
:10441000000A684630EEC00A8DED000A00F060FC2C
:10442000DFF8308198ED000AD8ED000AB4EE600A9A
:10443000F1EE10FA14BFB0EE690A98ED000A88EDAB
:10444000000AB86B98ED000A9DED001AD0ED2A0A1B
:10445000284600EE810AD5ED000AB0EE491A40EE7A
:10446000010AC5ED000A00F03BFCDDED001AB86B57
:10447000F0EE490A98ED000A61EEA00A90ED2B1AC1
:1044800003A801EE200A88ED000A94ED040A8DEDE0
:10449000030A00F025FC9DED030ADFED2F0A30EE44
:1044A000200ADFED2E0A20EE200AF1EE080A20EEA7
:1044B000200AFDF7BBFCBDEEC00A052200218DEDF0
:1044C000040A04A800F08AFC0499F868F960081A44
:1044D0000328C8BF801F03DC10F1020FB8BF801D86
:1044E000D7F89C100144C7F89C100028D8BF404260
:1044F000D7F8A0100844C7F8A000B86B184A90ED90
:104500003F0A10EE101A914209DD90ED3F0A15495D
:1045100010EE100A8142C8BF87ED2AAA32DCD7ED1F
:10452000060AB0EE4A0A00F079FA87ED06AA1BE007
:10453000800000208FC2F53CCDCC4C3D8400002093
:10454000EC0000206F12833A6F1283BA4C240020D3
:104550000401002008010020DB0F494083F9223EBE
:1045600048E17A3F5C8F823FB86BD0ED3F0A4E48FE
:1045700080EE201A97ED2A0A31EE000A87ED2A0A0A
:1045800000F092FBF86B022811D0FEF7FBFF3068B9
:1045900000EE100AB8EE400ADFED440A20EE200AD1
:1045A00087ED290A06B0BDEC0C8BBDE8F081D7ED94
:1045B0002A0A97ED1D0A386C03281CBFC7ED0A9A1A
:1045C000C7ED0B9AE1D100F029FAB86BB0EE408A42
:1045D00090F88C10002918BFB1EE488A90ED3B0A84
:1045E00028EE091A20EE080A8DED000AD0ED3C0AEB
:1045F00097ED0A0A00EE810A87ED0A0A97ED0C0A88
:1046000030EE090A87ED0C0AD7ED0B0AB4EE608A8A
:10461000F1EE10FA08BFF0EE698A09D0D0ED3D1A2C
:10462000C7ED0C9A81EE801A38EE600A61EE008ABE
:1046300097ED0D9A90ED3E0A684679EE680A00EE15
:10464000609AB7EE000A87ED0D9A00F0B3FB9DED7E
:10465000000A1748B0EEC00A3AEEC00A00F0AAFB02
:1046600087ED0B8A9DED000AD7ED0A0A02A830EE0D
:10467000200AF7EE000A30EE090A8DED020ABFEEBD
:10468000000A00F081FBFEF79FFA0028B86B90ED5E
:10469000180A14BFDDED020ADFED060A20EE200A3B
:1046A00087ED1B0A71E700001801002095BFD63383
:1046B00098000020CDCCCC3E00F1E022090182F828
:1046C000001400F01F02012191404009800000F118
:1046D000E020C0F88012C0F800117047F0B5744EA9
:1046E00005462DED0A8BB0EE60BAF0EE40BAB7EE9B
:1046F000080A0C46B0EE42CAB06B6E49B0EE61AA31
:10470000D0ED250AD0ED279AF0EE41AA60EE808A1E
:10471000D0ED260A81B0174620EE808A91ED100A6E
:10472000D1ED140A20EE200AB5EEC00AF1EE10FA1F
:10473000ACBFB7EE000ABFEE000A91ED081AD0ED4B
:10474000001AC1EE210A20EE800AD0ED320A60EE96
:10475000880A00EEC08AFEF7E1FFB06B90F8CC103B
:1047600071B110EE101A544A914209D2DFED530A8A
:1047700090ED341A68EE200A30EE410A00EE808A8D
:1047800028EEAA9A96ED2B1AF6EE001A68EE8A8A9F
:1047900028EE2A0A68EE0A0A29EEA9AA61EE21AAE1
:1047A0009FED471A00266CEE019A9FED461A7BEEAC
:1047B000C0BA3BEE60BA6AEE01CAB2EE041A2AEE43
:1047C00081CA95ED000AD5ED000A94ED001A30EE8D
:1047D000490A70EEC90A31EE681AB0EE6A8A684674
:1047E00020EE200AD4ED000A70EEE80A00EE810AFD
:1047F0003AEE400A8DED000AB0EE6C0A00F0DAFAEB
:10480000002818BFB0EE4C8AB0EE6B1A95ED000A86
:10481000DDED000AF0EE4B1A30EE490A761C062E4A
:1048200020EE080A00EE201A94ED000A30EE680A25
:1048300020EE080A40EE201A95ED000A01EE290A42
:1048400085ED000A94ED000A01EEA90A84ED000A44
:10485000B7DBD5ED000A95ED001A9FED1B0AF4EECB
:10486000410AF1EE10FA14BFF0EE400AD5ED000A4D
:10487000C5ED000AD4ED000A94ED001AF4EE410AE9
:10488000F1EE10FA08BF94ED000A84ED000A95EDF0
:10489000000A70EE490A94ED000A30EE680A00F052
:1048A00001F987ED000A01B0BDEC0A8BF0BD0000F4
:1048B000700000204C2400200000A0C00EF87C3BBB
:1048C000ABAA2A3ECDCC4C3E000000002DE9F14FB2
:1048D00086B003A8029001200027DFF8C4900DF1F4
:1048E000180B4FF6FF7AB8460490BBF1000F14BFC7
:1048F0003BF817504FF6FF7500242646EA0B4FF49D
:1049000080514846FBF76CFF0AEA45054FF4806189
:104910004846FBF763FFCDF8008000BF0098401CBD
:1049200000900A28F9DB4FF480614846FBF704FF4A
:104930004FF400614846FBF7F8FE019000BF4FF4CA
:1049400000614846FBF7F1FE009000BF4FF40061A4
:104950004846FBF7EAFE0246DDE900100AEA440495
:1049600000F08DF9002818BF44F00104CDF8008054
:1049700000BF0098401C00900A28F9DB761C102E1E
:10498000BCDB0298002818BF20F817407F1C049851
:104990008742AADBBDF80C0007B0BDE8F08F00002D
:1049A0000008024010B51B4C402200212046FDF7B4
:1049B00066F9012200212046FCF726FF002211465D
:1049C0002046FCF72EFF402204212046FDF757F930
:1049D000012204212046FCF717FF00220421204673
:1049E000FCF71FFF402208212046FDF748F901226D
:1049F00008212046FCF708FF002208212046FCF78A
:104A000010FF20212046FDF70AF803490020087115
:104A100010BD0000000001407000002030EE600A70
:104A20000C48DFED0D0A10EE101A814205D930EE68
:104A3000200A10EE101A8142F9D810EE101A074819
:104A40008142D8BF704730EE600A10EE101A8142E2
:104A5000F9DC7047000034C30000B4430000344365
:104A600030EE600A0C48DFED0D0A10EE101A81429C
:104A700005D930EE200A10EE101A8142F9D810EE56
:104A8000101A07488142D8BF704730EE600A10EE16
:104A9000101A8142F9DC7047DB0F49C0DB0FC940B7
:104AA000DB0F4940DFED1B1AB0EEC01A9FED192A4B
:104AB00071EE211AB0EEC01ADFED172A31EE021A9C
:104AC0009FED162AF5EEC00A30EE811AF1EE10FACB
:104AD0000ADB70EEE10AC0EE811A61EEA10A10EE67
:104AE000A22ADFED0F0A09E071EEE00AC1EE201AFA
:104AF00061EEA10A10EEA22ADFED0A0AB5EEC00AA5
:104B000042EE210AF1EE10FA34BFB1EE600AB0EEC7
:104B1000600A704708E53C1EDE02493EB1507B3F0B
:104B2000DB0F493FE4CB164010EE103A404A9FEDB0
:104B3000411A934205D930EE010A10EE103A934221
:104B4000F9D810EE103A3C4A934205DD30EE410AA6
:104B500010EE103A9342F9DCB5EEC00ADFED372AC9
:104B60009FED372ADFED371AF1EE10FA60EE220AD8
:104B700020EE023A09D243EE000AC0ED000AF5EE3B
:104B8000C00AF1EE10FA12D208E043EE400AC0ED7E
:104B9000000AF5EEC00AF1EE10FA08D220EEE03A73
:104BA00033EE603A43EE210AC0ED000A07E0B0EEB2
:104BB000603A10EEA03A43EE210AC0ED000ADFEDA4
:104BC000220A30EE200A10EE100A9042C8BF30EEE2
:104BD000410AB5EEC00AF1EE10FA60EE220A20EEAC
:104BE000021A1AD241EE000AC1ED000AF5EEC00A1F
:104BF000F1EE10FA08D220EEE00A30EE600A40EE44
:104C0000210AC1ED000A7047B0EE600A10EEA00A5A
:104C100040EE210AC1ED000A704741EE400AC1EDA5
:104C2000000AF5EEC00AF1EE10FAEDD2E3E700005B
:104C3000DB0F49C0DB0FC940DB0F494083F9A23FBE
:104C40007B81CF3E6666663EDB0FC93F30EE600A71
:104C500032EE612A31EE601A20EE020AC0EE010A3D
:104C600030EEA10A7047B0EEC01AF0EEE01AB4EED2
:104C7000E11AF1EE10FAD8BFB0EE600A7047884230
:104C8000D8BF904205DC8A4201DB084670471046D7
:104C900070478142D8BF914203DC8242A8BF70476F
:104CA000F5E78842F1DC704710B504462DED028B24
:104CB0009FED0A8A90ED000AF0EE480AFDF7EEF843
:104CC000B5EEC00A84ED000AF1EE10FA3CBF30EEFA
:104CD000080A84ED000ABDEC028B10BD0000B4434D
:104CE0000F4A0168DFED0F0A914209D990ED000AE1
:104CF00030EE200A10EE101A80ED000A9142F5D82D
:104D0000094A01689142D8BF704790ED000A30EE21
:104D1000600A10EE101A80ED000A9142F5DC70472F
:104D2000DB0F49C0DB0FC940DB0F494090ED001A93
:104D3000D1ED000ADFF848C061EE011A0022B0EEA2
:104D4000C00A40EEA01AF1EEE10A10EE903A634577
:104D5000B8BFDFED0C0AF4EEC00AF1EE10FA0CDD7C
:104D6000C0EE201A012221EE210A80ED000A91ED09
:104D7000000A20EE210A81ED000A1046704700006B
:104D8000FFE6DB2EFFE6DB2E90ED001A0021B4EEED
:104D9000E01AF1EE10FAC8BFC0ED000A07DCB4EE6D
:104DA000C01AF1EE10FA38BF80ED000A00D20121DE
:104DB00008467047D0ED000A0021F4EEC00AF1EE7B
:104DC00010FA06DCB1EE400AF4EEC00AF1EE10FA79
:104DD00002D280ED000A012108467047D0F800C0D9
:104DE00000239445C8BF026003DC8C45B8BF016056
:104DF00000DA01231846704700000100020001009C
:104E00000300010002000100040001000200010093
:104E10000300010002000100050001000200010082
:104E20000300010002000100040001000200010073
:104E30000300010002000100060001000200010061
:104E40000300010002000100040001000200010053
:104E50000300010002000100050001000200010042
:104E60000300010002000100040001000200010033
:104E70000300010002000100070001000200010020
:104E80000300010002000100040001000200010013
:104E90000300010002000100050001000200010002
:104EA00003000100020001000400010002000100F3
:104EB00003000100020001000600010002000100E1
:104EC00003000100020001000400010002000100D3
:104ED00003000100020001000500010002000100C2
:104EE00003000100020001000400010002000100B3
:104EF0000300010002000100000000000030F13D4D
:104F00000070643E0000A33E0090CF3E0090F83E4B
:104F100000400F3F00E0203F0000000015B783373E
:104F2000CDE37B380EE1C53860F69138AF5F0F38BE
:104F3000E1BC3E3823F44739584F000800000020F8
:104F4000800100009E0300086C4F000880010020D3
:104F5000D8420000F4200008017102B4010D510193
:0C4F600002030401020304060708090014
:040000050800018965
:00000001FF
