:020000040800F2
:10000000C03E00209D010008A5010008A7010008CE
:10001000A9010008AB010008AD01000800000000C4
:10002000000000000000000000000000AF01000818
:10003000B101000800000000030200088514000858
:10004000B7010008B7010008B7010008B7010008B0
:10005000B7010008B7010008B7010008B7010008A0
:10006000B7010008B7010008B7010008B701000890
:10007000B7010008B7010008B7010008B701000880
:10008000B7010008B7010008B7010008B701000870
:10009000B7010008B7010008B7010008B701000860
:1000A000B7010008B7010008B7010008B701000850
:1000B000B7010008C9150008B7010008B70100081A
:1000C000B7010008B7010008B7010008B701000830
:1000D000B7010008B7010008B7010008B701000820
:1000E000B7010008B7010008B7010008B701000810
:1000F000B7010008B7010008F1150008B7010008B2
:10010000B7010008B7010008B7010008B7010008EF
:10011000B7010008B7010008B7010008B7010008DF
:10012000B7010008B7010008B7010008B7010008CF
:1001300051050008B7010008B7010008B701000821
:10014000B7010008B7010008B7010008B7010008AF
:10015000B7010008B7010008B7010008B70100089F
:10016000B7010008B7010008B7010008B70100088F
:10017000B7010008B7010008B7010008B70100087F
:10018000B7010008B7010008DFF80CD000F0BEF896
:1001900000480047DD270008C03E00200648804791
:1001A00006480047FEE7FEE7FEE7FEE7FEE7FEE75C
:1001B000FEE7FEE7FEE7FEE7B51400088901000848
:1001C000EFF3108072B6704780F3108870472048B4
:1001D0004FF0FF010170002080F309881D480121C4
:1001E00001701D484FF08051016062B6FEE71A4869
:1001F0004FF080510160704717484FF08051016007
:10020000704772B6EFF3098040B1403880EC108A35
:10021000203880E8F00F11490968086000B51048DF
:1002200080475DF804EB0F480F490A7802700B48CD
:100230000E490A680260106890E8F00F203090ECD8
:10024000108A403080F309884EF0040E62B6704781
:1002500022ED00E0BF00002004ED00E0D800002007
:10026000B50E0008BC000020BD000020E00000200A
:10027000D2B201E000F8012B491EFBD270470022E8
:10028000F6E710B513460A4604461946FFF7F0FF95
:10029000204610BD00F0004230F000400AD0C10DF1
:1002A00001F56071C0F3160042EA0151C20840072F
:1002B00011437047002001467047F0B400F000423F
:1002C00021F0004120F00040CE0DC30DC1F3160116
:1002D00041F40001C0F316004C42154640F4000002
:1002E000761E09E010EB440002D582F00042404245
:1002F0008842F7D840005B1EB342F9DA18B1F0BC6F
:10030000002100F01EB82846F0BC7047064C074D8F
:1003100006E0E06840F0010394E8070098471034D5
:10032000AC42F6D3FFF734FF3044000850440008D5
:100330000029A8BF7047401C490008BF20F00100F9
:10034000704710B4B0FA80FC00FA0CF050EA0104D7
:1003500004BF10BC704749B1CCF1200421FA04F469
:1003600011FA0CF118BF012121430843A3EB0C0142
:10037000CB1D4FEA00614FEA102042BF002010BCA5
:10038000704700EBC35010440029A4BF10BC704755
:10039000401C490008BF20F0010010BC7047002934
:1003A000816814BF41F0010121F0010181607047B3
:1003B000084AD2F80413084B1940D0E9003C43EA3C
:1003C0000C03D0E902C04CEA000018430843C2F80D
:1003D0000403704700200140E030FCFF10B4426885
:1003E000D1E9003C22F4807222F0407242EA0C22F1
:1003F0001A43426082680C4B1A40D1E904C343EAB5
:100400000C03D1E9024C4CEA440C43EA0C031A43B6
:100410008260C26A097E22F47002491EC9B242EAB1
:100420000151C16210BC7047FDF7FFC030B4072511
:1004300009290CD9C468A1F10A0C0CEB4C0C05FA83
:100440000CF5AC4303FA0CF32343C36009E00469E1
:1004500001EB410C05FA0CF5AC4303FA0CF3234312
:100460000361836BC3F3015CA2EB0C02921C02EBF1
:1004700082024FF01F0C0CFA02FC23EA0C0391409D
:100480001943816330BC704705490028D1F8040343
:1004900014BF40F4005020F40050C1F8040370472A
:1004A0000020014030B4072509290CD9C468A1F106
:1004B0000A0C0CEB4C0C05FA0CF5AC4303FA0CF3EC
:1004C0002343C36009E0046901EB410C05FA0CF514
:1004D000AC4303FA0CF3234303614FF01F0C072ACC
:1004E0000CD2436B521E02EB82020CFA02FC23EA8E
:1004F0000C0391401943416330BC70470D2A0CD264
:10050000036BD21F02EB82020CFA02FC23EA0C03FB
:1005100091401943016330BC7047C36A0D3A02EB46
:1005200082020CFA02FC23EA0C0391401943C162D7
:1005300030BC704705490028D1F8040314BF40F4CB
:10054000000020F40000C1F80403704700200140BF
:1005500070B50A4D0A4C2946204600F049F801289A
:1005600018BF70BD02F0FEFC2946204600F00AF8D4
:1005700029462046BDE8704000F01AB820800020CF
:1005800070640240064A904234BF0648064811F0A3
:10059000005F064A01EA020114BFC1608160704732
:1005A0001064024000600240006402407D0F7D0F35
:1005B000064A904234BF0648064811F0005F064ADA
:1005C00001EA020114BFC1608160704710640240FB
:1005D00000600240006402407D0F7D0F0029016829
:1005E00014BF41F0010121F00101016070470000DA
:1005F000124A0023904234BF114A124ADFF848C021
:1006000011EA0C0F04BF406900F0800006D04FF0E3
:100610001E0C00680CEAD12C00EA0C0011F0005FFF
:1006200014BF52681268DFF824C002EA0C020A42C2
:100630001CBF0028012318467047000010640240C8
:1006400000600240006402403C0F3C0F7D0F7D0FB4
:1006500011F0800F07D04369002A0CBF23F08003FC
:1006600043F080034361802908BF704701F01E01F9
:10067000002A02680CBF22EA0101114301607047A1
:1006800010B402681B4BD1F80CC01A400B6843EA47
:100690000C03D1E905C44CEA040C43EA0C03D1F87D
:1006A0001CC043EA0C03D1F820C043EA0C03D1F884
:1006B00024C043EA0C03D1F828C043EA0C03D1F864
:1006C00034C043EA0C03D1F838C043EA0C031A43A0
:1006D00002604269D1E90B3C22F0070243EA0C03B5
:1006E0001A4342610A6942604A6882608968C1604F
:1006F00010BC70473F801CF0CB0800EB8300036AFE
:100700004907C90E4FF00F0C0CFA01FC23EA0C0349
:100710000362036A02FA01F119430162704702465B
:10072000002012690A4218BF0120704741837047B8
:100730002DE9F04F4FF0000CDDE909874FF001097A
:100740004FF0030A09FA0CF501EA0504AC4238D16E
:10075000D0F800B04FEA4C040AFA04F62BEA060B74
:10076000C0F800B0D0F800B002FA04FE4BEA0E0B5D
:10077000C0F800B0012A18BF022A18D1D0F808B07A
:100780002BEA060BC0F808B0D0F808B008FA04FE4F
:100790004BEA0E0BC0F808B0D0F804B02BEA050500
:1007A0004560456803FA0CFB45EA0B054560C568E2
:1007B00025EA0605C560C56807FA04F445EA04049D
:1007C000C4600CF1010CBCF1100FBBD3BDE8F08F7D
:1007D00001837047002A14BF0183418370470000E2
:1007E00070B586B000F0C6F8514A002414639470C6
:1007F000D4701472D471D460D46194615461547013
:100800009471204602F134010C54401CC0B20828F7
:10081000FAD3147154719462464841F258411462FB
:10082000491E090400F8014B090CF9D142494FF463
:100830008070401E000401F8014B000CF9D1DFF874
:10084000F4C0431CD9B2C0EBC00000EB4000C1EBC8
:10085000C1010CEB800001EB41010CEB8101416116
:1008600036A1C164D8B23D28EBD3C0EBC00000EB89
:1008700040000CEB800031A14461C1643049C2F8F2
:1008800024C04FF49670D462401E000401F8014B5E
:10089000000CF9D1DFF8A8C0411C00EB80008BB23E
:1008A0000CEB800003EB83030CEB830304704360C9
:1008B00088B20E28F0D300EB80000CEB80000470AF
:1008C0004460C2F810C000F0A9FB00F0DBFB00F0B0
:1008D000FFFB1C484FF6FF71CDE900108026032571
:1008E000029600F5FE723F2300211748CDE903452B
:1008F00000F01AF905AA15A13F2000F073F9174876
:100900004FF6FE71CDE90010029600F5FE723E230F
:1009100000211348CDE9034500F006F905AA11A10D
:100920003E2000F05FF906B0BDE8704000F023B84B
:10093000B80000203C2500203C2400203F0000009F
:10094000101F00203C220020A912000875432F4FE1
:10095000532D49492049646C650000003C2000206B
:10096000C512000875432F4F532D49492053746118
:10097000740000007047704770B5174CE07901288B
:1009800018BF70BDFFF71CFCA178054621B1481EB9
:1009900010F0FF01A1701AD1E078C0B90F48A17919
:1009A0000F4A415C525C805C00EBC100C2B20D4852
:1009B000627150F82210A1622079824207D0886BC0
:1009C000401C8863E068401CE060FFF715FC284687
:1009D000BDE87040FFF7F8BBB800002030430008C6
:1009E000EC0000203C24002010B5094CE0790128DF
:1009F00018BF10BDFFF7E4FBA17821B9E178FF290A
:100A00003CBF491CE170BDE81040FFF7DDBB0000B2
:100A1000B800002010B50D4CE079012818BF10BDBA
:100A2000FFF7CEFBA17831B9E17821B1491E11F071
:100A3000FF01E17003D0BDE81040FFF7C5BBFFF731
:100A4000C3FBBDE8104000F063BB0000B80000200D
:100A50000B49C879002818BF70470A4A88790A4BA1
:100A6000105C1B5CD25C02EBC000C0B2074A48714C
:100A7000087152F8200088620862FFF7A8BB0000E6
:100A8000B800002030430008EC0000203C24002087
:100A9000704700002DE9F04184B01C4615460E4613
:100AA0008046FFF78DFB1D49097829B1FFF78CFBC4
:100AB00004B03C20BDE8F081194F57F8241029B14B
:100AC000FFF782FB04B02820BDE8F081012147F840
:100AD0002410FFF779FB00232A463146404600F0F8
:100AE000F3F800260146009601963346324620462A
:100AF000029600F03FFB050009D0FFF761FB47F8C5
:100B00002460FFF761FB04B02846BDE8F08105488A
:100B10000078012808BF00F0FBFAF4E7BA000020D3
:100B20003C240020BF0000202DE9FF4F83B01C466D
:100B3000DDE91175DDE91386DDF840B0FFF740FB14
:100B40002449097829B1FFF73FFB07B03C20BDE8F5
:100B5000F08FDFF8849059F8241029B1FFF734FBA7
:100B600007B02820BDE8F08F012149F82410FFF7D5
:100B70002BFB3946284616F0010F4FF0000A1CBF28
:100B800016F0020F002803D041F804AB401EFBD141
:100B9000DDE903013346059A00F096F8CDE90058E7
:100BA00001465B463A462046029600F0E3FA05000D
:100BB00009D0FFF705FB49F824A0FFF705FB07B0B4
:100BC0002846BDE8F08F05480078012808BF00F0EE
:100BD0009FFAF4E7BA0000203C240020BF00002068
:100BE0007047704770B5054612480E4614460078A7
:100BF00000281EBF1220107070BDFFF7E1FA0246F8
:100C0000FF2D03D10C48006890F832500B4850F883
:100C100025004325002818BF012806D0C6641046C9
:100C2000FFF7D2FA0020207070BD1046FFF7CCFA13
:100C3000257070BDBA000020D80000203C240020A0
:100C4000704700002DE9F0410446002008600E4680
:100C50004860FFF7B5FA0146FF2C03D11848006839
:100C600090F83240174850F82400002818BF012897
:100C70000ED0027C12F0010F10D0D0E902474FF0E5
:100C800000050846FFF7A0FA54F8040B60B110E025
:100C90000846FFF799FA4320BDE8F0810846FFF7C0
:100CA00093FA4520BDE8F08154F8040B6D1C002830
:100CB000FAD0781B356070600020BDE8F08100003C
:100CC000D80000203C2400202DE9FF4F002042F8EE
:100CD000040C42F8080C4FF0153142F80C1C4FF090
:100CE000143142F8101C4FF0133142F8141C4FF02D
:100CF00012334FF0103442F8183C4FF0113C42F8D8
:100D00001CCC42F8204C5D1042F8245C661042F87E
:100D1000286C4FF0073742F82C7C4FF0063842F829
:100D2000308C4FF00539A01042F8349C42F8380C52
:100D30004FF0033A42F83CAC4FF0023B42F840BC63
:100D40004FF0013E42F844EC810542F8481C0098FF
:100D500042F84C0C6FF0010142F8501C42F8543C30
:100D600042F858AC42F85CBC42F860EC019842F89A
:100D7000640C4FF0313142F8681C4FF0303142F8CA
:100D80006C1C4FF0293142F8701C4FF0283142F8AA
:100D9000741C4FF0273142F8781C4FF0263142F88E
:100DA0007C1C4FF0253142F8801C590042F8841C0D
:100DB0004FF0233142F8881C4FF0223142F88C1C4E
:100DC0004FF0213142F8901C610042F8941C4FF022
:100DD000193142F8981C4FF0183142F89C1C4FF022
:100DE000173142F8A01C4FF0163142F8A41C42F80B
:100DF000A8CC42F8AC4C42F8B05C42F8B46C42F873
:100E0000B87C42F8BC8C42F8C09CA11042F8C41CCB
:100E100004B0A2F1C400BDE8F08F000070B5044634
:100E2000FFF7CEF984461F48FF2C006804BF90F8F6
:100E30003240012505D090F83200A0420CBF0125B8
:100E40000025194850F8240058B101280ED090F818
:100E50003410164B90F835405A5CA2435A540AD0CD
:100E600010E06046FFF7B0F9482070BD6046FFF71C
:100E7000ABF9432070BD0E4990F836200B7823EA79
:100E800002020A7090F8301041F0080180F830102A
:100E90006046FFF799F9002D18BF00F039F90020DE
:100EA00070BD0000D80000203C240020EC00002091
:100EB000BE0000207047000070B50446144800785A
:100EC000002818BF70BD13480078002818BF70BDF7
:100ED000002C08BF70BDFFF773F984460E48016807
:100EE0000E4891F8342091F83550835CAB4383541D
:100EF00006D10B4891F83620037823EA02020270EB
:100F00006046CC62FFF760F9BDE8704000F000B9C0
:100F1000BA000020BB000020D8000020EC00002018
:100F2000BE0000202DE9F04100F056F8FFF748F927
:100F3000274D296B491C2963FFF746F9E8790128F9
:100F400018BFBDE8F081687A0126002738B1012872
:100F500008BFBDE8F08102280CBF6E726F72EC6AA8
:100F600094F832003F2814BFDFF86880BDE8F081B4
:100F7000FFF726F9E16A11B3491EE1621FD194F827
:100F8000301011F0370F1DBF01F0C80184F8301088
:100F900084F8316084F8317094F8301011F0080F43
:100FA0000DD194F83610AA791143A97194F8341030
:100FB00094F8353018F801201A4308F801206469C4
:100FC000FFF702F994F832003F28D1D1BDE8F08153
:100FD000B8000020EC0000207047000000B585B08C
:100FE000684600F0FFF9019842F21071B0FBF1F091
:100FF000401EB0F1807F24BF05B000BD4FF0E0215E
:101000004861054AF02082F8140D0020886107200D
:10101000086105B000BD00000FE000E010B55021F0
:101020000F4800F023F800200D4B8446411C03EBD1
:1010300000108AB203EB021280F800C0426009A2DD
:10104000C26088B20428F1D303EB001005A180F838
:1010500000C0C0F804C0C1600348036010BD0000B8
:10106000943900203F000000F4000020002914BF44
:101070000022704700F8012B491E0904090CF9D120
:101080007047000010B578210E48FFF7EFFF0D4ABA
:10109000002000EB400102EBC10101F118034B609D
:1010A000401C09A380B24B610428F2D300EB40003E
:1010B00002EBC0000021416003A1416103480260CE
:1010C00010BD0000E43900203F000000F8000020BF
:1010D00010B560210C48FFF7C9FF0B4B0020411CE5
:1010E0008AB200EB400002EB420203EBC20243F87B
:1010F000302088B20328F2D300EB4000002143F8EF
:1011000030100248036010BD5C3A0020FC00002053
:1011100010B5FFF755F8134B04469878002804BF24
:10112000D878002818D110489979104A415C525C4F
:10113000805C00EBC100C2B20D485A7150F8221019
:1011400099621879824207D0886B401C8863D868FE
:10115000401CD860FFF74BF82046BDE81040FFF771
:1011600033B80000B800002030430008EC00002035
:101170003C2400202DE9FF5F9346DDE90F76894688
:101180000546DDF83880FFF71BF8DFF80CA1DAF828
:101190002440002C79D06169CAF82410FFF714F8B4
:1011A000C4F8009084F832504FF0000984F8309071
:1011B00084F83190C4F82C90C4F80C80C4E9017B09
:1011C00026820398608284F83790E80884F8340017
:1011D00005F00701012284F8331002FA00F084F8C8
:1011E000360002FA01F084F83500C4F81C90C4F807
:1011F0002490C4F82090C4F83890C4F84090C4F803
:101200003C9026A0C4F84490C4E91290002004EB5E
:101210008001401CC1F8509010F0FF00F7D020462C
:10122000FFF736FCFEF7CCFF1D4941F82540FEF7DD
:10123000CBFF2046FFF7D4FCFEF7C2FF0246DAF8E8
:101240002C00C4E90509002818BF8461CAF82C40A5
:1012500094F836009AF8061008438AF8060094F8C5
:101260003400104994F835C00B5C43EA0C030B546E
:101270009AF80800401C8AF808001046FEF7A4FF00
:1012800004B00020BDE8F09FFFE7FEF79DFF04B02B
:101290004220BDE8F09F0000B80000203F000000A1
:1012A0003C240020EC000020054CFEF789FFE1699A
:1012B000491CE161FEF788FFFFF793FCF5E70000AA
:1012C000B8000020264E82B0707830B94FF4FA6032
:1012D000FFF7F2FD70780028F8D0224970694FF0CE
:1012E0000007A1FB00104009706103D13770FF2097
:1012F000FFF794FDFEF764FF716964225143F161C9
:10130000FEF762FF184DFEF75BFFF169F761B1610F
:10131000FEF75AFFD6E90510B0FBF1F0C0F164000A
:101320003070FFF78DFC002469462046FFF78AFCE9
:1013300060B955F82410002918BF012906D0D1E959
:10134000020200EB820048640198886404F1010005
:10135000C4B23F2CE8D94FF47A70FFF7ADFDD2E765
:10136000B80000201F85EB513C240020044A0029CE
:10137000116814BF084321EA0000106070470000A4
:1013800030380240044A0029116814BF084321EA9A
:10139000000010607047000040380240044A0029F5
:1013A000116814BF084321EA000010607047000074
:1013B00020380240044A0029116814BF084321EA7A
:1013C000000010607047000044380240044A0029C1
:1013D000116814BF084321EA000010607047000044
:1013E00024380240DFF88CC030B4DCF80010224D05
:1013F00011F00C0106D06C10042908BF046002D063
:1014000008291DD00560DCF800100F221B4B02EAF2
:101410001111595C026822FA01F14160DCF80020E8
:10142000072404EA92229A5C21FA02F28260DCF834
:10143000002004EA52329A5CD140C16030BC70474F
:101440000F4A1168C1F380531168002B01F03F016E
:1014500014BFB4FBF1F1B5FBF1F113681268C3F3EB
:1014600088135943C2F30142521C5200B1FBF2F1FE
:101470000160C8E7083802400024F400A8000020FA
:1014800004380240094810B50168491C0160FEF7A4
:1014900097FE07490A78521C0A70FEF795FEFFF77F
:1014A00041FDBDE81040FFF767BA000000010020D1
:1014B000BA0000203B4882B0016841F4700101602D
:1014C0003948016841F00101016038494FF0000CD2
:1014D000C1F800C0026822F4102222F0807202607B
:1014E000031D334A1A60026822F4802202600A1D3A
:1014F000C2F800C0CDF800C0CDF804C0026842F4C4
:1015000080320260026802F400320192009A521C9A
:101510000092019A1AB9009AB2F5A04FF2D102686E
:1015200012F4003F08BFCDF804C034D0012201926C
:10153000204AD2F800C04CF0805CC2F800C01E4ABD
:10154000D2F800C04CF4804CC2F800C00A680A60AF
:101550000A6842F400420A600A6842F4A0520A6033
:10156000164A1A60026842F080720260026812F045
:10157000007FFBD0124A40F205601060086820F03E
:1015800003000860086840F002000860086800F086
:101590000C000828FAD10B494FF00060086002B037
:1015A0007047000088ED00E0003802400838024033
:1015B00010300024403802400070004019544007A9
:1015C000003C024008ED00E010B5084C0121204627
:1015D00000F05BF9002808BF10BD00F0CBFE2046EC
:1015E000BDE81040012100F05DB80000000400409B
:1015F00010B50A4C0221204600F047F9002808BF28
:1016000010BD0748407818B12021064800F03BF98A
:101610002046BDE81040022100F044B8000401401B
:101620000C000020000001400029018814BF41F097
:10163000800121F08001018070470A884B88B1F851
:1016400006C01A438B8843EA0C031A430B891A43DA
:101650004B8989891A431143A0F844107047002927
:10166000818814BF41F0010121F0010181807047A0
:101670000123B0F820C08B402CEA03030384038CC1
:1016800002FA01F11943018470470423B0F820C025
:101690008B402CEA03030384038C02FA01F1194303
:1016A00001847047C943018270470029018814BF33
:1016B00041F0010121F00101018070470029B0F8DB
:1016C000441014BF41F40041C1F30E01A0F84410CE
:1016D000704710B5A0F18041B1F580314AD0B0F12A
:1016E000804F5BD0A0F18041B1F580614CD0A0F17A
:1016F0008041B1F500615BD0A0F18041B1F540615E
:1017000060D0A0F18041B1F5805165D0A0F1804159
:10171000B1F5A0516AD0A0F18041B1F582316FD00E
:10172000A0F18041B1F5A03174D0A0F18041B1F5B4
:10173000A2317AD0A0F18041B1F5A4317DD0A0F1E1
:101740008041B1F5C05179D0A0F18041B1F5E051AF
:1017500075D0A0F18041B1F5005118BF10BD012135
:101760000802FFF71BFEBDE8104000214FF4807017
:10177000FFF714BE01210846FFF728FE0021BDE84F
:1017800010400120FFF722BE01210220FFF706FED4
:101790000021BDE810400220FFF700BE01210846ED
:1017A000FFF7FCFD0021BDE810400120FFF7F6BD6A
:1017B00001210420FFF7F2FD0021BDE810400420C4
:1017C000FFF7ECBD01210820FFF7E8FD0021BDE88F
:1017D00010400820FFF7E2BD01211020FFF7DEFDD9
:1017E0000021BDE810401020FFF7D8BD01212020C6
:1017F000FFF7D4FD0021BDE810402020FFF7CEBD4B
:1018000001210220FFF7E2FD0021BDE81040022087
:10181000FFF7DCBD01210804FFF7D8FDBDE810404B
:1018200000214FF48030FFF7D1BD01214804FFF7BC
:10183000CDFD00214FF4003002E005E00FE018E09C
:10184000BDE81040FFF7C2BD01218804FFF7BEFDCF
:10185000BDE8104000214FF48020FFF7B7BD012103
:101860004020FFF79BFD0021BDE810404020FFF71E
:1018700095BD01218020FFF791FD0021BDE81040BA
:101880008020FFF78BBD81827047038A0022808908
:101890000B4200EA01001CBF0028012210467047DD
:1018A000002A828914BF114322EA01018181704715
:1018B00010B4028C22F001020284028C8388B0F8FA
:1018C00018C00C882CF0730C44EA0C0C8C8922F0A4
:1018D000020222434C882243A0F18044B4F58034B4
:1018E0001CBFA0F18044B4F582340DD1CC8922F024
:1018F000080222438C8822F0040222430C8A23F43B
:10190000407323434C8A23438380A0F818C089681E
:101910004163028410BC7047028B22F0080211431D
:101920000183704730B4028C22F010020284028CD2
:101930008388B0F818C00D882CF4E6444FF6FF7C7D
:101940000CEA05252C438D8922F020020CEA0515AE
:101950002A434D880CEA05152A43A0F18045B5F5C8
:1019600080351CBFA0F18045B5F5823516D1CD89F3
:1019700022F080020CEA05152A438D8822F04002ED
:101980000CEA05152A430D8A23F440630CEA850509
:101990002B434D8A0CEA850C4CEA030383800483B5
:1019A00089688163028430BC7047028B4FF6FF73F5
:1019B00022F4006203EA012111430183704730B42D
:1019C000028C22F480720284028C8388B0F81CC0DE
:1019D0000C882CF0730C44EA0C048D894FF6FF7CC4
:1019E00022F400720CEA05252A434D880CEA0525ED
:1019F0002A43A0F18045B5F580351CBFA0F1804594
:101A0000B5F5823516D1CD8922F400620CEA0525A0
:101A10002A438D8822F480620CEA05252A430D8A28
:101A200023F440530CEA05152B434D8A0CEA051CA0
:101A30004CEA0303838084838968C163028430BCD9
:101A40007047828B22F0080211438183704730B4C3
:101A5000028C22F480520284038C8288B0F81CC06D
:101A60000D884FF6FF742CF4E64C04EA052545EA90
:101A70000C0C8D8923F4005304EA05352B434D8863
:101A800004EA05352B43A0F18045B5F580351CBF30
:101A9000A0F18045B5F5823505D10D8A22F480424A
:101AA00004EA851422438280A0F81CC0896801647E
:101AB000038430BC7047828B4FF6FF7322F40062C0
:101AC00003EA0121114381837047028922F07002E9
:101AD000114301817047028922F08002028102894C
:101AE00011430181704710B44FF0010C048C00F1D8
:101AF00018030CFA01FC24EA0C0CA0F820C0002901
:101B000018BF082914D0A1F10400C0F34E001844F6
:101B1000016848F6FF7301EA0301016001684FF6AE
:101B2000FF7303EA022241EA0201016010BC704720
:101B300003EB510001684FF68F7301EA0301016066
:101B4000016841EA0201016010BC7047828822F0FE
:101B5000700282808288114381807047028922F05E
:101B600007020281028911430181704710B4028883
:101B70001C4BDFF874C0984218BF604511D0B0F11B
:101B8000804F1CBFA0F18044B4F5806409D0A0F15F
:101B90008044B4F500641CBFA0F18044B4F54064F7
:101BA00003D14C8822F070022243A0F18044B4F5A6
:101BB00080541CBFA0F18044B4F5A05403D00C891C
:101BC00022F44072224302804A68C2620A88028577
:101BD000984212BF6045897A01864FF001018182E7
:101BE00010BC70470000014000040140154D012663
:101BF00002270424A5F102082E804FF4FA7000F0A9
:101C0000C1FA2F804FF4FA7000F0BCFA2C804FF428
:101C1000FA7000F0B7FAA8F800604FF4FA7000F01C
:101C2000B1FAA8F800704FF4FA7000F0ABFAA8F817
:101C300000404FF4FA7000F0A5FAC82000F0A2FAB4
:101C4000DAE700001A0402400A2000F09BFAFBE7E2
:101C500010B5FFF7C3F9FEF7B3FA04460A23094AA1
:101C600000210948FEF716FF1923084A00210848F9
:101C7000FEF710FF3C20FFF7D1F82046BDE81040EA
:101C8000FEF7A2BA04150020491C0008041D00201C
:101C9000ED1B0008024940F080000860704700001A
:101CA000002C0040024900F07F00086070470000EF
:101CB000002C0040034A116821F4C07108431060F1
:101CC00070470000042C0040054981B00A6800F00C
:101CD0007F0022F07F0210430090086001B070473F
:101CE000042C004010B52DED028BF0EE408A18EE6A
:101CF000900AB0EE608A20F00040C0F1FF40C00FB3
:101D000007D118EE100A20F00040C0F1FF40C00FCC
:101D10002BD018EE101A18EE900AFEF7CEFA00EE4D
:101D2000100A10EE100A6FEAD05010F0FF0F04BF37
:101D3000BDEC028B10BD18EE900A00F0004110EED1
:101D4000100A00F00040814204BFBDEC028B10BDC0
:101D500018EE101A10EE100ABDEC028B61F31E0093
:101D600000EE900A30EE600A10BD18EE900A4FF0B7
:101D70007F41B1EB400F1CBF18EE100A5FEA400034
:101D8000C7D1012000F01EF8BDEC028BBDE8104069
:101D9000AFF30080DFED020A80EEA00A704700007A
:101DA0000000000002E008C8121F08C1002AFAD192
:101DB00070477047002001E001C1121F002AFBD1CB
:101DC00070470000014908607047000004010020CE
:101DD00010B504464FF4B471FEF751FAF1EE040A5F
:101DE000C4ED000AB9EE040A84ED010AB2EE041A49
:101DF00084ED021AFAEE041AC4ED031A9FED8D2A3F
:101E000084ED042A9FED8C2A84ED052A9FED8B2A10
:101E100084ED062A9FED8A2A84ED072ADFED892AC0
:101E2000C4ED082ADFED882AC4ED092ADFED872AF0
:101E3000C4ED0A2A9FED863A012184ED0B3AB3EEF8
:101E4000073A84ED0C3AC4ED0D2A84F83810DFED22
:101E5000812AC4ED0F2A9FED803A84ED103AC4ED3B
:101E6000112A84ED123ADFED7D2AC4ED132ADFED4D
:101E70007C2AC4ED142ADFED7B2AC4ED152ADFEDA0
:101E80007A2AC4ED162ADFED792AC4ED172AC4EDAB
:101E9000180A84ED190A84ED1A1AC4ED1B1AC4ED50
:101EA0001C0A84ED1D0A9FED720A84ED1E0A84ED62
:101EB000201A9FED700A84ED1F0A9FED6F0A84EDD2
:101EC000210A84ED222A9FED6D0A84ED230A9FEDFD
:101ED0006C0A84ED240ADFED6B1AC4ED251A9FED20
:101EE0006A0A84ED260A9FED690A84ED270A9FEDB0
:101EF000680A002084ED280A84F8A8009FED650A8E
:101F000084ED290AB1EE0C0A84ED2B0A9FED620ADA
:101F100084ED310A9FED612A84ED322A9FED600A3B
:101F200084ED2C0A9FED5F0A84ED2D0A9FED5E0A79
:101F300084ED2E0A9FED5D0A84ED2F0A9FED5C0A69
:101F400084ED300A84ED331A9FED5A0A84ED340A89
:101F50009FED590A84ED350ADFED580AC4ED360AC3
:101F6000C4ED370A9FED560A84ED380A84ED390A2C
:101F70009FED541A84ED3A1A84F8EC0084F8ED00D1
:101F800084ED3C0A84F8F400B3EE091A84ED3E1A9D
:101F9000C4ED3F0A9FED4C1A84ED401A84ED411ABE
:101FA0009FED4A1A84ED421A9FED491A84ED431AB7
:101FB00084ED440A84F81411C4ED461A84ED470AEE
:101FC0009FED440A4FF4FA7184ED480A84ED491AF2
:101FD000B7EE000A84ED4A0A9FED3F0A84ED4B0AF2
:101FE0009FED3E0AC4ED4C0A84ED4D0A9FED3C0A7C
:101FF00084ED4E0A9FED3B0AC4F83C1184ED500A73
:10200000B6EE000A84ED510A84F8480110219FEDD4
:10201000360AC4E9530184ED550A9FED340A84ED74
:10202000562A84ED570A9FED320A84ED580AC4F807
:10203000640110BD000002430050C3C70050C347F5
:10204000CDCC4C3F000096430080BB440000B4411F
:102050000000CC410000AA420000C8429A99193EF3
:102060000AD7A33B3333733F00606A4600606AC6F9
:1020700000001643008089440000784200409C47DD
:10208000000016448FC2F53C0000484200409C46C8
:102090000AD7A33D000034430000FA4400401C4727
:1020A0008BE1EA368FC2753C2E90203B50A9AB4C99
:1020B0009A99993E000048430000C843CDCCCC3DDE
:1020C0000000000000401C456F12833B17B7D13859
:1020D000CDCC4C3E17B7D1390AD7233C99BB963BA0
:1020E0000AD7233D0AD7A33C00803B4500B80847E8
:1020F0000040534510B52DED028BF0EE408A9FED68
:102100001E0AB0EE608A21EE000A10EE100AFEF7F9
:10211000C1F841EC100B20F00040184900EE100A05
:102120009FED171A486AF8EEC00A0A7890ED3A0A4D
:1021300020EE010A90ED3A1A72B131EE000AB4EEC7
:10214000E00AF1EE10FA3CBF002008700ED3B0EEAA
:10215000480ABDEC028B10BD31EE400AB4EEE00A35
:10216000F1EE10FAC4BF01200870F0DCB0EE680A8E
:10217000BDEC028B10BD0000EBC918410C00002023
:10218000CDCC4C3D00EE100AF2EE040AB8EE400A47
:1021900020EE200ABCEEC00A10EE100AFEF78CBE3C
:1021A00070B5002082B00324CDE90040214E0346E3
:1021B00002464FF400613046FEF7BAFA01250023CB
:1021C0002A46A9023046CDE90045FEF7B1FA0122C0
:1021D000002351023046CDE90045FEF7A9FA01225D
:1021E000002311033046CDE90045FEF7A1FA642033
:1021F000FFF7C8FF4FF48661022000F049F84FF462
:102200008661022000F044F8022000F015F800F08A
:102210003F0040F04001022000F03AF8022000F0B8
:102220000BF802B040F00401BDE87040022000F05D
:102230002FB800000008024070B54FF4004100F0D4
:102240000F0241EAC22148F27F02104D41EA020426
:1022500050B169152846FEF769FA204601F0BEFD27
:1022600069152846FEF7B4FA4FF400712846FEF7C8
:102270005DFA4FF6FF7001F0B1FD04464FF40071B6
:102280002846FEF7A5FA204670BD0000000802406F
:1022900070B5002200F00F0042EAC020C1F30A012D
:1022A00041EA0004074D4FF400712846FEF73EFA5C
:1022B000204601F093FD69152846BDE87040FEF701
:1022C00087BA00000008024001480078704700000B
:1022D00000000020F0B5002485B003251F4FCDE994
:1022E00000542346224680213846FEF721FA012673
:1022F000CDE900560023324640213846FEF718FA51
:10230000CDE900560122002311023846FEF710FAEB
:1023100001210220FFF736F8ADF80840ADF8104073
:10232000ADF80A408DF8124041F267000C4C039062
:1023300002A92046FFF71AFC012211462046FFF7AA
:10234000AFFA01212046FFF7B0F906211D2001F068
:102350003BFC0448067005B0F0BD000000080240D8
:102360000004004000000020014890ED010A704781
:10237000000000202DE9F04F324F83B04FF4807100
:102380003846FEF7D3F90DF108094FF0010A00268F
:102390004FF6FF780024254600BF00BF00BF00BFF6
:1023A00040213846FEF714FA00BF00BF00BF00BF4F
:1023B00080213846FEF7B3F9019000BF80213846EE
:1023C000FEF7ADF9009000BF80213846FEF7A7F96F
:1023D0000246DDE9001008EA440401F0EBFE0028A3
:1023E00018BF44F0010440213846FEF79FF900BFB2
:1023F00000BF00BF00BF6D1C102DCDDBB9F1000F79
:1024000018BF29F81640761C5645C3DB4FF480717F
:102410003846FEF7DDF9BDF80800DFED0B0AC0F322
:102420000D0000EE100A0A48B8EE400A20EE200A1D
:10243000DFED060A20EE200A80ED010A03B0BDE8B8
:10244000F08F0000000802400000B4430000803814
:102450000000002000EE100A10EE100AC0F3C75171
:102460007F391729A8BF7047DFED130A002930EE26
:10247000200A0EDAB5EEC00AF1EE10FAD8BF7047A6
:102480000028A4BF00207047B0F1004F18BF0B48D0
:1024900070470B4ACA4010421CBFB5EEC00AF1EEAD
:1024A00010FAD8BF7047002804DA4FF4000323FA6B
:1024B00001F1084490437047CAF24971000080BF9F
:1024C000FFFF7F002DE9F041012182B00846FEF7B1
:1024D0004DFF01210220FEF749FF01210420FEF7F4
:1024E00045FF01210820FEF741FF0024DFF8A88105
:1024F000009423460122072140460194FEF718F973
:1025000001260325CDE9005600233246202140460E
:10251000FEF70EF920214046FEF75AF95F4FCDE94C
:10252000005402220023D1013846FEF701F90122AE
:1025300008213846FEF7E0F8CDE9005402220023D6
:1025400011023846FEF7F4F8012209213846FEF759
:10255000D3F8CDE900540222002351023846FEF799
:10256000E7F801220A213846FEF7C6F8CDE9005403
:102570000222002311034046FEF7DAF801220D2162
:102580004046FEF7B9F8CDE900540222002351037A
:102590004046FEF7CDF801220E214046FEF7ACF88A
:1025A000CDE900540222002391034046FEF7C0F813
:1025B00001220F214046FEF79FF8002300961A469D
:1025C000802140460196FEF7B3F8009400230322D1
:1025D000012138460194FEF7ABF800940023032252
:1025E000022138460194FEF7A3F800940023032249
:1025F000042138460194FEF79BF80094002303223F
:10260000082138460194FEF793F800940023032232
:10261000202138460194FEF78BF800940023032212
:10262000402138460194FEF783F81D4D00940023A5
:102630000322012128460194FEF77AF80094002332
:102640000322022128460194FEF772F80094002329
:102650000322042128460194FEF76AF8009400231F
:102660000322082128460194FEF762F80094002313
:102670000322102128460194FEF75AF80094002303
:102680000322202128460194FEF752F802B0BDE84B
:10269000F041FFF785BD0000000402400000024049
:1026A0000008024070B54A4C01231A46002120461A
:1026B000FDF7F8FE012302220A212046FDF7F2FE73
:1026C0000123032205212046FDF7ECFE012304220D
:1026D0000E212046FDF7E6FE0123052211212046AA
:1026E000FDF7E0FE01233B4D1A4619462846FDF74B
:1026F000D9FE012302220B212846FDF7D3FE012338
:10270000032206212846FDF7CDFE012304220F21D6
:102710002846FDF7C7FE0123052200212846FDF7C4
:10272000C1FE2D4E01231A4602213046FDF7BAFEA6
:10273000012302220C213046FDF7B4FE03220123BF
:1027400011463046FDF7AEFE012304220D2130462E
:10275000FDF7A8FE0123052219463046FDF7A2FE2B
:1027600001231A460A212046FDF760FE01231A467E
:102770000B212846FDF75AFE01231A460C2130464C
:10278000FDF754FE012302220A212046FDF74EFEEA
:10279000012302220B212846FDF748FE01230222D5
:1027A0000C213046FDF742FE012303220A21204678
:1027B000FDF73CFE012303220B212846FDF736FEE0
:1027C0003046BDE87040012303220C21FDF72EBEE8
:1027D00000200140002101400022014000B5DBB093
:1027E000FEF768FEFFF76EFE6846FFF7F1FA6846EF
:1027F00000F012F8FDF7F4FF3C23054A00210548DC
:10280000FEF748F9FEF724F95BB0002000BD000098
:1028100004050020511C000810B5BA4990ED000ACB
:1028200081ED000A90ED010A81ED010A90ED020AA6
:1028300081ED020A90ED030A81ED030A90ED040A8E
:1028400081ED040A90ED050A81ED050A90ED060A76
:1028500081ED060A90ED070A81ED070A90ED080A5E
:1028600081ED080A90ED090A81ED090A90ED0A0A46
:1028700081ED0A0A90ED0B0A81ED0B0A90ED0C0A2E
:1028800081ED0C0A90ED0D0A81ED0D0A90F83820CB
:1028900081F8382090ED0F0A81ED0F0A90ED100AB3
:1028A00081ED100A90ED110A81ED110A90ED120AE6
:1028B00081ED120A90ED130A81ED130A90ED140ACE
:1028C00081ED140A90ED150A81ED150A90ED160AB6
:1028D00081ED160A90ED170A81ED170A90ED180A9E
:1028E00081ED180A90ED190A81ED190A90ED1A0A86
:1028F00081ED1A0A90ED1B0A81ED1B0A90ED1C0A6E
:1029000081ED1C0A90ED1D0A81ED1D0A90ED1E0A55
:1029100081ED1E0A90ED1F0A81ED1F0A90ED200A3D
:1029200081ED200A90ED210A81ED210A90ED220A25
:1029300081ED220A90ED230A81ED230A90ED240A0D
:1029400081ED240A90ED250A81ED250A90ED260AF5
:1029500081ED260A90ED270A81ED270A90ED280ADD
:1029600081ED280A90ED290A81ED290A90F8A82026
:1029700081F8A82090ED2B0A81ED2B0A90ED2C0A0E
:1029800081ED2C0A90ED2D0A81ED2D0A90ED2E0A95
:1029900081ED2E0A90ED2F0A81ED2F0A90ED300A7D
:1029A00081ED300A90ED310A81ED310A90ED320A65
:1029B00081ED320A90ED330A81ED330A90ED340A4D
:1029C00081ED340A90ED350A81ED350A90ED360A35
:1029D00081ED360A90ED370A81ED370A90ED380A1D
:1029E00081ED380A90ED390A81ED390A90ED3A0A05
:1029F00081ED3A0A90F8EC2081F8EC2090F8ED2077
:102A000081F8ED2090ED3C0A81ED3C0A90F8F4202D
:102A100081F8F42090ED3E0A81ED3E0A90ED3F0AE8
:102A200081ED3F0A90ED400A81ED400A90ED410AA8
:102A300081ED410A90ED420A81ED420A90ED430A90
:102A400081ED430A90ED440A81ED440A90F8142187
:102A500081F8142190ED460A81ED460A90ED470A6F
:102A600081ED470A90ED480A81ED480A90ED490A48
:102A700081ED490A90ED4A0A81ED4A0A90ED4B0A30
:102A800081ED4B0A90ED4C0A81ED4C0A90ED4D0A18
:102A900081ED4D0A90ED4E0A81ED4E0AD0F83C21B1
:102AA000C1F83C2190ED500A81ED500A90ED510A99
:102AB00081ED510A90F8482181F84821D0F84C2145
:102AC000C1F84C21D0F85021C1F8502190ED550AA1
:102AD00081ED550A90ED560A81ED560A90ED570AA0
:102AE00081ED570A90ED580A81ED580AD0F864013B
:102AF000C1F86401FFF7EEFBBDE81040014800F0AB
:102B00000BB80000341D002070470000014890ED14
:102B1000000A7047080000202DE9F04FA7B00646D4
:102B2000FDF762FFFE4D00246C706E62AC624FF0E8
:102B30000708C5F82C802C636C63AC63EC63AC7045
:102B4000EC709FEDF80A85ED130A85ED140A85ED0A
:102B5000150A85ED160A85ED170A2C7185ED180A00
:102B600085ED190A85ED1A0A85ED1B0A6C7185ED54
:102B70001C0A85ED1D0A85ED1E0A85ED1F0A85EDEF
:102B8000200A85ED210AC5F88840C5F88C4085EDFE
:102B9000240A85ED250A85ED260A6021E248FDF725
:102BA0006EFBE148046644668466C4660467DF4FD2
:102BB0003846FEF78EFDDE48FEF78BFD7C62DD4871
:102BC000046001210846FEF7F5FBADF86C402020BB
:102BD000ADF86E00686AD84990ED270AADF87440E8
:102BE0008DF87640BDEEC00A10EE100A91FBF0F0B1
:102BF0001C901BA93846FEF7B9FF01254FF060096C
:102C0000ADF800900420ADF80250ADF80400F86A69
:102C10002E0240080290ADF80C40ADF810604FF461
:102C2000007AADF80E40ADF812A069463846FEF7BE
:102C30003FFE69463846FEF775FE69463846FEF7A0
:102C4000BEFE69463846FEF702FF08213846FEF709
:102C500063FE08213846FEF7A8FE08213846FEF735
:102C6000F0FE08213846FEF726FFE802ADF87800AE
:102C70004010ADF87A00ADF87C403C20ADF87E0005
:102C8000ADF880404FF4005BADF882B0ADF8844001
:102C90001EA93846FEF7D1FC01213846FEF7DFFCBD
:102CA00001213846FEF7C0FC0121A448FEF75EFB77
:102CB00001214FF4E060FEF77DFB03213C2000F092
:102CC00083FF9F4807909F4805A9CDE905400F2045
:102CD000CDE90840A802CDE90A404000CDE90C0B3F
:102CE0000E968001CDE90F04DFF85CB211941294C6
:102CF00058461394FDF7C4FC01215846FDF76EFCBD
:102D0000012210215846FDF7A3FC1620CDE922042C
:102D1000A803CDE9240422A8FDF74AFB6807CDE902
:102D20001640CDE914454FF05060CDE91804052058
:102D30008DF8680014A98548FDF750FBDFF810B244
:102D4000179414A958461894FDF748FB14A9814814
:102D5000FDF744FB0120FDF7EDFB0120FDF794FB9F
:102D6000FFF7A0FC01217948FDF719FB0121584626
:102D7000FDF715FB01217748FDF711FB012102202A
:102D8000FEF718FB4FF6FF70ADF86C401C90ADF8E5
:102D90007440ADF86E408DF876401BA96448FEF78C
:102DA000E5FE4FF4FA70ADF800900290ADF80C40DB
:102DB000ADF81060ADF80250ADF80E40ADF812A0BD
:102DC00069465B48FEF774FD08215948FEF7A4FDEB
:102DD00069465748FEF7A6FD08215548FEF7E5FD70
:102DE00069465348FEF7EBFD08215148FEF729FEDE
:102DF00001214F48FEF718FC01214D48FEF72FFC3A
:102E000001214B48FEF75AFC20213846FEF79EFE72
:102E100080213846FEF75FFE00214548FEF755FE4B
:102E200004214348FEF79AFE01213846FEF73DFC97
:102E300001213F48FEF739FC01213846FEF73EFCF0
:102E400001F058F844490220086001460122384840
:102E5000FEF726FD06212E2000F0B6FEFDF7DAFD76
:102E60003E4E20213046FDF7B3FC80213046FDF771
:102E700056FC002804BF41F28836384F0BD10120A0
:102E8000FFF780F9641CB44205DC80213846FDF769
:102E900046FC0028F3D04FF47A70FFF773F9204C0A
:102EA000002626636663A663E663E06BB0F57A6F7F
:102EB000FBDB206BE16B90FBF1F02064606BE16B5E
:102EC00090FBF1F06064A06BE16B90FBF1F0A0640B
:102ED000A57001214020FEF755FAADF86C80ADF8E1
:102EE0007460ADF86E604FF0FF301D4E1C901BA952
:102EF0003046FEF73BFE01213046FEF7D6FB0121AE
:102F0000C802FEF73FFA0020FEF7D4FEFF20FEF7CE
:102F1000DBFE6420FEF7BEFE657027B0BDE8F08FD3
:102F20000C000020000000009C1E0020000001405A
:102F30000004014024040140007A030A0500400017
:102F4000081D002008230140706402400020014059
:102F500000210140002201403404014000040240ED
:102F6000001800402DE9F04FF94800242DED0C8B9E
:102F700087B00460DFF8DCB3BBF80010012020EA62
:102F80001115F548007BF54E50B9706A90F8EC00C9
:102F900030B9002D1EBF07B0BDEC0C8BBDE8F08F23
:102FA0006420FEF77FFEDFF8B893B9F80630B9F871
:102FB0000820B9F80A10E948D0F830C09C44C0F89D
:102FC00030C0D0F834C09444C0F834C0D0F838C011
:102FD0008C44C0F838C0D0F840C0A3EB0C06436C5A
:102FE000D71A826CA1EB0208C16B491CC163DFF8E0
:102FF00074A3CAF80060CAF80470CAF80880406A6E
:1030000090F8ED10002950D0DAF8000020F00040D0
:1030100000EE100ADAF80400F8EEC08A20F0004052
:1030200000EE100ADAF80800B8EEC08A20F000407E
:1030300000EE100AF4EEC88AB8EEC00AF1EE10FAFB
:10304000C4BFF4EEC08AF1EE10FA08DDDAF804002D
:10305000DAF8081008444042CAF8000070E0B4EE04
:10306000E88AF1EE10FAC4BFB4EEC08AF1EE10FAAD
:1030700008DDDAF80000DAF8081008444042CAF81F
:1030800004005DE0B4EEE80AF1EE10FAC4BFB4EE5D
:10309000C80AF1EE10FA53DDDAF80000DAF804108D
:1030A00008444042CAF808004AE090F8EC000028C2
:1030B00018BF002DDBF83400DBF8381020D0884230
:1030C00005D2DBF83400DBF83C108842BED3DBF8D5
:1030D0003800DBF83410884205D2DBF83800DBF822
:1030E0003C108842C5D3DBF83C00DBF83410884242
:1030F00026D2DBF83C00DBF83810884220D2CBE740
:10310000884205D9DBF83400DBF83C1088429DD8B2
:10311000DBF83800DBF83410884205D9DBF83800DA
:10312000DBF83C108842A4D8DBF83C00DBF8341014
:10313000884205D9DBF83C00DBF838108842ABD870
:10314000DAF8000000EE100AF8EEC00A9FED860AD9
:10315000DAF8040060EE808A00EE900A7E4AF8EE0B
:10316000E00A107B60EE80CADFED80BA9FED808AB6
:10317000002800F02D81002D71D0DBF82C005D4679
:1031800000EE900A92ED041ADFF8D0A1F8EE600A82
:10319000DFF8E0B1DAF8101060EE810AFCEEE00A28
:1031A00010EE900AA0F10A0391B1022958D0032928
:1031B00062D005297DD006297CD008297BD0092939
:1031C0007AD00A2904BFCAF81040147347D0F5E03A
:1031D000288840F0020028806748018841F00201F9
:1031E00001806C63AC63EC63CBF80030298821F07C
:1031F00002012980018821F0020101806022002162
:103200002846FEF770FC012200212846FEF730FA1E
:10321000042200212846FEF738FA602204212846BD
:10322000FEF761FC012204212846FEF721FA042260
:1032300011462846FEF729FA602208212846FEF7A3
:1032400052FC012208212846FEF712FA0422082126
:103250002846FEF71AFA01208AF80400AEE0B2E030
:10326000298841F0020129806863AC63E8632888FB
:1032700020F002002880A1E000EE907A92ED011A81
:10328000F8EEE00A00EEC01A82ED011A92ED020A91
:10329000B9F8160000EE900AF8EE600A60EEAB0A8C
:1032A00000EE880A82ED020A1068401C106028882F
:1032B00003E00DE018E03EE060E040F0020028800E
:1032C0006C63AC63EC63288820F00200288075E012
:1032D000298841F0020129806C63A863E86328888B
:1032E00020F00200288069E000EE906A92ED011A59
:1032F000F8EEE00A00EEC01A82ED011A92ED020A21
:10330000B9F8160000EE900AF8EE600A60EEAB0A1B
:1033100000EE880A82ED020A1068401C10602888BE
:1033200040F0020028806C63AC63EC63288820F0D6
:103330000200288042E0298841F002012980686368
:10334000A863EC63288820F00200288036E00000A3
:103350002418004000000140FC1E00200C0000204A
:10336000081D0020281D0020500AA53D6740533A43
:1033700074D19541340401400004014001EE108AEB
:10338000D2ED010AB8EEC11A41EE400AC2ED010ABF
:1033900092ED020AB9F8160000EE900AF8EE600A03
:1033A00060EEAB0A00EE880A82ED020A1068401C4B
:1033B000106000F09FFD0220CBF80000DAF810004A
:1033C000401CCAF8100007B0BDEC0C8BBDE8F08FB4
:1033D000FE4E706A90F8EC1090ED270AF7EE00AA06
:1033E000002904BFF6EE000A20EE200A8AEE809A39
:1033F000F74CB9F8160094ED0A0A00EE900AF8EEC0
:10340000600A60EEAB0A00EEC80AD4ED0A0A9FED2E
:10341000F1DA40EE4D0AC4ED0A0ADFEDEF9AFEF74D
:10342000A3FFB0EE40AA8DED01AA706A90F8A81033
:1034300039B1B0EE4A0ADFEDE90A30EEC00A8DED8F
:10344000010A90ED2B0ADDED010A20EE200AD0EDF5
:10345000290A01A830EE600A8DED010A00F0C0FED5
:103460009DED010ADFEDDE0A20EE200A86ED1C0A42
:1034700094ED040AD6ED020A00F09AFDB0EE40CABF
:1034800094ED040A86ED020AB06ADFEDD61A9FEDCC
:10349000D6BA02287ED0B9F8000000EE100ABBEEC2
:1034A000CA0ADFEDD20AB9F8020020EE200A20EEA7
:1034B000081A00EE100AB9F80400BBEECA0A20EEA2
:1034C000200A20EE080A02EE100ABBEECA2A62EEBB
:1034D000200A60EE880A9FEDC68A21EE081A9FED49
:1034E000C52A694602A800EE421A20EE210A00EE23
:1034F000E10A00EEC21A84ED0B1A84ED0C0A94ED79
:10350000040A00F0B9FDD4ED0B0A9DED000AD4EDDC
:103510000C1A20EE801ADDED020A00EEA11AD4ED9D
:103520000C1A61EE801A94ED0B0A40EEC01A94ED6D
:10353000130AD4ED130AB4EE600AF1EE10FA0CBFD0
:1035400094ED130AB0EE690A84ED130A94ED140A9F
:10355000D4ED140AB4EE600AF1EE10FA14BFB0EE26
:10356000690A94ED140A84ED140A94ED130AD4ED5B
:10357000130A30EE411A9FEDA00A41EE400AC4ED55
:10358000130A94ED141AD4ED140A31EE611A41EEC7
:10359000400A00E04BE0C4ED140A94ED130A974A88
:1035A00084ED150A94ED140A02F1140184ED160A53
:1035B000D4ED0A0A94ED130A081F60EE880AB0EEF3
:1035C000492A80EE201A84ED0D1AD4ED0A0A94EDF2
:1035D000140A60EE880A80EE201A84ED0E1AC4EDFB
:1035E000059AC4ED069AC4ED0F9AC4ED109AC4ED85
:1035F000119AC4ED129AC4ED099AC4ED079AC4ED6C
:10360000089AD4ED061A94ED051AD4ED0C0A94ED3F
:103610000B0A00F0EBFA96ED211AD6ED1C0A96ED96
:103620001A0AFEF767FD84ED040A00F0C9B928EE16
:10363000A10AC4ED058A0CEE8B0A84ED060A94ED0E
:10364000030A10EE100AFCF725FE41EC100B20F0E7
:10365000004000EE100AF8EEC0CA96ED150A8DED96
:10366000020A96ED160A8DED000A706A90ED150AB1
:10367000634884ED020AD4ED030A96ED050A70EE64
:10368000600A00EECD0AF7EE000A86ED050ABFEEED
:10369000000A00F015FED6ED148AF06A002814BF67
:1036A00000250125F06A032812D17069FCF7F2FDAC
:1036B00041EC100B20F0004000EE100A5149B8EE2A
:1036C000C00A10EE100A8842BCBF0125F0EE698ADC
:1036D000F06A012818D196ED190A10EE100AFCF7CD
:1036E000D9FD41EC100B20F0004000EE100A706A8A
:1036F000B8EEC00AD0ED440AB4EEE00AF1EE10FADA
:1037000038BFF0EE698A00D3EDB318EE900AFCF7EB
:10371000C1FD41EC100B20F0004000EE100ADFED7F
:103720003A0AB8EEC00A7CEEE00AB4EEE00AF1EE26
:1037300010FA19D394ED140AB5EEC00AF1EE10FA9E
:1037400034BF4FF0FF30012000EE100AD4ED100A14
:10375000706AB8EEC00A20EE200AD0ED190AB4EE65
:10376000E00AF1EE10FA66D2B9F8160000EE100A7F
:10377000B8EE400A20EE2B0A60EE080A8AEEA00A94
:10378000D4ED030A00E064E078EEE00A706A60EECF
:10379000801A90ED331A21EE218A90ED341A1B48DD
:1037A00061EE200A29EE001A96ED060A00EE810A63
:1037B000F7EE000A86ED060ABFEE000A00F080FD73
:1037C00096ED060A38EE000A22E000000C00002008
:1037D0009C1E0020CDCCCC3D000000000000B44376
:1037E00035FA8E3C3ACD133F3ACD933F33335340B5
:1037F000ABAA2A3FABAAAA3ECDCC4C3E7400002017
:10380000200000208FC2F53CCDCC4C3D2400002090
:103810008DED050AF7EE000ABFEE000A05A800F0DC
:103820004FFD706ADDED050A90ED180A20EE200AC2
:103830008DED000A2CE0F5EEC08AC6ED069AC4EDC7
:10384000028AF1EE10FA90ED180AD8BFB1EE400AE4
:10385000EEE7F06A03281BD10098FCF71BFD41EC52
:10386000100B20F0004000EE100AB5EEC0CAB8EE12
:10387000C00AF1EE10FA8DED000AC8BFB1EE400AA1
:10388000D6DCB5EEC0CAF1EE10FA08BFCDED009A55
:10389000F07878B9BF4AD4ED061A02F1140194ED1C
:1038A000051AD4ED0C0A94ED0B0A081FB0EE492A54
:1038B00000F09CF9FEF708FD002808BF96ED1D0AF0
:1038C00007D096ED211AD6ED1C0A96ED1A0AFEF7DE
:1038D00011FC84ED040AF078002808BFCDED029AAF
:1038E000F06A052808BFC4ED049A11D0F06A0628D2
:1038F0000ED196ED070AD6ED170AA74809EE200A61
:1039000086ED070A00F088FC96ED070A84ED040AAC
:10391000F07800281CBF96ED130A84ED040A94ED9C
:103920000E8A9E4918EE100A88420CDD706A90EDEE
:103930001A0A90ED1B1A6846C0EE080A81EE080AC2
:1039400000F0BEFC10E018EE100A954988420BD931
:10395000706A90ED1B0A90ED1A1A6846C0EE080ACC
:1039600081EE080A00F0ACFCB5EEC08A706AF1EE98
:1039700010FA07DDD0ED180A90ED190A684600F03C
:103980009FFC0AE090ED190AF1EE400A90ED180A4A
:103990006846B1EE400A00F093FC706AD0ED190A57
:1039A00090ED180A00F0FAFB694602A800F05AFCF4
:1039B0009DED020A84ED000A9DED000A84ED010AE6
:1039C00094ED0D0AD4ED0D0A94ED0E1A20EE200AA6
:1039D000D4ED0E0A00EE810A10EE100AFCF75AFC34
:1039E00041EC100B00F066FA94ED140AB5EEC00A33
:1039F000F1EE10FA34BF4FF0FF310121484300EEE1
:103A0000100A684DB8EEC00A20EE0B0A84ED030AD6
:103A100095ED000A95ED001AD4ED040AB4EE410AC2
:103A2000F1EE10FA14BFB0EE690A95ED000A85EDCB
:103A3000000A95ED000A684630EEC00A8DED000AD6
:103A400000F0EAFB584F97ED000AD7ED000AB4EEFC
:103A5000600AF1EE10FA08BFD7ED009AC7ED009AA0
:103A6000706A97ED000A9DED001AD0ED310A2846E4
:103A700000EE810AD5ED000A40EE090AC5ED000A04
:103A800000F0CAFB9DED001A706A97ED000A21EE66
:103A9000091AD0ED320A03A800EE810A87ED000A68
:103AA00094ED040A8DED030A00F0B6FB9DED030AC8
:103AB000DFED3E0A30EE200ADFED3D0A20EE200A5F
:103AC000F1EE080A20EE200A10EE100AFCF7E2FBE5
:103AD00041EC100BFEF7BEFC04900522002104A867
:103AE00000F018FC0499F068F160081A0328C8BFB8
:103AF000801F03DC10F1020FB8BF801DD6F88810BC
:103B00000144C6F888100028D8BF4042D6F88C106F
:103B10000844C6F88C00706A264A90ED4A0A10EEF6
:103B2000101A914209DD90ED4A0A234910EE100A5D
:103B30008142C8BF86ED25AA15DCD6ED080AB0EE95
:103B40004A0A00F013FA86ED08AA706AD0ED4A0A14
:103B50001A4880EE201A96ED250A31EE000A86ED0D
:103B6000250A00F03DFBB06A022804BF96ED250A45
:103B700096ED180AFEF7C8FF11480068DFED110A3C
:103B800000EE100AB8EE400A20EE200A86ED240A64
:103B900019E4000074000020280000206F12833A0E
:103BA0006F1283BA8C00002090000020DB0F494088
:103BB00083F9223E48E17A3F5C8F823FA0000020DB
:103BC0002418004095BFD63300F1E022090182F8A5
:103BD000001400F01F02012191404009800000F113
:103BE000E020C0F88012C0F800117047F0B5744EA4
:103BF00005462DED0A8BB0EE60BAF0EE40BAB7EE96
:103C0000080A0C46B0EE42CA706A6E49B0EE61AA6C
:103C1000D0ED2C0AD0ED2E9AF0EE41AA60EE808A0B
:103C2000D0ED2D0A81B0174620EE808A91ED100A62
:103C3000D1ED140A20EE200AB5EEC00AF1EE10FA1A
:103C4000ACBFB7EE000ABFEE000A91ED081AD0ED46
:103C5000001AC1EE210A20EE800AD0ED3C0A60EE87
:103C6000880A00EEC08AFEF751FF706A90F8F410DF
:103C700071B110EE101A544A914209D2DFED530A85
:103C800090ED3E1A68EE200A30EE410A00EE808A7E
:103C900028EEAA9A96ED261AF6EE001A68EE8A8A9F
:103CA00028EE2A0A68EE0A0A29EEA9AA61EE21AADC
:103CB0009FED471A00266CEE019A9FED461A7BEEA7
:103CC000C0BA3BEE60BA6AEE01CAB2EE041A2AEE3E
:103CD00081CA95ED000AD5ED000A94ED001A30EE88
:103CE000490A70EEC90A31EE681AB0EE6A8A68466F
:103CF00020EE200AD4ED000A70EEE80A00EE810AF8
:103D00003AEE400A8DED000AB0EE6C0A00F0EEFAD1
:103D1000002818BFB0EE4C8AB0EE6B1A95ED000A81
:103D2000DDED000AF0EE4B1A30EE490A761C062E45
:103D300020EE080A00EE201A94ED000A30EE680A20
:103D400020EE080A40EE201A95ED000A01EE290A3D
:103D500085ED000A94ED000A01EEA90A84ED000A3F
:103D6000B7DBD5ED000A95ED001A9FED1B0AF4EEC6
:103D7000410AF1EE10FA14BFF0EE400AD5ED000A48
:103D8000C5ED000AD4ED000A94ED001AF4EE410AE4
:103D9000F1EE10FA08BF94ED000A84ED000A95EDEB
:103DA000000A70EE490A94ED000A30EE680A00F04D
:103DB00021F987ED000A01B0BDEC0A8BF0BD0000CF
:103DC0000C0000209C1E00200000A0C00EF87C3BD0
:103DD000ABAA2A3ECDCC4C3E000000002DE9F14FAD
:103DE00086B003A8029001200027DFF8C4900DF1EF
:103DF000180B4FF6FF7AB8460490BBF1000F14BFC2
:103E00003BF817504FF6FF7500242646EA0B4FF497
:103E100080514846FCF7DEFC0AEA45054FF4806114
:103E20004846FCF7D5FCCDF8008000BF0098401C48
:103E300000900A28F9DB4FF480614846FCF776FCD5
:103E40004FF400614846FCF76AFC019000BF4FF454
:103E500000614846FCF763FC009000BF4FF400612E
:103E60004846FCF75CFC0246DDE900100AEA44041F
:103E700000F0A0F9002818BF44F00104CDF800803C
:103E800000BF0098401C00900A28F9DB761C102E19
:103E9000BCDB0298002818BF20F817407F1C04984C
:103EA0008742AADBBDF80C0007B0BDE8F08F000028
:103EB0000008024010B500EE100A2DED028BB1EEA5
:103EC000C08A18EE100A20F00040C0F1FF40C00F79
:103ED0000AD010EE100A20F00040C0F1FF40C00FE1
:103EE00004BF0120FDF76EFF18EE100ABDEC028B37
:103EF00010BD000010B51B4C402200212046FDF7EC
:103F0000F2FD012200212046FDF7B2FB00221146FE
:103F10002046FDF7BAFB402204212046FDF7E3FDD1
:103F2000012204212046FDF7A3FB002204212046A4
:103F3000FDF7ABFB402208212046FDF7D4FD01220E
:103F400008212046FDF794FB002208212046FDF7BA
:103F50009CFB20212046FDF796FC034900200871B8
:103F600010BD0000000001400C00002030EE600A8F
:103F70000C48DFED0D0A10EE101A814205D930EE23
:103F8000200A10EE101A8142F9D810EE101A0748D4
:103F90008142D8BF704730EE600A10EE101A81429D
:103FA000F9DC7047000034C30000B4430000344320
:103FB00030EE600A0C48DFED0D0A10EE101A814257
:103FC00005D930EE200A10EE101A8142F9D810EE11
:103FD000101A07488142D8BF704730EE600A10EED1
:103FE000101A8142F9DC7047DB0F49C0DB0FC94072
:103FF000DB0F4940DFED1B1AB0EEC01A9FED192A06
:1040000071EE211AB0EEC01ADFED172A31EE021A56
:104010009FED162AF5EEC00A30EE811AF1EE10FA85
:104020000ADB70EEE10AC0EE811A61EEA10A10EE21
:10403000A22ADFED0F0A09E071EEE00AC1EE201AB4
:1040400061EEA10A10EEA22ADFED0A0AB5EEC00A5F
:1040500042EE210AF1EE10FA34BFB1EE600AB0EE82
:10406000600A704708E53C1EDE02493EB1507B3FC6
:10407000DB0F493FE4CB164010EE103A404A9FED6B
:10408000411A934205D930EE010A10EE103A9342DC
:10409000F9D810EE103A3C4A934205DD30EE410A61
:1040A00010EE103A9342F9DCB5EEC00ADFED372A84
:1040B0009FED372ADFED371AF1EE10FA60EE220A93
:1040C00020EE023A09D243EE000AC0ED000AF5EEF6
:1040D000C00AF1EE10FA12D208E043EE400AC0ED39
:1040E000000AF5EEC00AF1EE10FA08D220EEE03A2E
:1040F00033EE603A43EE210AC0ED000A07E0B0EE6D
:10410000603A10EEA03A43EE210AC0ED000ADFED5E
:10411000220A30EE200A10EE100A9042C8BF30EE9C
:10412000410AB5EEC00AF1EE10FA60EE220A20EE66
:10413000021A1AD241EE000AC1ED000AF5EEC00AD9
:10414000F1EE10FA08D220EEE00A30EE600A40EEFE
:10415000210AC1ED000A7047B0EE600A10EEA00A15
:1041600040EE210AC1ED000A704741EE400AC1ED60
:10417000000AF5EEC00AF1EE10FAEDD2E3E7000016
:10418000DB0F49C0DB0FC940DB0F494083F9A23F79
:104190007B81CF3E6666663EDB0FC93FB0EEC01A3C
:1041A000F0EEE01AB4EEE11AF1EE10FAD8BFB0EE7C
:1041B000600A70478842D8BF904205DC8A4201DB22
:1041C00008467047104670478142D8BF914203DCD1
:1041D0008242A8BF7047F5E78842F1DC70470000D3
:1041E00010B504462DED028B9FED0A8A90ED000A72
:1041F000F0EE480AFDF776FDB5EEC00A84ED000A40
:10420000F1EE10FA3CBF30EE080A84ED000ABDEC76
:10421000028B10BD0000B4430F4A0168DFED0F0AA6
:10422000914209D990ED000A30EE200A10EE101AE2
:1042300080ED000A9142F5D8094A01689142D8BF41
:10424000704790ED000A30EE600A10EE101A80ED13
:10425000000A9142F5DC7047DB0F49C0DB0FC94013
:10426000DB0F494090ED001AD1ED000ADFF848C09D
:1042700061EE011A0022B0EEC00A40EEA01AF1EE83
:10428000E10A10EE903A6345B8BFDFED0C0AF4EE98
:10429000C00AF1EE10FA0CDDC0EE201A012221EE68
:1042A000210A80ED000A91ED000A20EE210A81ED3D
:1042B000000A104670470000FFE6DB2EFFE6DB2E0B
:1042C00090ED001A0021B4EEE01AF1EE10FAC8BF2A
:1042D000C0ED000A07DCB4EEC01AF1EE10FA38BFE8
:1042E00080ED000A00D2012108467047D0ED000A97
:1042F0000021F4EEC00AF1EE10FA06DCB1EE400A3D
:10430000F4EEC00AF1EE10FA02D280ED000A0121AB
:1043100008467047D0F800C000239445C8BF02602B
:1043200003DC8C45B8BF016000DA012318467047F2
:104330000000010002000100030001000200010072
:10434000040001000200010003000100020001005E
:10435000050001000200010003000100020001004D
:10436000040001000200010003000100020001003E
:10437000060001000200010003000100020001002C
:10438000040001000200010003000100020001001E
:10439000050001000200010003000100020001000D
:1043A00004000100020001000300010002000100FE
:1043B00007000100020001000300010002000100EB
:1043C00004000100020001000300010002000100DE
:1043D00005000100020001000300010002000100CD
:1043E00004000100020001000300010002000100BE
:1043F00006000100020001000300010002000100AC
:10440000040001000200010003000100020001009D
:10441000050001000200010003000100020001008C
:10442000040001000200010003000100020001007D
:10443000504400080000002008010000A41D0008EE
:104440005845000808010020B83D0000B41D0008D0
:10445000000000000000000000000000010000005B
:10446000000000000000000000000000000000004C
:10447000000000000000000000000000000000003C
:10448000000000000000000000000000000000002C
:10449000000000000000000000000000000000001C
:1044A000000000000000000000000000000000000C
:1044B00000000000000000000000000000000000FC
:1044C00000000000000000000000000000000000EC
:1044D00000000000000000000000000000000000DC
:1044E00000000000000000000000000000000000CC
:1044F00000000000000000000000000001020304B2
:104500000102030406070809000000000000000083
:10451000000000000000000000000000000000009B
:10452000000000000000000000000000000000008B
:10453000000000000000000000000000000000007B
:10454000000000000000000000000000000000006B
:08455000000000000000000063
:040000050800018965
:00000001FF
