:020000040800F2
:10000000204800209D010008A5010008A701000864
:10001000A9010008AB010008AD01000800000000C4
:10002000000000000000000000000000AF01000818
:10003000B10100080000000003020008211A0008B6
:10004000B7010008B7010008B7010008B7010008B0
:10005000B7010008B7010008B7010008B7010008A0
:10006000B7010008B7010008B7010008B701000890
:10007000B7010008B7010008B7010008B701000880
:10008000B7010008B7010008B7010008B701000870
:10009000B1050008B7010008B7010008B701000862
:1000A000B7010008B7010008B7010008B701000850
:1000B000B7010008651B0008B7010008B701000878
:1000C000B7010008B7010008B7010008B701000830
:1000D000B7010008B7010008B7010008B701000820
:1000E000B7010008B7010008B7010008B701000810
:1000F000B7010008B70100084D1D0008B70100084E
:10010000B7010008B70100088D1B0008B7010008FF
:10011000B7010008B7010008B7010008051D000875
:10012000B7010008B7010008B7010008B7010008CF
:10013000FD0A0008B7010008B7010008B701000870
:10014000B7010008B7010008B7010008B7010008AF
:10015000B7010008B7010008B7010008B70100089F
:10016000B7010008B7010008B7010008B70100088F
:10017000B7010008B7010008B7010008B70100087F
:10018000B7010008B7010008DFF80CD000F0D0F884
:10019000004800475D370008204800200648804797
:1001A00006480047FEE7FEE7FEE7FEE7FEE7FEE75C
:1001B000FEE7FEE7FEE7FEE7511A000889010008A6
:1001C000EFF3108072B6704780F3108870472048B4
:1001D0004FF0FF010170002080F309881D480121C4
:1001E00001701D484FF08051016062B6FEE71A4869
:1001F0004FF080510160704717484FF08051016007
:10020000704772B6EFF3098040B1403880EC108A35
:10021000203880E8F00F11490968086000B51048DF
:1002200080475DF804EB0F480F490A7802700B48CD
:100230000E490A680260106890E8F00F203090ECD8
:10024000108A403080F309884EF0040E62B6704781
:1002500022ED00E04F01002004ED00E068010020E5
:100260004D1400084C0100204D01002070010020B9
:1002700040EA01039B0703D009E008C9121F08C028
:10028000042AFAD203E011F8013B00F8013B521EA8
:10029000F9D27047D2B201E000F8012B491EFBD21F
:1002A00070470022F6E710B513460A460446194681
:1002B000FFF7F0FF204610BD00F0004230F0004094
:1002C0000AD0C10D01F56071C0F3160042EA015178
:1002D000C208400711437047002001467047F0B440
:1002E00000F0004221F0004120F00040CE0DC30D8F
:1002F000C1F3160141F40001C0F316004C4215464B
:1003000040F40000761E09E010EB440002D582F0B4
:10031000004240428842F7D840005B1EB342F9DAFF
:1003200018B1F0BC002100F01EB82846F0BC7047A0
:10033000064C074D06E0E06840F0010394E8070032
:1003400098471034AC42F6D3FFF722FF70570008ED
:10035000905700080029A8BF7047401C490008BFFB
:1003600020F00100704710B4B0FA80FC00FA0CF0E5
:1003700050EA010404BF10BC704749B1CCF120041D
:1003800021FA04F411FA0CF118BF012121430843AA
:10039000A3EB0C01CB1D4FEA00614FEA102042BFD6
:1003A000002010BC704700EBC35010440029A4BFCC
:1003B00010BC7047401C490008BF20F0010010BC71
:1003C000704730B58C1810F8012B12F00F0301D1D3
:1003D00010F8013B120906D110F8012B03E010F8C8
:1003E000015B01F8015B5B1EF9D101E001F8013B03
:1003F000521EFBD1A142E6D3002030BD0029816806
:1004000014BF41F0010121F001018160704700003B
:10041000084AD2F80413084B1940D0E9003C43EADB
:100420000C03D0E902C04CEA000018430843C2F8AC
:100430000403704700200140E030FCFF10B4426824
:10044000D1E9003C22F4807222F0407242EA0C2290
:100450001A43426082680C4B1A40D1E904C343EA54
:100460000C03D1E9024C4CEA440C43EA0C031A4356
:100470008260C26A097E22F47002491EC9B242EA51
:100480000151C16210BC7047FDF7FFC030B40725B1
:1004900009290CD9C468A1F10A0C0CEB4C0C05FA23
:1004A0000CF5AC4303FA0CF32343C36009E0046981
:1004B00001EB410C05FA0CF5AC4303FA0CF32343B2
:1004C0000361836BC3F3015CA2EB0C02921C02EB91
:1004D00082024FF01F0C0CFA02FC23EA0C0391403D
:1004E0001943816330BC704705490028D1F80403E3
:1004F00014BF40F4005020F40050C1F804037047CA
:100500000020014030B4072509290CD9C468A1F1A5
:100510000A0C0CEB4C0C05FA0CF5AC4303FA0CF38B
:100520002343C36009E0046901EB410C05FA0CF5B3
:10053000AC4303FA0CF3234303614FF01F0C072A6B
:100540000CD2436B521E02EB82020CFA02FC23EA2D
:100550000C0391401943416330BC70470D2A0CD203
:10056000036BD21F02EB82020CFA02FC23EA0C039B
:1005700091401943016330BC7047C36A0D3A02EBE6
:1005800082020CFA02FC23EA0C0391401943C16277
:1005900030BC704705490028D1F8040314BF40F46B
:1005A000000020F40000C1F804037047002001405F
:1005B00010B50C4C0221204600F0DEF8002808BFE0
:1005C00010BD09480078094900EB800001EB80026A
:1005D0000021204602F06EF82046BDE810400221BE
:1005E00000F006B800640040340100208C24002094
:1005F00010B4082304224FF0100CB1F5007F40D056
:1006000021DC202902BF036110BC704710DC0129E6
:1006100001BF1D49816010BC7047042902BFC3603F
:1006200010BC7047082908BFC0F80CC010BC704748
:10063000402902BFC0F810C010BC7047B1F5807FE0
:100640001FD010BC70470024B1F5004F08D00BDC60
:10065000B1F5806F15D0B1F5006F1CBF10BC7047AD
:100660008461426010BC7047B1F5803F02BF4360B7
:1006700010BC7047B1F5003F08BFC0F804C010BC03
:100680007047426010BC70470101010030B4827AAB
:10069000344B012191401A6842F001021A60DFF8E0
:1006A000C8C0DCF800208A43CCF80020047B2F4A25
:1006B000D4B914688C4314604488C58844EA05445E
:1006C000857AED0005F1804505F5C045C5F8404641
:1006D0000588848845EA0445847AE40004F180446E
:1006E00004F5C044C4F84456047B012C18D11468A6
:1006F0000C431460847A0268E40004F1804404F539
:10070000C0444FEA3242C4F84026847A4268E4008A
:1007100004F1804404F5C0444FEA3242C4F8442650
:10072000C47A134A002C14680CBF8C430C43146029
:100730000489104A14B914688C4314600489012C8C
:1007400002D114680C4314600069012804D1DCF85C
:1007500000000843CCF80000186820F00100186081
:1007600030BC7047006600401C6600400C660040CC
:100770000466004014660040436900220B427DD0AD
:10078000B1F5807F5CD010DC082935D006DC01296A
:1007900020D0022924D0042928D06FE0102931D09C
:1007A000202935D0402939D068E0B1F5004F5FD01D
:1007B00009DCB1F5007F49D0B1F5806F4CD0B1F5BF
:1007C000006F4FD05AE0B1F5803F2DD0B1F5003F1A
:1007D00030D053E080682A49002208424DD14DE0D4
:1007E000C068002210F0030F47D147E0C068002224
:1007F00010F0080F41D141E0C068002210F0100F46
:100800003BD13BE00069002210F0030F35D135E009
:100810000069002210F0080F2FD12FE0006900229C
:1008200010F0100F29D129E04068002210F0080FC5
:1008300023D123E04068002210F0100F1DD11DE0ED
:100840008069002210F0010F17D117E080690022A3
:1008500010F0020F11D111E08069002210F0040F96
:100860000BD10BE08069002210F0700F05D105E07C
:100870004068002210F0040F00D00122104670479B
:1008800001010100002A426914BF114322EA01015B
:10089000416170470368002223F00203036003688C
:1008A00043F0010303604FF6FF73D0F804C01CF05F
:1008B000010F03D19A4218BF521CF6D1426812F0C0
:1008C000010F5DD08A68012A02680CBF42F08002E5
:1008D00022F080020260CA68012A02680CBF42F05E
:1008E000400222F0400202600A69012A02680CBF3D
:1008F00042F0200222F0200202604A69012A0268C6
:100900000CBF42F0100222F0100202608A69012A34
:1009100002680CBF42F0080222F008020260CA69B5
:10092000012A02680CBF42F0040222F004020260B5
:100930008A7891F803C04FEA827242EA0C6291F819
:1009400004C042EA0C4291F805C0098842EA0C5200
:10095000A1F1010142EA0101C161016821F0010137
:1009600001604FF00001426812F0010F1CBF994274
:10097000491CF8D1406810F0010F04BF01207047F6
:100980004FF00000704700EB0113D3F8B0C11CF02A
:10099000040C82F808C0D3F8B0C107BF4FEA5C5C12
:1009A000C2F800C04FEADC0CC2F804C0D3F8B0C1F2
:1009B0000CF0020C82F809C0D3F8B4C10CF00F0C93
:1009C00082F80AC0D3F8B4C14FEA1C2C82F813C0D5
:1009D000D3F8B8C182F80BC0D3F8B8C14FEA1C2CC9
:1009E00082F80CC0D3F8B8C14FEA1C4C82F80DC095
:1009F000D3F8B8C14FEA1C6C82F80EC0D3F8BCC162
:100A000082F80FC0D3F8BCC14FEA1C2C82F810C08A
:100A1000D3F8BCC14FEA1C4C82F811C0D3F8BC31EA
:100A20001B0E937421B1016941F0200101617047EF
:100A3000C16841F02001C160704710B40246002037
:100A4000936813F0806F3ED002EB0012D2F8803131
:100A500003F00103C2F880310B7A002B42D0D2F8A8
:100A600080C14C684CEA030391F809C04CEAC40CFD
:100A700043EA0C03C2F880318B7A03F00F038B72C8
:100A8000D2F8843123F00F03C2F88431D2F88431D4
:100A900091F80AC043EA0C03C2F88431CB7AD1F84A
:100AA0000CC043EA0C23C2F88831CB7B096943EAC6
:100AB0000121C2F88C11D2F8801141F00101C2F875
:100AC000801110BC7047906810F0006F18BF0120B3
:100AD000BAD1906810F0805F14BF02200420B3D117
:100AE00010BC7047D2F8803191F809C043EA0C037A
:100AF000B1F800C043EA4C53BCE7000070B500F009
:100B0000F9F9084C084D2146284600F02FF828B185
:100B100003F096FC2146284600F008F8BDE8704036
:100B200000F0F6B92080002070640240064A90422E
:100B300034BF0648064811F0005F064A01EA020188
:100B400014BFC160816070471064024000600240C1
:100B5000006402407D0F7D0F0029016814BF41F041
:100B6000010121F00101016070470000124A0023D9
:100B7000904234BF114A124ADFF848C011EA0C0F04
:100B800004BF406900F0800006D04FF01E0C0068E2
:100B90000CEAD12C00EA0C0011F0005F14BF52687F
:100BA0001268DFF824C002EA0C020A421CBF0028C7
:100BB00001231846704700001064024000600240A4
:100BC000006402403C0F3C0F7D0F7D0F11F0800F41
:100BD00007D04369002A0CBF23F0800343F0800351
:100BE0004361802908BF704701F01E01002A026896
:100BF0000CBF22EA010111430160704710B4026882
:100C00001B4BD1F80CC01A400B6843EA0C03D1E926
:100C100005C44CEA040C43EA0C03D1F81CC043EAB7
:100C20000C03D1F820C043EA0C03D1F824C043EAF6
:100C30000C03D1F828C043EA0C03D1F834C043EACE
:100C40000C03D1F838C043EA0C031A43026042692E
:100C5000D1E90B3C22F0070243EA0C031A4342613C
:100C60000A6942604A6882608968C16010BC704746
:100C70003F801CF0CB0800EB8300036A4907C90ED4
:100C80004FF00F0C0CFA01FC23EA0C030362036A19
:100C900002FA01F11943016270470246002012690D
:100CA0000A4218BF01207047418370472DE9F04F79
:100CB0004FF0000CDDE909874FF001094FF0030AFE
:100CC00009FA0CF501EA0504AC4238D1D0F800B0BD
:100CD0004FEA4C040AFA04F62BEA060BC0F800B0FF
:100CE000D0F800B002FA04FE4BEA0E0BC0F800B0D8
:100CF000012A18BF022A18D1D0F808B02BEA060B37
:100D0000C0F808B0D0F808B008FA04FE4BEA0E0BA1
:100D1000C0F808B0D0F804B02BEA05054560456876
:100D200003FA0CFB45EA0B054560C56825EA060594
:100D3000C560C56807FA04F445EA0404C4600CF110
:100D4000010CBCF1100FBBD3BDE8F08F01837047DD
:100D5000002A14BF018341837047000070B586B03C
:100D600000F0C6F8514A002414639470D4701472D1
:100D7000D471D460D46194615461547094712046EC
:100D800002F134010C54401CC0B20828FAD314718B
:100D900054719462464841F258411462491E090454
:100DA00000F8014B090CF9D142494FF48070401E04
:100DB000000401F8014B000CF9D1DFF8F4C0431C2A
:100DC000D9B2C0EBC00000EB4000C1EBC1010CEB9D
:100DD000800001EB41010CEB8101416136A1C1644E
:100DE000D8B23D28EBD3C0EBC00000EB40000CEBC9
:100DF000800031A14461C1643049C2F824C04FF47D
:100E00009670D462401E000401F8014B000CF9D129
:100E1000DFF8A8C0411C00EB80008BB20CEB800017
:100E200003EB83030CEB83030470436088B20E284A
:100E3000F0D300EB80000CEB800004704460C2F83B
:100E400010C000F0B7FB00F0E9FB00F00DFC1C48FF
:100E50004FF6FF71CDE9001080260325029600F5BC
:100E6000FE723F2300211748CDE9034500F028F921
:100E700005AA15A13F2000F081F917484FF6FE7131
:100E8000CDE90010029600F5FE723E2300211348C2
:100E9000CDE9034500F014F905AA11A13E2000F0A8
:100EA0006DF906B0BDE8704000F023B8480100209D
:100EB000A02E0020A02D00203F000000742800205C
:100EC000A02B00204118000875432F4F532D49498E
:100ED0002049646C65000000A02900205D1800080E
:100EE00075432F4F532D49492053746174000000FE
:100EF000704770470549C879012818BF704788783E
:100F0000FF283CBF401C887070470000480100204B
:100F100070B5174CE079012818BF70BDFFF750F984
:100F2000A178054621B1481E10F0FF01A1701AD129
:100F3000E078C0B90F48A1790F4A415C525C805CEF
:100F400000EBC100C2B20D48627150F82210A162DC
:100F50002079824207D0886B401C8863E068401C7F
:100F6000E060FFF749F92846BDE87040FFF72CB96B
:100F700048010020305600087C010020A02D0020F0
:100F800010B5094CE079012818BF10BDFFF718F91A
:100F9000A17821B9E178FF293CBF491CE170BDE887
:100FA0001040FFF711B900004801002010B50D4CAA
:100FB000E079012818BF10BDFFF702F9A17831B917
:100FC000E17821B1491E11F0FF01E17003D0BDE8C5
:100FD0001040FFF7F9B8FFF7F7F8BDE8104000F050
:100FE00063BB0000480100200B49C879002818BFE6
:100FF00070470A4A88790A4B105C1B5CD25C02EB92
:10100000C000C0B2074A4871087152F820008862D7
:101010000862FFF7DCB800004801002030560008E5
:101020007C010020A02D0020704700002DE9F04138
:1010300084B01C4615460E468046FFF7C1F81D4990
:10104000097829B1FFF7C0F804B03C20BDE8F08171
:10105000194F57F8241029B1FFF7B6F804B028202B
:10106000BDE8F081012147F82410FFF7ADF8002317
:101070002A463146404600F0F3F800260146009625
:101080000196334632462046029600F03FFB0500AB
:1010900009D0FFF795F847F82460FFF795F804B0FA
:1010A0002846BDE8F08105480078012808BF00F017
:1010B000FBFAF4E74A010020A02D00204F01002098
:1010C0002DE9FF4F83B01C46DDE91175DDE913867C
:1010D000DDF840B0FFF774F82449097829B1FFF72B
:1010E00073F807B03C20BDE8F08FDFF8849059F822
:1010F000241029B1FFF768F807B02820BDE8F08F69
:10110000012149F82410FFF75FF83946284616F008
:10111000010F4FF0000A1CBF16F0020F002803D089
:1011200041F804AB401EFBD1DDE903013346059ACB
:1011300000F096F8CDE9005801465B463A46204655
:10114000029600F0E3FA050009D0FFF739F849F8F4
:1011500024A0FFF739F807B02846BDE8F08F05480E
:101160000078012808BF00F09FFAF4E74A01002048
:10117000A02D00204F0100207047704770B5054634
:1011800012480E461446007800281EBF1220107028
:1011900070BDFFF715F80246FF2D03D10C4800681B
:1011A00090F832500B4850F825004325002818BF0E
:1011B000012806D0C6641046FFF706F8002020700C
:1011C00070BD1046FFF700F8257070BD4A01002081
:1011D00068010020A02D0020704700002DE9F0419B
:1011E0000446002008600E464860FEF7E9FF01460D
:1011F000FF2C03D11848006890F83240174850F887
:101200002400002818BF01280ED0027C12F0010F24
:1012100010D0D0E902474FF000050846FEF7D4FF92
:1012200054F8040B60B110E00846FEF7CDFF4320F0
:10123000BDE8F0810846FEF7C7FF4520BDE8F08114
:1012400054F8040B6D1C0028FAD0781B35607060D0
:101250000020BDE8F081000068010020A02D0020E2
:101260002DE9FF4F002042F8040C42F8080C4FF023
:10127000153142F80C1C4FF0143142F8101C4FF09D
:10128000133142F8141C4FF012334FF0103442F86F
:10129000183C4FF0113C42F81CCC42F8204C5D1039
:1012A00042F8245C661042F8286C4FF0073742F889
:1012B0002C7C4FF0063842F8308C4FF00539A010E6
:1012C00042F8349C42F8380C4FF0033A42F83CACF8
:1012D0004FF0023B42F840BC4FF0013E42F844EC74
:1012E000810542F8481C009842F84C0C6FF001014F
:1012F00042F8501C42F8543C42F858AC42F85CBCEE
:1013000042F860EC019842F8640C4FF0313142F839
:10131000681C4FF0303142F86C1C4FF0293142F814
:10132000701C4FF0283142F8741C4FF0273142F8FE
:10133000781C4FF0263142F87C1C4FF0253142F8E2
:10134000801C590042F8841C4FF0233142F8881C5D
:101350004FF0223142F88C1C4FF0213142F8901CA2
:10136000610042F8941C4FF0193142F8981C4FF07C
:10137000183142F89C1C4FF0173142F8A01C4FF076
:10138000163142F8A41C42F8A8CC42F8AC4C42F802
:10139000B05C42F8B46C42F8B87C42F8BC8C42F8BD
:1013A000C09CA11042F8C41C04B0A2F1C400BDE866
:1013B000F08F000070B50446FEF702FF84461F4818
:1013C000FF2C006804BF90F83240012505D090F84A
:1013D0003200A0420CBF01250025194850F8240016
:1013E00058B101280ED090F83410164B90F83540C3
:1013F0005A5CA2435A540AD010E06046FEF7E4FE5D
:10140000482070BD6046FEF7DFFE432070BD0E49E8
:1014100090F836200B7823EA02020A7090F8301018
:1014200041F0080180F830106046FEF7CDFE002D37
:1014300018BF00F039F9002070BD000068010020DD
:10144000A02D00207C0100204E01002070470000EC
:1014500070B5044614480078002818BF70BD1348C2
:101460000078002818BF70BD002C08BF70BDFEF7C3
:10147000A7FE84460E4801680E4891F8342091F882
:101480003550835CAB43835406D10B4891F836202A
:10149000037823EA020202706046CC62FEF794FEF3
:1014A000BDE8704000F000B94A0100204B01002067
:1014B000680100207C0100204E0100202DE9F04150
:1014C00000F056F8FEF77CFE274D296B491C296376
:1014D000FEF77AFEE879012818BFBDE8F081687A46
:1014E0000126002738B1012808BFBDE8F081022895
:1014F0000CBF6E726F72EC6A94F832003F2814BF12
:10150000DFF86880BDE8F081FEF75AFEE16A11B3AA
:10151000491EE1621FD194F8301011F0370F1DBF42
:1015200001F0C80184F8301084F8316084F831701B
:1015300094F8301011F0080F0DD194F83610AA79F4
:101540001143A97194F8341094F8353018F801203B
:101550001A4308F801206469FEF736FE94F8320059
:101560003F28D1D1BDE8F081480100207C01002056
:101570007047000000B585B0684600F0FFF901989B
:1015800042F21071B0FBF1F0401EB0F1807F24BF39
:1015900005B000BD4FF0E0214861054AF02082F817
:1015A000140D002088610720086105B000BD00000F
:1015B0000FE000E010B550210F4800F023F80020A4
:1015C0000D4B8446411C03EB00108AB203EB021260
:1015D00080F800C0426009A2C26088B20428F1D33A
:1015E00003EB001005A180F800C0C0F804C0C16082
:1015F0000348036010BD0000F84200203F000000D7
:1016000084010020002914BF0022704700F8012B3C
:10161000491E0904090CF9D17047000010B5782162
:101620000E48FFF7EFFF0D4A002000EB400102EBF0
:10163000C10101F118034B60401C09A380B24B614A
:101640000428F2D300EB400002EBC000002141600F
:1016500003A141610348026010BD0000484300201F
:101660003F0000008801002010B560210C48FFF702
:10167000C9FF0B4B0020411C8AB200EB400002EB7B
:10168000420203EBC20243F8302088B20328F2D3AF
:1016900000EB4000002143F830100248036010BD09
:1016A000C04300208C01002010B5FEF789FD134BCC
:1016B00004469878002804BFD878002818D110482C
:1016C0009979104A415C525C805C00EBC100C2B267
:1016D0000D485A7150F8221099621879824207D049
:1016E000886B401C8863D868401CD860FEF77FFD7B
:1016F0002046BDE81040FEF767BD0000480100200D
:10170000305600087C010020A02D00202DE9FF5F4D
:101710009346DDE90F7689460546DDF83880FEF709
:101720004FFDDFF80CA1DAF82440002C79D0616974
:10173000CAF82410FEF748FDC4F8009084F832502F
:101740004FF0000984F8309084F83190C4F82C9060
:10175000C4F80C80C4E9017B26820398608284F877
:101760003790E80884F8340005F00701012284F876
:10177000331002FA00F084F8360002FA01F084F81F
:101780003500C4F81C90C4F82490C4F82090C4F824
:101790003890C4F84090C4F83C9026A0C4F8449017
:1017A000C4E91290002004EB8001401CC1F8509065
:1017B00010F0FF00F7D02046FFF736FCFEF700FDE3
:1017C0001D4941F82540FEF7FFFC2046FFF7D4FCF9
:1017D000FEF7F6FC0246DAF82C00C4E905090028F9
:1017E00018BF8461CAF82C4094F836009AF80610A5
:1017F00008438AF8060094F83400104994F835C07C
:101800000B5C43EA0C030B549AF80800401C8AF85E
:1018100008001046FEF7D8FC04B00020BDE8F09F99
:10182000FFE7FEF7D1FC04B04220BDE8F09F0000C6
:10183000480100203F000000A02D00207C01002076
:10184000054CFEF7BDFCE169491CE161FEF7BCFCFB
:10185000FFF793FCF5E7000048010020264E82B018
:10186000707830B94FF4FA60FFF7F2FD7078002815
:10187000F8D0224970694FF00007A1FB0010400921
:10188000706103D13770FF20FFF794FDFEF798FCDD
:10189000716964225143F161FEF796FC184DFEF721
:1018A0008FFCF169F761B161FEF78EFCD6E9051096
:1018B000B0FBF1F0C0F164003070FFF78DFC002444
:1018C00069462046FFF78AFC60B955F824100029C4
:1018D00018BF012906D0D1E9020200EB820048645A
:1018E0000198886404F10100C4B23F2CE8D94FF498
:1018F0007A70FFF7ADFDD2E7480100201F85EB515C
:10190000A02D0020044A0029116814BF084321EAD1
:10191000000010607047000030380240044A00297F
:10192000116814BF084321EA0000106070470000EE
:1019300040380240044A0029116814BF084321EAD4
:10194000000010607047000020380240044A00295F
:10195000116814BF084321EA0000106070470000BE
:1019600044380240044A0029116814BF084321EAA0
:10197000000010607047000024380240DFF88CC07F
:1019800030B4DCF80010224D11F00C0106D0214CCF
:10199000042908BF046002D008291DD00560DCF8C6
:1019A00000100F221C4B02EA1111595C026822FA46
:1019B00001F14160DCF80020072404EA92229A5CDD
:1019C00021FA02F28260DCF8002004EA52329A5CCA
:1019D000D140C16030BC7047104A1168C1F38053D8
:1019E0001168002B01F03F0114BFB4FBF1F1B5FB0E
:1019F000F1F113681268C3F388135943C2F301422B
:101A0000521C5200B1FBF2F10160C8E708380240F5
:101A10000024F40040787D013601002004380240A3
:101A2000094810B50168491C0160FEF7C9FB074968
:101A30000A78521C0A70FEF7C7FBFFF73FFDBDE8AE
:101A40001040FFF765BA0000900100204A01002015
:101A50003B4882B0016841F4700101603948016877
:101A600041F00101016038494FF0000CC1F800C09D
:101A7000026822F4102222F080720260031D334AB1
:101A80001A60026822F4802202600A1DC2F800C0B7
:101A9000CDF800C0CDF804C0026842F48032026084
:101AA000026802F400320192009A521C0092019ADC
:101AB0001AB9009AB2F5A04FF2D1026812F4003FB1
:101AC00008BFCDF804C034D001220192204AD2F8D8
:101AD00000C04CF0805CC2F800C01E4AD2F800C0C2
:101AE0004CF4804CC2F800C00A680A600A6842F4EC
:101AF00000420A600A6842F4A0520A60164A1A605C
:101B0000026842F080720260026812F0007FFBD02F
:101B1000124A40F205601060086820F00300086077
:101B2000086840F002000860086800F00C0008280F
:101B3000FAD10B494FF00060086002B07047000016
:101B400088ED00E0003802400838024010300024E0
:101B5000403802400070004008544007003C0240FA
:101B600008ED00E010B5084C0121204600F03BFADA
:101B7000002808BF10BD01F04BFC2046BDE8104016
:101B8000012100F03DB900000004004030B5574D80
:101B900001212DED048B83B0284600F024FA0028A3
:101BA00002BF03B0BDEC048B30BD9FED519A524C87
:101BB0005048616C90ED030AD1ED280A91ED291A85
:101BC00091ED282AB0EEC00A60EE811AB7EE001A35
:101BD000DFED4A9AF0EE690A03F062FC84ED2D0A0B
:101BE000E16C022902D0052905D076E0B0EE490A61
:101BF00003F00EFA71E094ED211A94ED2E0AE06CD8
:101C000006281CBFC4ED0D9AC4ED0E9A65D1616C17
:101C100030EE418A91ED3B0A28EE091A20EE080ABF
:101C20008DED000AD1ED3C0A94ED0D0A00EE810A1B
:101C300084ED0D0A94ED0F0A30EE090A84ED0F0AC7
:101C400094ED0E1AB4EE418AF1EE10FA08BFF0EEF0
:101C5000698A09D0D1ED3D1AC4ED0F9AC1EE800A10
:101C600038EE410A60EE808AD4ED109A91ED3E0A7A
:101C7000684679EEE80A40EE609AB7EE000AC4EDD5
:101C8000109A03F0C1FC9DED000AF7EE000A1C4813
:101C9000B0EEC00A30EEC00A03F0B6FC84ED0E8A46
:101CA000DDED000A94ED0D0A01A830EE800AF7EE92
:101CB000000A30EE290A8DED010ABFEE000A03F09A
:101CC0008DFC9DED010AD4ED2F0A20EE200A84ED53
:101CD000220AB0EE490A03F09BF903B02846BDEC96
:101CE000048B0121BDE8304000F08AB8000C0040B0
:101CF0006F12833A042400207400002000000000CA
:101D0000A800002038B50E4C0121204600F06BF9E8
:101D1000002808BF38BD0B4840780B4900EB800015
:101D200001EB8000016900910FC800F0ABFC00F0EE
:101D3000EFFC2046BDE83840012100F061B800000A
:101D400000140040340100208C24002010B50A4CFF
:101D50000221204600F047F9002808BF10BD0748BF
:101D6000807818B12021064800F03BF92046BDE8F4
:101D70001040022100F044B800040140740000202B
:101D8000000001400029018814BF41F0800121F0CA
:101D90008001018070470A884B88B1F806C01A4359
:101DA0008B8843EA0C031A430B891A434B898989B0
:101DB0001A431143A0F8441070470029818814BFCA
:101DC00041F0010121F00101818070470123B0F849
:101DD00020C08B402CEA03030384038C02FA01F138
:101DE0001943018470470423B0F820C08B402CEACB
:101DF00003030384038C02FA01F119430184704741
:101E0000C943018270470029018814BF41F00101D4
:101E100021F00101018070470029B0F8441014BF7F
:101E200041F40041C1F30E01A0F84410704710B511
:101E3000A0F18041B1F580314AD0B0F1804F5BD044
:101E4000A0F18041B1F580614CD0A0F18041B1F5A5
:101E500000615BD0A0F18041B1F5406160D0A0F19C
:101E60008041B1F5805165D0A0F18041B1F5A0511C
:101E70006AD0A0F18041B1F582316FD0A0F18041EC
:101E8000B1F5A03174D0A0F18041B1F5A2317AD082
:101E9000A0F18041B1F5A4317DD0A0F18041B1F530
:101EA000C05179D0A0F18041B1F5E05175D0A0F1D9
:101EB0008041B1F5005118BF10BD01210802FFF7A4
:101EC00039FDBDE8104000214FF48070FFF732BDAE
:101ED00001210846FFF746FD0021BDE81040012022
:101EE000FFF740BD01210220FFF724FD0021BDE8DE
:101EF00010400220FFF71EBD01210846FFF71AFD22
:101F00000021BDE810400120FFF714BD012104208D
:101F1000FFF710FD0021BDE810400420FFF70ABDC7
:101F200001210820FFF706FD0021BDE81040082030
:101F3000FFF700BD01211020FFF7FCFC0021BDE8E8
:101F400010401020FFF7F6BC01212020FFF7F2FC23
:101F50000021BDE810402020FFF7ECBC0121022049
:101F6000FFF700FD0021BDE810400220FFF7FABC9A
:101F700001210804FFF7F6FCBDE8104000214FF4F2
:101F80008030FFF7EFBC01214804FFF7EBFC002194
:101F90004FF4003002E005E00FE018E0BDE810402B
:101FA000FFF7E0BC01218804FFF7DCFCBDE810402E
:101FB00000214FF48020FFF7D5BC01214020FFF71E
:101FC000B9FC0021BDE810404020FFF7B3BC01215F
:101FD0008020FFF7AFFC0021BDE810408020FFF714
:101FE000A9BC81827047038A002280890B4200EAE3
:101FF00001001CBF0028012210467047002A828978
:1020000014BF114322EA01018181704710B4028C90
:1020100022F001020284028C8388B0F818C00C8878
:102020002CF0730C44EA0C0C8C8922F0020222433F
:102030004C882243A0F18044B4F580341CBFA0F149
:102040008044B4F582340DD1CC8922F008022243B9
:102050008C8822F0040222430C8A23F44073234329
:102060004C8A23438380A0F818C0896841630284A6
:1020700010BC7047028B22F00802114301837047A5
:1020800030B4028C22F010020284028C8388B0F8F3
:1020900018C00D882CF4E6444FF6FF7C0CEA0525A9
:1020A0002C438D8922F020020CEA05152A434D8825
:1020B0000CEA05152A43A0F18045B5F580351CBF13
:1020C000A0F18045B5F5823516D1CD8922F0800288
:1020D0000CEA05152A438D8822F040020CEA05150A
:1020E0002A430D8A23F440630CEA85052B434D8A6D
:1020F0000CEA850C4CEA03038380048389688163BE
:10210000028430BC7047028B4FF6FF7322F40062EA
:1021100003EA012111430183704730B4028C22F499
:1021200080720284028C8388B0F81CC00C882CF06A
:10213000730C44EA0C048D894FF6FF7C22F4007284
:102140000CEA05252A434D880CEA05252A43A0F10F
:102150008045B5F580351CBFA0F18045B5F58235C9
:1021600016D1CD8922F400620CEA05252A438D8818
:1021700022F480620CEA05252A430D8A23F4405399
:102180000CEA05152B434D8A0CEA051C4CEA0303A7
:10219000838084838968C163028430BC7047828BEA
:1021A00022F0080211438183704730B4028C22F47C
:1021B00080520284038C8288B0F81CC00D884FF6D0
:1021C000FF742CF4E64C04EA052545EA0C0C8D89D5
:1021D00023F4005304EA05352B434D8804EA053502
:1021E0002B43A0F18045B5F580351CBFA0F180459B
:1021F000B5F5823505D10D8A22F4804204EA8514B2
:1022000022438280A0F81CC089680164038430BC2A
:102210007047828B4FF6FF7322F4006203EA0121BC
:10222000114381837047028922F0700211430181BA
:102230007047028922F080020281028911430181E4
:10224000704710B44FF0010C048C00F118030CFA25
:1022500001FC24EA0C0CA0F820C0002918BF0829B2
:1022600014D0A1F10400C0F34E001844016848F6F0
:10227000FF7301EA0301016001684FF6FF7303EA8F
:10228000022241EA0201016010BC704703EB5100D9
:1022900001684FF68F7301EA03010160016841EAAA
:1022A0000201016010BC7047828822F070028280B7
:1022B0008288114381807047028922F007020281DF
:1022C000028911430181704710B402881C4BDFF86A
:1022D00074C0984218BF604511D0B0F1804F1CBF48
:1022E000A0F18044B4F5806409D0A0F18044B4F535
:1022F00000641CBFA0F18044B4F5406403D14C8855
:1023000022F070022243A0F18044B4F580541CBF37
:10231000A0F18044B4F5A05403D00C8922F440729B
:10232000224302804A68C2620A880285984212BF2C
:102330006045897A01864FF00101818210BC7047A7
:102340000000014000040140154D0126022704242D
:10235000A5F102082E804FF4FA7000F031FF2F80B3
:102360004FF4FA7000F02CFF2C804FF4FA7000F05C
:1023700027FFA8F800604FF4FA7000F021FFA8F8DA
:1023800000704FF4FA7000F01BFFA8F800404FF403
:10239000FA7000F015FFC82000F012FFDAE7000025
:1023A0001A0402400A2000F00BFFFBE710B5FFF70C
:1023B000E1F8FDF705FF04461423094A0021094806
:1023C000FEF734FE3723084A00210848FEF72EFEA8
:1023D0003C20FEF7EFFF2046BDE81040FDF7F4BEBD
:1023E00094150020A5230008941D0020492300080F
:1023F00010B52DED028BF0EE408A18EE900AB0EE8B
:10240000608A20F00040C0F1FF40C00F07D118EEF5
:10241000100A20F00040C0F1FF40C00F2BD018EE92
:10242000101A18EE900AFDF75AFF00EE100A10EE8F
:10243000100A6FEAD05010F0FF0F04BFBDEC028B02
:1024400010BD18EE900A00F0004110EE100A00F0E6
:102450000040814204BFBDEC028B10BD18EE101A83
:1024600010EE100ABDEC028B61F31E0000EE900A24
:1024700030EE600A10BD18EE900A4FF07F41B1EBCC
:10248000400F1CBF18EE100A5FEA4000C7D10120C0
:1024900000F0E2F8BDEC028BBDE8104000F0C4B8DB
:1024A00010EE100A10B50023A0F50001B1F1FE4FA7
:1024B00067D200BF00F500216FF07E0202EBE15C05
:1024C000C1F302524FF07E5101EB025100EE901A1F
:1024D000A0EBCC5003EB0C0100EE100A51EA020015
:1024E00036D030EE601A70EE200A9FED3D2A3E484D
:1024F00081EE200A9FED3B1A60EE000A00EE821A80
:1025000060EE201A61EE810A784401EE101A00EBA9
:1025100082009FED362AB8EEC11AD0ED001A344879
:1025200041EE021A784401EE101A00EB8200B8EE78
:10253000C11A90ED002ADFED2F2A01EE222AB0EE1B
:10254000001A72EE200A40EE010A31EEA00A10BD18
:10255000F7EE000A9FED291A30EE600ADFED260A39
:1025600000EE201ADFED260A60EE001A40EE010AA6
:102570009FED241A00EE201A61EE810A30EE200A47
:1025800010BD4FF07F41B1EB400F03D2BDE81040CA
:1025900000F046B8B0F1FF4F08BF10BDB5EEC00A5D
:1025A000F1EE10FA06D2012000F056F8BDE8104016
:1025B00000F03AB8B5EEC00AF1EE10FA07D10220E9
:1025C00000F04AF800F022F8B1EE400A10BDDFED4D
:1025D0000E0A6FF0160320EE200A10EE100A69E7CB
:1025E00066F1CC3EAAAA2A3F243200000070313F97
:1025F00028320000F4FD053821ED423E0A1180BE6C
:10260000C1ABAA3EFFFFFFBE0000004BDFED030A97
:10261000B7EE001A81EE200A7047000000000000AB
:1026200030EE000A70470000DFED020A80EEA00ADB
:10263000704700000000000002E008C8121F08C137
:10264000002AFAD170477047002001E001C1121F33
:10265000002AFBD170470000014908607047000064
:102660009401002010B413684FEA112C5C1C146014
:1026700000F803C0136803F1010CC2F800C0C15494
:1026800010BC7047094908784A78904208BF7047E3
:102690004878401C064AA2FB003212096FF018036A
:1026A0005A4300EB4200487070470000340100209C
:1026B0001F85EB5170B5134D14462A78124E531CEA
:1026C000A6FB03C212096FF0180C02FB0CF203EB1D
:1026D00042026B789A4208BF70BD0C4AFEF753F96C
:1026E0000A4890E80F1084E80F102878401CA6FBD9
:1026F000002109096FF01802514300EB41002870D6
:1027000070BD0000340100201F85EB5164240020BF
:1027100010B500242DED028B88B005AA012106A872
:102720000594FFF79FFF01F03FF9BDEEC00A05AA2F
:1027300010EE100A01B206A8FFF794FF01F04CF961
:10274000B2EE048A05AA20EE080ABDEEC00A10EE19
:10275000100A01B206A8FFF785FF01F023F920EE69
:10276000080A05AABDEEC00A10EE100A01B206A8BA
:10277000FFF778FF059806A9C2B2082A88BF082289
:102780008DF8084040F2815000908DF809408DF896
:102790000A200DF10B00FDF76BFD69460348FEF7BB
:1027A0004CF908B0BDEC028B10BD00000064004085
:1027B0002DE9F043364891B00025057045700121A0
:1027C0004806FFF7ABF80695082005958DF804003C
:1027D0008DF8025003208DF80350DFF8B890029571
:1027E0008DF80500ADF8000003950495079569463E
:1027F0004846FEF74FF80024012640F2FF774FF6D7
:10280000F87804F5A060400BADF82000E0008DF8EA
:102810002A4000F520508DF82B50ADF82200ADF87D
:1028200024708DF82C60ADF82680ADF8285008A8EB
:102830000C96FDF72BFF641C092CE2DB164C20469E
:10284000FFF7F5FA154805604AF20F40ADF834601D
:102850000E90ADF83C50ADF836508DF83E500DA9B5
:102860002046FFF731FD012211462046FFF7C6FB47
:102870000A21372002F0C2FA0B21142002F0BEFA1E
:10288000012202214846FDF7FDFF11B0BDE8F083AB
:102890003401002000640040001400402414004073
:1028A00010B504464FF49671FDF7FBFCF1EE040AF7
:1028B000C4ED000AB9EE040A84ED010AB2EE041A6E
:1028C00084ED021AFAEE041AC4ED031A9FED782A79
:1028D00084ED042A9FED772A84ED052A9FED762A60
:1028E00084ED062A9FED752A84ED072A9FED742A50
:1028F00084ED082A9FED732A84ED092A9FED722A40
:1029000084ED0A2ADFED712A0120C4ED0B2AF3EED3
:10291000072AC4ED0C2A84ED0D2A84F838009FEDB7
:102920006C2A84ED0F2ADFED6B2AC4ED102A84EDAA
:10293000112AC4ED122A9FED682A84ED132A9FED17
:10294000672A84ED142A9FED662A84ED152A9FEDEF
:10295000652A84ED162A9FED642A84ED172AC4EDBA
:10296000180A84ED190A84ED1A1AC4ED1B1AC4ED75
:102970001C0A84ED1D0A9FED5D0A84ED1E0A9FED81
:102980005C0A84ED1F0A9FED5B0A84ED200A9FED2F
:102990005A0A84ED210A84F88C009FED580A84EDD0
:1029A000220AB1EE0C0A84ED240A9FED550A84ED4B
:1029B0002A0A9FED540A84ED2B0A9FED530A84EDF9
:1029C000250A9FED520A84ED260A9FED510A84EDF7
:1029D000270A9FED500A84ED280A9FED4F0A84EDE7
:1029E000290A84ED2C1A9FED4D0A84ED2D0A9FEDE6
:1029F0004C0A84ED2E0A84ED2F0ADFED4A0A0020EE
:102A0000C4ED300A84F8C40084F8C50084ED320AAD
:102A100084F8CC00F3EE090AC4ED340ADFED420A73
:102A2000C4ED350A9FED411A84ED361A84ED371A4C
:102A30009FED3F1A84ED381A9FED3E1A84ED391A46
:102A400084ED3A0ADFED3C1A4FF4FA71C4ED3B1AFB
:102A500084ED3C0A9FED390A84ED3D0A84ED3E1A6F
:102A6000B7EE000A84ED3F0A9FED350A84ED400A77
:102A70009FED340A84ED410A9FED330AC4ED420A0A
:102A800084ED430A9FED310A84ED440A9FED300A3C
:102A9000C4F8141184ED460AB6EE000A84ED470A24
:102AA00084F82001C4F824011020C4F8280110BDC6
:102AB000000002430050C3C70050C347CDCC4C3F79
:102AC000000096430080BB440000B4410000CC41AC
:102AD0000000AA420000C8429A99193E0AD7A33BB7
:102AE0003333733F00606A4600606AC652491D3B3B
:102AF0006666264100409C460AD7A33D33B34A434D
:102B00000000FA4400401C477E601E36C3642A3C25
:102B1000772E0C3B8C3E504D9A99993E00004843CD
:102B20000000000000401C45CDCCCC3D6F12833B23
:102B300017B7D138CDCC4C3E8FC2F53C17B7D13941
:102B4000004003450AD7233C99BB963B0AD7233D57
:102B50000AD7A33CF0B504462DED048B83B0B0EE4C
:102B6000409A90ED040A01A902A802F007FC94ED36
:102B7000020AFD4DB0EEC00A8DED000A686CD0ED82
:102B8000150A9FEDFA0A684602F028FD94ED050A41
:102B9000DDED010AD4ED061A20EE201A9DED020AA1
:102BA00000EE211A84ED0F1A94ED061A61EE200A48
:102BB00094ED051A40EE410AC4ED100AD4ED110A55
:102BC00094ED0F0A686C70EEC00A94ED110A90ED56
:102BD000351A01EE600A84ED110A94ED120AD4ED63
:102BE000100A90ED351A70EE600A94ED120A01EEAB
:102BF000600A84ED120A94ED000AD4ED0F0A70EE1B
:102C0000608A94ED010AD4ED100A30EE608A94EDEA
:102C1000150AD0ED1E0A08EEA00A84ED130A94ED01
:102C2000160AD0ED1E0A08EE200A84ED140A01F0FF
:102C30001BF9686CD0ED1F0A90F8CC1071B110EE42
:102C4000101ACB4A914209D29FEDCA1AD0ED341A1C
:102C500020EE811A30EE610A41EE000A94ED151A59
:102C600020EE890A08EE801A84ED151AD4ED160AB2
:102C700048EE000AC4ED160A94ED0A0ADDED000ADA
:102C800020EE200ADFEDBC8A9FEDBC9A9FEDBC8A46
:102C900004F15001081F20EE080A02F071FCD4ED87
:102CA0000A0A94ED130A04F1540060EEA80A80EEBB
:102CB000201A84ED0D1AD4ED0A0A94ED140A60EE80
:102CC000A80A80EE201A84ED0E1A94ED0A0ADDEDB2
:102CD000000A20EE200A20EE080A02F095FC94ED8E
:102CE0000A0ADDED000A04F1580020EE200A20EE69
:102CF000080A02F089FC94ED0D0AD4ED0F0A94ED58
:102D0000101A20EE200AD4ED0E0A00EE810A84ED9E
:102D1000090A94ED0F0AD4ED0F0A94ED101A20EE73
:102D2000200AD4ED100A00EE810AF1EEC00AC4EDCB
:102D3000070A94ED110AD4ED110A94ED121A20EE4F
:102D4000200AD4ED120A00EE810AF1EEC00AC4EDA9
:102D5000080A94ED0D0ADDED010A94ED0E1AD4ED8A
:102D6000012A20EE202A9DED020A00EE412A94ED70
:102D70000E1A61EE201A94ED0D1A40EE011A94ED30
:102D8000001A21EE201A00EE621AD4ED012A62EE3A
:102D9000A02AD4ED000AB5EEC01A40EE202ABEEEFD
:102DA000000A21EE000AF0EE400A02EEC90A42EEE5
:102DB000890AF1EE10FA34BF4FF0FF30012001EE26
:102DC000100AF5EEC00AB8EEC11A21EE281AF1EE8B
:102DD00010FA34BF4FF0FF30012002EE900AB8EE37
:102DE000E23ADFED682AB5EEC00A03EE621AF1EEB0
:102DF00010FA34BF4FF0FF30012003EE100AF5EE59
:102E0000C00AB8EEC33A03EE621AF1EE10FA34BF0C
:102E10004FF0FF30012000EE900AB5EEC00AF8EE48
:102E2000E00A60EE880AF1EE10FA34BF4FF0FF308E
:102E3000012000EE100A686CB8EEC00AD0ED202A1E
:102E400040EE480A90ED210A20EE220ADFED4E2ADC
:102E50004E4E20EE220A21EE001A20EE800AD4ED1A
:102E60000A0A32EE411A31EEC00A21EE281A20EE8B
:102E7000280A60EE810AC4ED0B0AD4ED0A0A20EE9E
:102E8000800A84ED0C0AF06AF1EE420AB1EE610AA2
:102E90009FED3F1AB5EEC00AF1EE10FA1CDBF5EE1D
:102EA000C00AF1EE10FA0ADB20EE081AF4EEC10AAD
:102EB000F1EE10FA28BF4FF0010C29D209E020EE04
:102EC000011AF4EEC10AF1EE10FA38BF4FF0030C0C
:102ED0001ED34FF0020C1BE0F5EEC00AF1EE10FA23
:102EE0000ADB20EE011AF4EEC10AF1EE10FA28BF57
:102EF0004FF0060C0CD209E020EE081AF4EEC10ADD
:102F0000F1EE10FA38BF4FF0040C01D34FF0050C6E
:102F10009FED201ADFED201ABCF1070F5DD2DFE82C
:102F20000CF0D6043D5D7B99B90001EE900A40EEAD
:102F3000480AF8EE611A60EEA10AFCEEE00A10EE13
:102F4000902A60EE010A00EE100A801AB8EE400ADC
:102F500020EE800ABCEEC00A10EE101A401A430898
:102F60001A441144B3E00000740000200000000087
:102F70000000A0C00EF87C3BABAA2A3FD7B35D3F50
:102F80003ACD133FABAAAA3EBD37863500000140BB
:102F90003ACD13BF3ACD933F3ACD93BFF0EE601ACE
:102FA00001EE100A40EE081A50EE080A00EE100A70
:102FB000B8EE411AB8EE400A21EE811A20EE800ADE
:102FC000BCEEC11ABCEEC00A11EE101A10EE103A97
:102FD000401AC01A42081344194478E060EE011AFE
:102FE00001EE100A50EE480A00EE100AB8EE411A3F
:102FF000B8EE400A21EE811A20EE800ABCEEC11A1A
:10300000BCEEC00A11EE101A10EE103A401AC01AA7
:10301000420811440B445AE001EE100A50EE080A2F
:10302000B8EE411A60EE810AFCEEE00A10EE903A2A
:1030300060EE210A00EE100AC01AB8EE400A20EE37
:10304000800ABCEEC00A10EE102A801A41080A4419
:1030500013443CE0F1EE601A01EE100A40EE481A0B
:1030600040EE480A00EE100AB8EE411AB8EE400AE7
:1030700021EE811A20EE800ABCEEC11ABCEEC00A15
:1030800011EE103A10EE102AC01A801A41080B44B3
:103090001A441CE060EE211A01EE100A40EE080A04
:1030A00000EE100AB8EE411AB8EE400A21EE811A7D
:1030B00020EE800ABCEEC11ABCEEC00A11EE102A46
:1030C00010EE101A801A401A430819440A44C4F832
:1030D0005CC03088344640F0020030807363B263D5
:1030E000F163308820F002003080287900281EBF6C
:1030F00003B0BDEC048BF0BD602200213046FFF729
:10310000A0F8012200212046FEF760FE04220021E3
:103110002046FEF768FE602204212046FFF791F862
:10312000012204212046FEF751FE042211462046CA
:10313000FEF759FE602208212046FFF782F801229F
:1031400008212046FEF742FE042208212046FEF711
:103150004AFE0120287103B0BDEC048BF0BD0000D5
:103160001549DFED141A9FED152A486C21EE211A3E
:103170000A78D0ED301AB0EEC11A61EE821A90EDE5
:10318000302A62B172EE211AF4EEC11AF1EE10FA91
:103190003EBF002008707047B0EE600A704772EEC4
:1031A000611AF4EEC11AF1EE10FAC4BF01200870E2
:1031B000F2DC7047EBC9184174000020CDCC4C3DC7
:1031C00000EE100AF2EE040AB8EE400A20EE200AE1
:1031D000BCEEC00A10EE100AFEF73AB970B5002036
:1031E00082B00324CDE90040214E034602464FF44D
:1031F00000613046FDF75AFD012500232A46A90249
:103200003046CDE90045FDF751FD01220023510272
:103210003046CDE90045FDF749FD012200231103A9
:103220003046CDE90045FDF741FD6420FFF7C8FFBA
:103230004FF48661022000F079F84FF48661022095
:1032400000F074F8022000F023F800F03F0040F096
:103250004001022000F06AF8022000F019F802B0E4
:1032600040F00401BDE87040022000F05FB80000AB
:103270000008024010B5002000F00AF804460120C2
:1032800000F006F8C0F3C01044EA001010BD0000C2
:1032900070B54FF4004100F00F0241EAC22148F23C
:1032A0007F02104D41EA020450B169152846FDF72E
:1032B000FBFC204601F034FF69152846FDF746FD6A
:1032C0004FF400712846FDF7EFFC4FF6FF7001F058
:1032D00027FF04464FF400712846FDF737FD2046CE
:1032E00070BD00000008024010B504460220FFF740
:1032F000CFFF04F01F0100F03F0040EA8111BDE85C
:103300001040022000F012B810B504460220FFF76A
:10331000BFFF4FF6CF71084004F0030140EA0111EE
:10332000BDE81040022000F001B8000070B5002296
:1033300000F00F0042EAC020C1F30A0141EA000494
:10334000074D4FF400712846FDF7AEFC204601F012
:10335000E7FE69152846BDE87040FDF7F7BC0000A0
:10336000000802400148007870470000000000207B
:10337000F0B5002485B003251F4FCDE90054234646
:10338000224680213846FDF791FC0126CDE9005602
:103390000023324640213846FDF788FCCDE900562F
:1033A0000122002311023846FDF780FC0121022092
:1033B000FEF7B4FAADF80840ADF81040ADF80A4099
:1033C0008DF8124041F267000C4C039002A9204690
:1033D000FEF77AFF012211462046FEF70FFE01217B
:1033E0002046FEF710FD06211D2001F007FD0448D0
:1033F000067005B0F0BD0000000802400004004067
:1034000000000020014890ED010A704700000020F4
:103410002DE9F04F324F83B04FF480713846FDF7FD
:1034200043FC0DF108094FF0010A00264FF6FF7822
:103430000024254600BF00BF00BF00BF4021384622
:10344000FDF784FC00BF00BF00BF00BF80213846ED
:10345000FDF723FC019000BF80213846FDF71DFCDD
:10346000009000BF80213846FDF717FC0246DDE9D9
:10347000001008EA440402F02CF8002818BF44F0B9
:10348000010440213846FDF70FFC00BF00BF00BF1C
:1034900000BF6D1C102DCDDBB9F1000F18BF29F84E
:1034A0001640761C5645C3DB4FF480713846FDF755
:1034B0004DFCBDF80800DFED0B0AC0F30D0000EE77
:1034C000100A0A48B8EE400A20EE200ADFED060A8C
:1034D00020EE200A80ED010A03B0BDE8F08F000065
:1034E000000802400000B4430000803800000020C3
:1034F0002DE9F041012182B00846FEF703FA0121CF
:103500000220FEF7FFF901210420FEF7FBF901215B
:103510000820FEF7F7F900243B4F009423460122D0
:10352000072138460194FDF7C1FB01260325CDE9AB
:1035300000560023324620213846FDF7B7FB2021F4
:103540003846FDF703FCDFF8C480CDE900540023C2
:1035500002224FF4E0614046FDF7A8FB012208215A
:103560004046FDF787FB012209214046FDF782FB1B
:1035700001220A214046FDF77DFBCDE900540023DE
:1035800002224FF460413846FDF790FB01220D21E5
:103590003846FDF76FFB01220E213846FDF76AFB26
:1035A00001220F213846FDF765FB002300961A46DD
:1035B000802138460196FDF779FBCDE900540023C0
:1035C00003226F214046FDF771FBCDE90054002333
:1035D00003223F210E48FDF769FB009600230222DB
:1035E000290238460196FDF761FB09220821384679
:1035F000FDF740FB092211463846FDF73BFB02B0C0
:10360000BDE8F041FFF7EABD0004024000000240BF
:103610000008024070B54A4C01231A46002120469A
:10362000FCF770FF012302220A212046FCF76AFF03
:103630000123032205212046FCF764FF0123042215
:103640000E212046FCF75EFF0123052211212046B2
:10365000FCF758FF01233B4D1A4619462846FCF754
:1036600051FF012302220B212846FCF74BFF0123C7
:10367000032206212846FCF745FF012304220F21DF
:103680002846FCF73FFF0123052200212846FCF7CE
:1036900039FF2D4E01231A4602213046FCF732FF36
:1036A000012302220C213046FCF72CFF03220123C8
:1036B00011463046FCF726FF012304220D21304637
:1036C000FCF720FF0123052219463046FCF71AFFBC
:1036D00001231A460A212046FCF7D8FE01231A4688
:1036E0000B212846FCF7D2FE01231A460C21304656
:1036F000FCF7CCFE012302220A212046FCF7C6FE7D
:10370000012302220B212846FCF7C0FE01230222DE
:103710000C213046FCF7BAFE012303220A21204681
:10372000FCF7B4FE012303220B212846FCF7AEFE72
:103730003046BDE87040012303220C21FCF7A6BEF1
:1037400000200140002101400022014010B500EEA0
:10375000100AFEF7A5FE10EE100A10BD00B5CBB0A2
:10376000FEF776F9FFF7C4FE6846FFF799F868465A
:1037700000F034F9FFF71CF8FDF7F0FA3C23054A96
:1037800000210548FDF752FCFDF72EFC4BB0002050
:1037900000BD000094050020AD2300080C49D0EDC9
:1037A000000A91F82021002A14BFBFEE000AB7EEEC
:1037B000000A084A92ED151A40EE010AC0ED000A0F
:1037C00091ED180AD1ED180AB1EE400A01F006BFDA
:1037D000B81D0020080000202DE9F04FDFF888B167
:1037E00004462DED068B85B0DBF80800DFF87CA1E0
:1037F000A04201BFDAF81401CBF8100005B0BDEC0F
:10380000068B08BFBDE8F08F00287CD1FDF7B8FB20
:103810005748006800905748016C0191C06A0290B7
:10382000FDF7C4FB00F05CFBB0EE408A00F06EFBDD
:103830005148F0EE408AC08A00EE100AB8EE400A05
:10384000DFED4E0A20EE200ADFED4D0A20EE20AA21
:1038500000F01CFB9AF82001F0EE400A002814BF8B
:10386000BFEE000AB7EE000A20EE209A00F026FB19
:10387000DFED440A9AF8200160EE200A002814BF08
:10388000BFEE000AB7EE000A60EE209ADBF8146083
:103890003948DDE90078008ADDF80890002500EE5F
:1038A000100A9FED391AF8EE400A81EE200ADFED8A
:1038B000370A30EE600ADFED360A20EE200A10EEFD
:1038C000100AFCF7F9FC41EC100BFFF73FFF00EE8C
:1038D000100A9FED301A032CF8EEC00A9FED2E0A55
:1038E00000EE810AB7EE001AC1EE000A9FED2B0A26
:1038F00070EEC0AA02D1FFF7BDFC0390DBF80C10FC
:1039000001EB810000E022E000EBC100244A491CE9
:1039100002EB8000CBF80C10046080ED018AC0ED52
:10392000028A80ED03AA80ED049AC0ED059AC0E9F1
:103930000667039AC0F82080C0E90995C0ED0BAA7C
:103940000263DBF80C001928A8BFCBF80C50DAF89A
:103950001401CBF8100000F067FDCBF8084005B06B
:10396000BDEC068BBDE8F08F08000020B81D0020DC
:103970003404014000000140981D00206740533A84
:1039800074D195412549123E3C361C4C00401C46E2
:1039900017B7D138631D9B390FCF5B3B33938843F7
:1039A000E41E002000F084BA10B500F087FADFEDC5
:1039B000080A084860EE200A90F82001002814BF89
:1039C000BFEE000AB7EE000A20EE200A10BD00008C
:1039D0002549123EB81D002000F082BA10B50446F9
:1039E00090ED000AB74880ED000A94ED010A80EDE1
:1039F000010A94ED020A80ED020A94ED030A80EDBB
:103A0000030A94ED040A80ED040A94ED050A80EDA2
:103A1000050A94ED060A80ED060A94ED070A80ED8A
:103A2000070A94ED080A80ED080A94ED090A80ED72
:103A3000090A94ED0A0A80ED0A0A94ED0B0A80ED5A
:103A40000B0A94ED0C0A80ED0C0A94ED0D0A80ED42
:103A50000D0A94F8381080F8381094ED0F0A80EDB4
:103A60000F0A94ED100A80ED100A94ED110A80ED12
:103A7000110A94ED120A80ED120A94ED130A80EDFA
:103A8000130A94ED140A80ED140A94ED150A80EDE2
:103A9000150A94ED160A80ED160A94ED170A80EDCA
:103AA000170A94ED180A80ED180A94ED190A80EDB2
:103AB000190A94ED1A0A80ED1A0A94ED1B0A80ED9A
:103AC0001B0A94ED1C0A80ED1C0A94ED1D0A80ED82
:103AD0001D0A94ED1E0A80ED1E0A94ED1F0A80ED6A
:103AE0001F0A94ED200A80ED200A94ED210A80ED52
:103AF000210A94ED220A80ED220A94F88C1080F8B5
:103B00008C1094ED240A80ED240A94ED250A80EDB2
:103B1000250A94ED260A80ED260A94ED270A80ED09
:103B2000270A94ED280A80ED280A94ED290A80EDF1
:103B3000290A94ED2A0A80ED2A0A94ED2B0A80EDD9
:103B40002B0A94ED2C0A80ED2C0A94ED2D0A80EDC1
:103B50002D0A94ED2E0A80ED2E0A94ED2F0A80EDA9
:103B60002F0A94ED300A80ED300A94F8C41080F8E2
:103B7000C41094F8C51080F8C51094ED320A80ED99
:103B8000320A94F8CC1080F8CC1094ED340A80ED11
:103B9000340A94ED350A80ED350A94ED360A80ED4D
:103BA000360A94ED370A80ED370A94ED380A80ED35
:103BB000380A94ED390A80ED390A94ED3A0A80ED1D
:103BC0003A0A94ED3B0A80ED3B0A94ED3C0A80ED05
:103BD0003C0A94ED3D0A80ED3D0A94ED3E0A80EDED
:103BE0003E0A94ED3F0A80ED3F0A94ED400A80EDD5
:103BF000400A94ED410A80ED410A94ED420A80EDBD
:103C0000420A94ED430A80ED430A94ED440A80EDA4
:103C1000440AD4F81411C0F8141194ED460A80ED4A
:103C2000460A94ED470A80ED470A94F8201180F87F
:103C30002011D4F82411C0F82411D4F82811C0F8A8
:103C40002811214800218160C1600161416101703A
:103C50009FED1E0A4FF47A7280ED060A80ED070A86
:103C600080ED080A80ED090A80ED0A0A80ED0B0A52
:103C700080ED0C0A80ED0D0A80ED0E0A80ED0F0A32
:103C800080ED100A80ED110A80ED120A80ED1A0A0B
:103C900080ED130A80ED140A80ED150A8265012279
:103CA000C26501664166D4F82401FFF72DFBD4F804
:103CB0002801FFF719FBFFF75BFBBDE81040014847
:103CC00000F040B9B81D00200800002000000000EE
:103CD00070B55F482DED028BC08A00EE100AB8EE79
:103CE000400ADFED5C0A20EE200ADFED5B0A5B4D47
:103CF000002620EE200AD5ED0A0A594CF4EEC00A3F
:103D0000F1EE10FA08DCD5ED0B0AF4EEC00AF1EE84
:103D100010FA28BF66600FD26068401C60600828F7
:103D20000ADBD5ED0A0AB4EEE00AF1EE10FA34BF70
:103D300002200120FFF750FD00F0CCF8012818BF49
:103D400066615CD000F0E2F8B0EE408A00F0F4F872
:103D5000F0EE400A94ED060A30EE080AB7EE008A4B
:103D600084ED060A94ED070A30EE200A84ED070A76
:103D700094ED080A30EE080A84ED080A94ED090A69
:103D800030EE080A84ED090A00F086F8D4ED0A0A3C
:103D900030EE200A84ED0A0A00F084F8D4ED0B0A14
:103DA00030EE200A84ED0B0A94ED0C0A30EE080A7E
:103DB00084ED0C0A94ED0D0A30EE080A84ED0D0A2C
:103DC00000F08EF800F056F810EE104A00F058F8A7
:103DD00095F83800B8B110EE100AFCF76DFA41EC16
:103DE000100B20F0004000EE100AD5ED040AB8EEEA
:103DF000C00AB4EEE00AF1EE10FA19DD15E06069D0
:103E0000401C60619EE72046FCF756FA41EC100B1F
:103E100020F0004000EE100AD5ED040AB8EEC00A0A
:103E2000B4EEE00AF1EE10FA02DD0420FFF7D4FC54
:103E300080210C48FCF731FF00281CBFBDEC028B31
:103E400070BD0320BDEC028BBDE87040FFF7C4BC21
:103E5000981D00206740533A74D19541B81D002049
:103E60000800002000040240014890ED140A704749
:103E700008000020014890ED070A70470424002044
:103E8000014890ED080A704704240020014890ED95
:103E9000030A704704240020014890ED0F0A704780
:103EA00004240020014890ED100A704704240020EB
:103EB000014890ED2C0A7047740000200348DFEDA4
:103EC000040A90ED2A0A20EE200A704774000020B0
:103ED000EBC918410148806C704700007400002055
:103EE000094991ED140AB5EEC00AF1EE10FA34BF9B
:103EF0004FF0FF30012000EE100AD1ED100AB8EEAD
:103F0000C00A20EE200A704704240020094991EDE0
:103F1000140AB5EEC00AF1EE10FA34BF4FF0FF30CC
:103F2000012000EE100AD1ED120AB8EEC00A20EE10
:103F3000200A704704240020014890ED090A7047C8
:103F4000042400202DE9F04FA7B00646FDF718F82D
:103F5000FE4D0024AC706E64AC646C70EC642C6537
:103F60006C65AC65EC65EC709FEDF90A85ED1B0A9C
:103F700085ED1C0A85ED1D0A85ED1E0A85ED1F0ADB
:103F80002C7185ED200A85ED210A85ED220A85ED4B
:103F9000230A85ED240A6C7185ED250A85ED260A34
:103FA00085ED270A85ED280A85ED290A85ED2A0A7F
:103FB00085ED2B0A85ED2C0A85ED2E0AD6ED400AFB
:103FC0006021C5ED2F0A85ED2D0AE248FCF769F95D
:103FD000DFF884834046FDF72AFFE048FDF727FF1E
:103FE000C8F82440DE48046001210846FDF7AEFC15
:103FF000ADF814402020ADF81600686CD94990ED5A
:10400000200AADF81C408DF81E40BDEEC00A10EE2F
:10401000100A91FBF0F0069005A94046FEF754F90E
:1040200001264FF06009ADF800900420ADF8026061
:10403000ADF80400D8F82C00370240080290ADF823
:104040000C40ADF810704FF4007AADF80E40ADF8AA
:1040500012A069464046FDF7D9FF69464046FEF783
:104060000FF869464046FEF758F869464046FEF7A5
:104070009CF808214046FDF7FDFF08214046FEF769
:1040800042F808214046FEF78AF808214046FEF72C
:10409000C0F8F002ADF878004010ADF87A00ADF845
:1040A0007C403C20ADF87E00ADF880404FF4005BD2
:1040B000ADF882B0ADF884401EA94046FDF76BFE16
:1040C00001214046FDF779FE01214046FDF75AFEE9
:1040D0000121A548FDF716FC01214FF4E060FDF732
:1040E00035FC03213C2000F089FEA0480A90A0483E
:1040F00008A9CDE908400F20CDE90B40B002CDE979
:104100000D4040001197CDE90F0B8001CDE912045D
:10411000DFF860B21494159458461694FCF76EFDBF
:1041200001215846FCF718FD012210215846FCF7E2
:104130004DFD1620CDE92204B003CDE9240422A8C8
:10414000FCF766F9CDE917467007CDE919404FF045
:104150005060CDE91B0405208DF8740017A986482E
:10416000FCF76CF9DFF814B21A9417A958461B949F
:10417000FCF764F917A98248FCF760F90120FCF705
:1041800009FA0120FCF7B0F9FFF744FA01217A4857
:10419000FCF734F901215846FCF730F90121784841
:1041A000FCF72CF901210220FDF7D0FBADF81440FB
:1041B000ADF81640686C6B4990ED200AADF81C40D4
:1041C0008DF81E40BDEEC00A10EE100A91FBF0F013
:1041D000069005A96148FEF777F84FF4FA70ADF83C
:1041E00000900290ADF80C40ADF81070ADF8026090
:1041F000ADF80E40ADF812A069465848FDF706FF2D
:1042000008215648FDF736FF69465448FDF738FF48
:1042100008215248FDF777FF69465048FDF77DFFBA
:1042200008214E48FDF7BBFF01214C48FDF7AAFDD0
:1042300001214A48FDF7C1FD01214848FDF7ECFD89
:1042400020214046FEF730F880214046FDF7F1FF7F
:1042500000214248FDF7E7FF04214048FEF72CF813
:1042600001214046FDF7CFFD01213C48FDF7CBFD84
:1042700001214046FDF7D0FD00F0BEFF414902207C
:104280000860014601223548FDF7B8FE06212E20C0
:1042900000F0B4FDFCF78AFE3B4D20212846FCF7D8
:1042A00055FD80212846FCF7F8FC002804BF41F2A8
:1042B0008835354F0BD10120FEF782FF641CAC42DC
:1042C00005DC80213846FCF7E8FC0028F3D04FF4E9
:1042D0007A70FEF775FF1D4C002525656565A5659F
:1042E000E565E06DB0F57A6FFBDB206DE16D90FB6D
:1042F000F1F02066606DE16D90FBF1F06066A06DFD
:10430000E16D90FBF1F0A06601214020FDF706FB76
:104310004FF6FF7006900720ADF814001B4FADF864
:104320001C50ADF8165005A93846FDF7CDFF012108
:104330003846FDF768FD01210820FDF7EFFA42F647
:10434000DF6006900620ADF8140021E07400002024
:10435000000000000424002000000140000401408F
:1043600024040140007A030A05004000981D002043
:1043700008230140706402400020014000210140F8
:1043800000220140340401400004024000180040B3
:10439000ADF81C50ADF816500A4D05A92846FDF79A
:1043A00093FF09490A8842F001020A80072132205E
:1043B00000F024FD01212846FDF725FDA67027B059
:1043C000BDE8F08F000C00400C0C004010B5154CFF
:1043D0002DED020BE06C01281CBF02B010BD9DED5D
:1043E000000A606CB0EEC00AD0ED420AB4EEE00AFA
:1043F000F1EE10FA06D20020E064A06400F0FCFEAA
:1044000002B010BD90ED000AD0ED000A6846B1EE92
:10441000400A01F0E3F89DED000A84ED1E0A02B0A7
:1044200010BD000074000020034801218164C164B4
:104430009FED020AFFF7CABF7400002000000000D1
:104440002DE9F04100202DED0C8B84B0FE4E306044
:10445000DFF8F883B8F80000FD4D012121EA1012C1
:10446000686C90F8C41031B9002A1EBF04B0BDECCE
:104470000C8BBDE8F081F74FF9883B89B7F80AC08B
:104480002C6D0C442C656C6D1C446C65AC6D6444E7
:10449000AC652C6E0C1B696E5B1AA96EACEB010C43
:1044A000E96D491CE965EC490C604B60C1F808C036
:1044B00090F8C530002B44D00A6800EE102A4A68F4
:1044C000B8EEC00AB0EEC01A00EE102A8A68B8EE44
:1044D000C00AF0EEC00A00EE102AB4EEE01AB8EE00
:1044E000C00AB0EEC00AF1EE10FAC4BFB4EEC01AB2
:1044F000F1EE10FA05DD4A688B681A4452420A60F0
:1045000070E0F4EEC10AF1EE10FAC4BFF4EEC00A96
:10451000F1EE10FA05DD0B688A681A4452424A60CF
:1045200060E0B4EEC10AF1EE10FAC4BFB4EEE00AE6
:10453000F1EE10FA56DD0A684B681A4452428A605E
:1045400050E090F8C430002B18BF002AD8F834206F
:10455000D8F8383020D09A4205D2D8F83420D8F88C
:104560003C309A42C7D3D8F83820D8F834309A4231
:1045700005D2D8F83820D8F83C309A4220D3D8F861
:104580003C20D8F834309A422CD2D8F83C20D8F8C5
:1045900038309A4226D2CEE79A4205D9D8F834204C
:1045A000D8F83C309A42A6D8D8F83820D8F8343019
:1045B0009A420BD9D8F83820D8F83C309A4205D91D
:1045C0000A688B681A4452424A600BE0D8F83C20D3
:1045D000D8F834309A4205D9D8F83C20D8F8383089
:1045E0009A42A8D80A6800EE102AF8EEC00A9FED99
:1045F0009B0A496860EE808A00EE901A90F8C41019
:10460000F8EEE00A60EE80BA90ED200AF7EE00AA1C
:10461000002904BFF6EE000A20EE200A8AEE809AF6
:104620008F4CF88A94ED0A0A00EE900AF8EE600AC0
:10463000DFED8CCA60EEAC0A9FED8BCA00EECC0AAF
:10464000D4ED0A0A9FED89DA40EE4D0AC4ED0A0A5C
:10465000DFED879AFEF7D6FEB0EE40AA8DED01AAF7
:10466000686C90F88C1039B1B0EE4A0ADFED810A1F
:1046700030EEC00A8DED010A90ED240ADDED010A4D
:1046800020EE200AD0ED220A01A830EE600A8DED5E
:10469000010A00F033FF9DED010ADFED770A20EEFD
:1046A000200A85ED250A94ED040AD5ED020A00F0F2
:1046B00001FEB0EE408A94ED040A85ED020AA86C72
:1046C000DFED6E1A9FED6EBA01287DD0388800EEBE
:1046D000100ABBEECA0ADFED6B0A788820EE200ACA
:1046E00020EE0C1A00EE100AB888BBEECA0A20EEC3
:1046F000200A20EE0C0A02EE100ABBEECA2A62EE75
:10470000200A60EE8C0A9FED608A21EE081A9FED68
:104710005F2A694602A800EE421A20EE210A00EE46
:10472000E10A00EEC21A84ED0B1A84ED0C0A94ED36
:10473000040A00F023FED4ED0B0A9DED000AD4ED2F
:104740000C1A20EE801ADDED020A00EEA11AD4ED5B
:104750000C1A61EE801A94ED0B0A40EEC01A94ED2B
:10476000130AD4ED130AB4EE600AF1EE10FA0CBF8E
:1047700094ED130AB0EE690A84ED130A94ED140A5D
:10478000D4ED140AB4EE600AF1EE10FA14BFB0EEE4
:10479000690A94ED140A84ED140A94ED130AD4ED19
:1047A000130A30EE411A9FED3A0A41EE400AC4ED79
:1047B000130A94ED141AD4ED140A31EE611A41EE85
:1047C000400AC4ED140A00E072E094ED130A314A85
:1047D00084ED150A94ED140A02F1140184ED160A11
:1047E000D4ED0A0A94ED130A081F60EE880AB0EEB1
:1047F000492A80EE201A84ED0D1AD4ED0A0A94EDB0
:10480000140A60EE880A80EE201A84ED0E1AC4EDB8
:10481000059AC4ED069AC4ED0F9AC4ED109AC4ED42
:10482000119AC4ED129AC4ED099AC4ED079AC4ED29
:10483000089AD4ED061A94ED051AD4ED0C0A94EDFD
:104840000B0A00F0EDFA27E02418004000000140B8
:1048500074000020981D0020F8230020500AA53D78
:10486000042400206740533A74D19541CDCCCC3D0F
:10487000000000000000B44335FA8E3C3ACD133FEF
:104880003ACD933F33335340ABAA2A3FABAAAA3E5B
:10489000CDCC4C3E0001002095ED2A1AD5ED250A1D
:1048A00095ED230AFEF75CFC84ED040A00F05EB986
:1048B00028EEA10AC4ED058A0BEE8B0A84ED060AE8
:1048C00094ED030AF0EEC0BA95ED1D0A8DED020AD3
:1048D00095ED1E0A8DED000A686C90ED150A84EDC9
:1048E000020AD4ED030A95ED040A70EE600A00EEA8
:1048F000CD0AF7EE000A85ED040ABFEE000AFE4875
:1049000000F06CFED5ED1C8AE86C032814BF002073
:104910000120E96C04290BD195ED040AF74AB0EEA9
:10492000C00A10EE101A9142BCBF0120F0EE698A55
:10493000E96C02290ED1696C95ED220AD1ED3A0A93
:10494000B0EEC00AB4EEE00AF1EE10FA38BFF0EEB5
:10495000698A00D3E8B3B0EEE80ADFEDE90A7BEE3E
:10496000E00AB4EEE00AF1EE10FA19D394ED140A5D
:10497000B5EEC00AF1EE10FA34BF4FF0FF3001205F
:1049800000EE100AD4ED100A686CB8EEC00A20EEF2
:10499000200AD0ED190AB4EEE00AF1EE10FA41D285
:1049A000F88A00EE100A686CB8EE400A90ED2C1AF6
:1049B00020EE2C0A60EE0C0A8AEEA00AD4ED030A5F
:1049C00078EEE00A60EE801A21EE218A90ED2D1A31
:1049D00000E035E061EE200A29EE001A95ED050AA7
:1049E000C84800EE810AF7EE000A85ED050ABFEE21
:1049F000000A00F0F3FD95ED050AF7EE000A03A8A2
:104A000038EE000A8DED030ABFEE000A00F0E6FD65
:104A1000686CDDED030A90ED180A20EE200A8DED9A
:104A2000000A25E0F5EEC08AC5ED059AC4ED028ABC
:104A3000F1EE10FA90ED180AD8BFB1EE400AEEE799
:104A4000E86C042814D19DED000AB5EEC08AB0EEE2
:104A5000C00AF1EE10FA8DED000AC8BFB1EE400AAF
:104A6000DDDCB5EEC08AF1EE10FA08BFCDED009A9C
:104A7000E87878B9A44AD4ED061A02F1140194ED4D
:104A8000051AD4ED0C0A94ED0B0A081FB0EE492A62
:104A900000F0C6F995ED2A1AD5ED250A95ED230A01
:104AA000FEF75EFB84ED040AE878002808BFCDED30
:104AB000029AE87800281CBF95ED1B0A84ED040AD1
:104AC00094ED0E8A914918EE100A88420CDD686C4C
:104AD00090ED1A0A90ED1B1A6846C0EE080A81EEA6
:104AE000080A00F07BFD10E018EE100A88498842A1
:104AF0000BD9686C90ED1B0A90ED1A1A6846C0EE4F
:104B0000080A81EE080A00F069FDB5EEC08A686CFB
:104B1000F1EE10FA07DDD0ED180A90ED190A68469B
:104B200000F05CFD0AE090ED190AF1EE400A90ED0C
:104B3000180A6846B1EE400A00F050FD686CD0EDEE
:104B4000190A90ED180A00F0B8FC694602A800F0B6
:104B500017FD9DED020A6F4884ED000A9DED000AE5
:104B600084ED010AB0EE490AFDF7F4FF94ED0D0A59
:104B7000D4ED0D0A94ED0E1A20EE200AD4ED0E0AA3
:104B800000EE810AF1EEC00A94ED140AB5EEC00AF7
:104B9000F1EE10FA34BF4FF0FF30012000EE100AA2
:104BA000B8EEC00A20EE800A20EE0B0A84ED030A5C
:104BB000D4ED040A584C94ED000A94ED001AB4EEBA
:104BC000410AF1EE10FA14BFB0EE690A94ED000A42
:104BD00084ED000A94ED000A684630EEC00A8DEDBF
:104BE000000A00F0A7FC4D4F97ED000AD7ED000A30
:104BF000B4EE600AF1EE10FA14BFB0EE690A97ED58
:104C0000000A87ED000A686C97ED000A9DED001A16
:104C1000D0ED2A0A204600EE810AD4ED000AB0EE5B
:104C2000491A40EE010AC4ED000A00F083FCDDEDF4
:104C3000001A686CF0EE490A97ED000A61EEA00ACE
:104C400090ED2B1A01EE200A87ED000AD5ED030A3C
:104C5000B0EE4A0A00F00CFB85ED03AA686C90EDFB
:104C60003F1AC0EE010A95ED2C1A70EE810AC5EDCF
:104C70002C0AD0ED3F0A2A4880EE201A95ED2E0A24
:104C800031EE000A85ED2E0A00F038FCA86C0128F0
:104C900004BFE86C06287CD1D5ED2C0A95ED200ADE
:104CA000E86C06281CBFC5ED099AC5ED0A9A70D1BB
:104CB00000F0DEFA686CB0EE408A90F88C100029A3
:104CC00018BFB1EE488A90ED3B0A28EE091A20EE93
:104CD000080A8DED000AD0ED3C0A95ED090A00EEB8
:104CE000810A85ED090A95ED0B0A30EE090A85ED7A
:104CF0000B0AD5ED0A0A15E0840000208FC2F53CAE
:104D0000CDCC4C3D88000020000100206F12833A7A
:104D10006F1283BA04240020180100201C01002017
:104D200024010020B4EE608AF1EE10FA08BFF0EE24
:104D3000698A09D0D0ED3D1AC5ED0B9A81EE801A33
:104D400038EE600A61EE008A95ED0C9A90ED3E0A0D
:104D5000684679EE680A00EE609AB7EE000A85EDC3
:104D60000C9A00F051FC9DED000A2048B0EEC00AFC
:104D70003AEEC00A00F048FC85ED0A8A9DED000A73
:104D8000D5ED090A30EE200A30EE090A8DED020A4F
:104D900000E018E0F7EE000ABFEE000A02A800F0FB
:104DA0001DFCFEF7DFFA0028686C90ED180A14BFAE
:104DB000DDED020ADFED0E0A20EE200A0D4885ED3A
:104DC0001E0AFEF7EBFCFEF783FF3068DFED0A0AF0
:104DD00000EE100AB8EE400A20EE200A85ED2B0AFC
:104DE00004B0BDEC0C8BBDE8F08100009800002001
:104DF000CDCCCC3EEC00002095BFD63300F1E022B4
:104E0000090182F8001400F01F02012191404009BD
:104E1000800000F1E020C0F88012C0F80011704757
:104E2000F0B5744E05462DED0A8BB0EE60BAF0EE8B
:104E300040BAB7EE080A0C46B0EE42CA706C6E4932
:104E4000B0EE61AAD0ED250AD0ED279AF0EE41AA86
:104E500060EE808AD0ED260A81B0174620EE808A67
:104E600091ED100AD1ED140A20EE200AB5EEC00A29
:104E7000F1EE10FAACBFB7EE000ABFEE000A91EDFA
:104E8000081AD0ED001AC1EE210A20EE800AD0EDFA
:104E9000320A60EE880A00EEC08AFEF7E5FF706C09
:104EA00090F8CC1071B110EE101A544A914209D208
:104EB000DFED530A90ED341A68EE200A30EE410A15
:104EC00000EE808A28EEAA9A96ED2D1AF6EE001AC8
:104ED00068EE8A8A28EE2A0A68EE0A0A29EEA9AA4A
:104EE00061EE21AA9FED471A00266CEE019A9FED14
:104EF000461A7BEEC0BA3BEE60BA6AEE01CAB2EE69
:104F0000041A2AEE81CA95ED000AD5ED000A94ED47
:104F1000001A30EE490A70EEC90A31EE681AB0EE96
:104F20006A8A684620EE200AD4ED000A70EEE80A8C
:104F300000EE810A3AEE400A8DED000AB0EE6C0AEE
:104F400000F062FB002818BFB0EE4C8AB0EE6B1A7E
:104F500095ED000ADDED000AF0EE4B1A30EE490A3D
:104F6000761C062E20EE080A00EE201A94ED000AA8
:104F700030EE680A20EE080A40EE201A95ED000A8D
:104F800001EE290A85ED000A94ED000A01EEA90A56
:104F900084ED000AB7DBD5ED000A95ED001A9FED10
:104FA0001B0AF4EE410AF1EE10FA14BFF0EE400ACB
:104FB000D5ED000AC5ED000AD4ED000A94ED001A03
:104FC000F4EE410AF1EE10FA08BF94ED000A84ED08
:104FD000000A95ED000A70EE490A94ED000A30EEE1
:104FE000680A00F089F987ED000A01B0BDEC0A8B70
:104FF000F0BD000074000020042400200000A0C0C8
:105000000EF87C3BABAA2A3ECDCC4C3E0000000003
:1050100010B53E4C2DED048B82B0E06C9FED3C1A38
:1050200002281FBF84ED061A84ED071A02B0BDECFA
:10503000048B18BF10BDD4ED2A0ADFED361A606C60
:1050400060EEA10AD4ED221A31EEE08AD4ED220AF4
:10505000D0ED3A1AF0EEE00AF4EEE10AF1EE10FAC1
:105060003CBF84ED061A84ED078A4AD390ED361AC8
:10507000DFED290A68EE201A20EE202A21EE219A7F
:1050800090ED371A61EE081A94ED061A01EE821AB5
:1050900084ED061AD0ED381AD4ED088A81EE801A14
:1050A00094ED070A38EE400A21EE000A20EE200AAD
:1050B000D0ED390A194838EEC00A40EEC08AF7EE42
:1050C000000ABFEE000AC4ED088A00F087FA84EDFA
:1050D000078A94ED060AF7EE000A684639EE000AE0
:1050E00030EE280A8DED000ABFEE000A00F076FAD5
:1050F000606CDDED000A90ED180A20EE200A84EDC8
:105100001E0A02B0BDEC048B10BD0000740000202C
:1051100000000000EBC91841CDCC4C3D8C000020B4
:105120002DE9F14F86B003A8029001200027DFF897
:10513000C4900DF1180B4FF6FF7AB8460490BBF1FE
:10514000000F14BF3BF817504FF6FF75002426469A
:10515000EA0B4FF480514846FBF7FAFD0AEA450591
:105160004FF480614846FBF7F1FDCDF8008000BFA9
:105170000098401C00900A28F9DB4FF480614846F3
:10518000FBF792FD4FF400614846FBF786FD019066
:1051900000BF4FF400614846FBF77FFD009000BF61
:1051A0004FF400614846FBF778FD0246DDE9001048
:1051B0000AEA440400F08DF9002818BF44F0010405
:1051C000CDF8008000BF0098401C00900A28F9DB51
:1051D000761C102EBCDB0298002818BF20F8174060
:1051E0007F1C04988742AADBBDF80C0007B0BDE81D
:1051F000F08F00000008024010B51B4C4022002137
:105200002046FDF71EF8012200212046FCF7DEFDB6
:10521000002211462046FCF7E6FD402204212046EC
:10522000FDF70FF8012204212046FCF7CFFD0022F4
:1052300004212046FCF7D7FD402208212046FDF737
:1052400000F8012208212046FCF7C0FD00220821B9
:105250002046FCF7C8FD20212046FCF7C2FE03498A
:105260000020087110BD0000000001407400002003
:1052700030EE600A0C48DFED0D0A10EE101A814284
:1052800005D930EE200A10EE101A8142F9D810EE3E
:10529000101A07488142D8BF704730EE600A10EEFE
:1052A000101A8142F9DC7047000034C30000B44397
:1052B0000000344330EE600A0C48DFED0D0A10EEBA
:1052C000101A814205D930EE200A10EE101A8142E0
:1052D000F9D810EE101A07488142D8BF704730EE57
:1052E000600A10EE101A8142F9DC7047DB0F49C0EA
:1052F000DB0FC940DB0F4940DFED1B1AB0EEC01ACF
:105300009FED192A71EE211AB0EEC01ADFED172AAF
:1053100031EE021A9FED162AF5EEC00A30EE811A20
:10532000F1EE10FA0ADB70EEE10AC0EE811A61EECE
:10533000A10A10EEA22ADFED0F0A09E071EEE00AE1
:10534000C1EE201A61EEA10A10EEA22ADFED0A0AD0
:10535000B5EEC00A42EE210AF1EE10FA34BFB1EE0A
:10536000600AB0EE600A704708E53C1EDE02493E66
:10537000B1507B3FDB0F493FE4CB164010EE103AB3
:10538000404A9FED411A934205D930EE010A10EED2
:10539000103A9342F9D810EE103A3C4A934205DD98
:1053A00030EE410A10EE103A9342F9DCB5EEC00A35
:1053B000DFED372A9FED372ADFED371AF1EE10FACD
:1053C00060EE220A20EE023A09D243EE000AC0ED56
:1053D000000AF5EEC00AF1EE10FA12D208E043EE30
:1053E000400AC0ED000AF5EEC00AF1EE10FA08D24C
:1053F00020EEE03A33EE603A43EE210AC0ED000AB7
:1054000007E0B0EE603A10EEA03A43EE210AC0ED9C
:10541000000ADFED220A30EE200A10EE100A904258
:10542000C8BF30EE410AB5EEC00AF1EE10FA60EEE8
:10543000220A20EE021A1AD241EE000AC1ED000A39
:10544000F5EEC00AF1EE10FA08D220EEE00A30EED6
:10545000600A40EE210AC1ED000A7047B0EE600A12
:1054600010EEA00A40EE210AC1ED000A704741EE9D
:10547000400AC1ED000AF5EEC00AF1EE10FAEDD2D5
:10548000E3E70000DB0F49C0DB0FC940DB0F4940F9
:1054900083F9A23F7B81CF3E6666663EDB0FC93F44
:1054A00030EE600A32EE612A31EE601A20EE020A16
:1054B000C0EE010A30EEA10A7047B0EEC01AF0EE5D
:1054C000E01AB4EEE11AF1EE10FAD8BFB0EE600ABD
:1054D00070478842D8BF904205DC8A4201DB08460B
:1054E0007047104670478142D8BF914203DC824228
:1054F000A8BF7047F5E78842F1DC704710B5044655
:105500002DED028B9FED0A8A90ED000AF0EE480A1D
:10551000FCF76EFFB5EEC00A84ED000AF1EE10FA5A
:105520003CBF30EE080A84ED000ABDEC028B10BDD2
:105530000000B4430F4A0168DFED0F0A914209D918
:1055400090ED000A30EE200A10EE101A80ED000AED
:105550009142F5D8094A01689142D8BF704790ED51
:10556000000A30EE600A10EE101A80ED000A914237
:10557000F5DC7047DB0F49C0DB0FC940DB0F49404A
:1055800090ED001AD1ED000ADFF848C061EE011A73
:105590000022B0EEC00A40EEA01AF1EEE10A10EED1
:1055A000903A6345B8BFDFED0C0AF4EEC00AF1EEA5
:1055B00010FA0CDDC0EE201A012221EE210A80ED46
:1055C000000A91ED000A20EE210A81ED000A104642
:1055D00070470000FFE6DB2EFFE6DB2E90ED001AA1
:1055E0000021B4EEE01AF1EE10FAC8BFC0ED000AD7
:1055F00007DCB4EEC01AF1EE10FA38BF80ED000AF5
:1056000000D2012108467047D0ED000A0021F4EED7
:10561000C00AF1EE10FA06DCB1EE400AF4EEC00A60
:10562000F1EE10FA02D280ED000A0121084670471F
:10563000000001000200010003000100020001005F
:10564000040001000200010003000100020001004B
:10565000050001000200010003000100020001003A
:10566000040001000200010003000100020001002B
:105670000600010002000100030001000200010019
:10568000040001000200010003000100020001000B
:1056900005000100020001000300010002000100FA
:1056A00004000100020001000300010002000100EB
:1056B00007000100020001000300010002000100D8
:1056C00004000100020001000300010002000100CB
:1056D00005000100020001000300010002000100BA
:1056E00004000100020001000300010002000100AB
:1056F0000600010002000100030001000200010099
:10570000040001000200010003000100020001008A
:105710000500010002000100030001000200010079
:10572000040001000200010003000100020001006A
:10573000000000000030F13D0070643E0000A33E18
:105740000090CF3E0090F83E00400F3F00E0203F29
:105750000000000015B78337CDE37B380EE1C53874
:1057600060F69138AF5F0F38E1BC3E3823F447391B
:10577000905700080000002098010000C2030008B4
:10578000A457000898010020884600004826000819
:10579000017502C6010D5301020304010203040650
:0457A00007080900ED
:040000050800018965
:00000001FF
